:04000000A7EF0CF06A
:1010000000494E4954204552524F52202020202062
:1010100020004572726F722052656164202020208A
:101020002020004572726F7220577269746520200B
:101030002020200053442F4D4D43206361726420D3
:101040004F4B21200052656164204F4B212020200E
:1010500020202020005772697465204F4B212020EA
:101060002020202000222A2B2C3A3B3C3D3E3F5B97
:101070005D7C7F0000001C6E1C50D8B402D0030EB3
:10108000F0D0270E026E100E016E3CEC0DF0949C19
:10109000828C949E8296949A94880A0E236E0BD02A
:1010A000000E026E1F0E016E000E046E010E036E26
:1010B000D4EC0BF023062366F3D7000E266E000E49
:1010C0000E6E000E0F6E000E106E000E116E000EF2
:1010D00037EC0BF01B6E1B04D8A4B5D0AA0E0E6E15
:1010E000010E0F6E000E106E000E116E080E37EC22
:1010F0000BF01B6E1B04D8A45AD0000E026E1F0EFC
:10110000016E000E046E040E036ED4EC0BF021048D
:10111000D8A499D02250AA0AD8A495D0030E286E3C
:10112000E80E276E17D0000E0E6E000E0F6E000E2A
:10113000106E400E116EA90E37EC0BF00009D8B4FA
:101140000DD0030E026EE80E016E3CEC0DF027068A
:10115000D8A0280628502710D8A4E5D72850271053
:10116000D8B471D0000E0E6E000E0F6E000E106E11
:10117000000E116E3A0E37EC0BF00009D8A463D0C4
:10118000000E026E1F0E016E000E046E040E036E42
:10119000D4EC0BF01FBC04D0000E1E6E040E03D066
:1011A000000E1E6E0C0E1D6E1DC026F04CD0000EE3
:1011B0000E6E000E0F6E000E106E000E116EA90E58
:1011C00037EC0BF01B6E020E1B5CD8B004D0020E85
:1011D000266EA90E03D0010E266E010E246E030E9C
:1011E000286EE80E276E17D0000E0E6E000E0F6EE2
:1011F000000E106E000E116E245037EC0BF000093B
:10120000D8B40DD0030E026EE80E016E3CEC0DF06A
:101210002706D8A0280628502710D8A4E5D728509C
:101220002710D8B40ED0000E0E6E020E0F6E000EF8
:10123000106E000E116E100E37EC0BF00009D8B4D2
:1012400002D0000E266E26C069F02650D8A402D027
:10125000010E01D0000E256E25C07AF048EC0DF08D
:101260002550120020EE6AF010EE2EF0100EDECFA8
:10127000E6FFE82EFCD7010E446E000E416E000E14
:10128000406E000E3F6E200E3E6E79EC0DF0CAEC03
:101290000CF012D0000E3BEC08F0446E404A412A9C
:1012A0004050960A4110D8A407D0100E0A6E010EC5
:1012B000096E05EC0DF0FFD74466ECD7100E0A6EF0
:1012C000340E096E05EC0DF0A00E016E860E026E56
:1012D000010E036E000E046E1EEC0DF0A00E016EEA
:1012E000860E026E010E036E000E046E1EEC0DF0F3
:1012F00083AE31D083BEFED70D0E1C6E800E1B6EEA
:10130000010E1D6E000E1E6E000E1F6E000E206E72
:10131000000E226E010E216E000E7FEC0AF0446E6C
:101320004450D8B40CD0010E096E010E54EC0DF0EF
:10133000100E0A6E120E096E05EC0DF0D9D7010ED3
:10134000096E010E54EC0DF0100E0A6E450E096E7A
:1013500005EC0DF0CDD783AC48D083BCFED7000E92
:10136000436E000E426E4350800A7E0F000ED8B4CA
:10137000425CD8B00BD0800E4224D96E0D0E4320B3
:10138000DA6E440EDF6E424A432AEDD70D0E1C6E14
:10139000800E1B6E010E1D6E000E1E6E000E1F6E67
:1013A000000E206E000E226E010E216E000EF8EC73
:1013B00009F0446E4450D8B40CD0010E096E010EF1
:1013C00054EC0DF0100E0A6E230E096E05EC0DF0B4
:1013D0008FD7010E096E010E54EC0DF0100E0A6E3F
:1013E000550E096E05EC0DF083D782AE81D7FDD77F
:1013F000246E245071EC0DF0236E23A002D0030E56
:101400007DD069B608D0090ED8901D361E361F361D
:101410002036E82EF9D721042210D8A420D01DC0F0
:101420000EF01EC00FF01FC010F020C011F0180EFB
:1014300037EC0BF00009D8A458D0200E0D6E1CC05C
:101440000CF01BC00BF0FE0E0E6E8BEC0BF00C5074
:101450000B10D8B44AD0000E226E000E45D069C0E1
:1014600023F0060E2316D8B409D021C00EF022C0F6
:101470000FF0106A116A970E37EC0BF01DC00EF0DA
:101480001EC00FF01FC010F020C011F0190E37EC75
:101490000BF00009D8A429D0200E0D6E1CC00CF052
:1014A0001BC00BF0FC0E0E6E8BEC0BF00C500B10F7
:1014B000D8B409D0020E1C262106D8A0220622503C
:1014C0002110D8A4E9D7000E0D6E000E0C6E000E90
:1014D0000B6EFD0E0E6E8BEC0BF00C500B10D8A4A7
:1014E00004D0000E226E010E216E48EC0DF0225049
:1014F0002110D8B402D0010E01D0000E1200246ECB
:10150000245071EC0DF0236E23A002D0030E57D0AF
:1015100069B608D0090ED8901D361E361F36203603
:10152000E82EF9D7020E215C000E2258D8B004D064
:10153000000E266E110E03D0000E266E120E256EC2
:1015400025C027F01DC00EF01EC00FF01FC010F008
:1015500020C011F0275037EC0BF00009D8A426D09A
:101560001CC007F01BC006F0020E096E000E086ECC
:1015700015EC0CF007500610D8B409D0020E1C264A
:101580002106D8A0220622502110D8A4E9D727503E
:10159000120AD8A40BD0000E0E6E000E0F6E000EB5
:1015A000106E000E116E0C0E37EC0BF048EC0DF0C7
:1015B00022502110D8B402D0010E01D0000E12002A
:1015C00001C0F6FF02C0F7FF03C0F8FFF8BA03D06E
:1015D0000800F55005D0F6CFE9FFF7CFEAFFEF504E
:1015E000066E010E0126000E0222000E032206AE38
:1015F00002D0828A01D0829A8286829606AC02D07C
:10160000828A01D0829A8286829606AA02D0828A33
:1016100001D0829A8286829606A802D0828A01D060
:10162000829A8286829606A602D0828A01D0829A07
:101630008286829606A402D0828A01D0829A82860D
:10164000829606A202D0828A01D0829A82868296EF
:1016500006A002D0828A01D0829A828682960406EF
:10166000D8A0050605500410D8B41200A9D71A6EE8
:101670001A500C0AD8B40AD048EC0DF0E9EC0CF082
:101680000C500B10D8A402D0FF0E44D01A504009C1
:10169000126E11C013F010C014F00FC015F00EC080
:1016A00016F0010E186E1A6602D0950E186E1A50BA
:1016B000080AD8A402D0870E186E18C017F0200EA2
:1016C000036E000E026E120E016E000E056E060E07
:1016D000046EE0EC0AF01A500C0AD8A40AD0000EEE
:1016E000026E190E016E000E046E010E036ED4EC34
:1016F0000BF00A0E186E000E026E190E016E000E2F
:10170000046E010E036ED4EC0BF019AE02D0182E4D
:10171000F2D71950120080EC0CF007500610D8B424
:101720003AD00EC010F0200E036E000E026E100EA6
:10173000016E000E056E010E046EE0EC0AF00E5014
:10174000FD0AD8B42CD00DC003F00CC002F00BC0C1
:1017500001F0020E056E000E046EE0EC0AF0000EC1
:10176000026E100E016E000E046E020E036ED4ECBB
:101770000BF0000E026E100E016E000E046E010ED4
:10178000036ED4EC0BF010C00FF01F0E0F160F50AD
:10179000050AD8B404D0000E0C6E000E03D0000E63
:1017A0000C6E010E0B6E1200828A000E056E82B85E
:1017B000052A82868296D890053682B8052A8286C6
:1017C0008296D890053682B8052A82868296D8906D
:1017D000053682B8052A82868296D890053682B868
:1017E000052A82868296D890053682B8052A828696
:1017F0008296D890053682B8052A82868296D8903D
:10180000053682B8052A8286829601C0D9FF02C0B9
:10181000DAFF05C0DFFF014A022A0306D8A004064A
:1018200004500310D8B41200C0D7030E0B6EE80E9C
:101830000A6E16D0000E026E0C0E016E000E046EC3
:10184000010E036ED4EC0BF00C28D8A40DD0000EC2
:10185000026E640E016E3CEC0DF00A06D8A00B0679
:101860000B500A10D8A4E6D70C50FE0AD8B404D006
:10187000000E076E000E17D007C002F006C001F080
:1018800008C003F009C004F0D4EC0BF0000E026EA7
:101890000C0E016E000E046E020E036ED4EC0BF003
:1018A000000E076E010E066E1200086E036608D069
:1018B00083CF04F0EF0E04160450066E076A08D0BA
:1018C000100E83CF04F0056A0410066E0550076EF3
:1018D00006C083FF08C004F0043A0F0E04168350BC
:1018E000F00B0410836E2DEC0DF008C004F00F0E09
:1018F00004168350F00B0410836E2DEC0DF01200D3
:10190000130E096E880E086E16D0000E026E0A0EB7
:10191000016E000E046E010E036ED4EC0BF00A286B
:10192000D8B40DD0000E026E640E016E3CEC0DF0CA
:101930000806D8A0090609500810D8A4E6D709500F
:101940000810000ED8A4010E066E076A12000BEEF6
:1019500052F014EE2EF0EE6AE550E150FCE1E25058
:10196000FAE100EE45F0250EEE6AE806FDE1D00E44
:10197000F66E1A0EF76E000EF86E00EE6AF010EEBC
:1019800011F00900F5CFEEFFE550E150FAE100015A
:1019900032EF09F0000E036E010E55EC0CF0000E54
:1019A000036E020E55EC0CF0000E036E060E55ECA5
:1019B0000CF0000E036E0C0E55EC0CF0000E036ED6
:1019C000280E55EC0CF0000E036E800E55EC0CF05A
:1019D0001200829C000E026E0D0E016E000E046E4F
:1019E000010E036ED4EC0BF080EC0CF007500610E7
:1019F000D8B404D0000E0C6E010E05D048EC0DF0EA
:101A0000000E0C6E000E0B6E12000DD0010E036E58
:101A100009C0F6FF0AC0F7FFF86A0800F55055EC58
:101A20000CF0094A0A2A09C0F6FF0AC0F7FFF86A53
:101A30000800F5500009D8B41200E8D70106000EDE
:101A4000025A035A045A0128D8B40228D8B40328E9
:101A5000D8B40428D8B41200F1D7838A010E026EDC
:101A6000F40E016E5FEC0DF0839A010E026EF40E1F
:101A7000016E5FEC0DF0120001C003F002C004F033
:101A80000106D8A0020602500110D8B41200F4D703
:101A9000828C000E026E060E016E000E046E010EA8
:101AA000036ED4EC0BF012000A6E000E036E0A40B7
:101AB000E842C00B09243F0F55EC0CF01200010660
:101AC000D8A002060128D8B40228D8B41200F7D74B
:101AD00068656C6C6F20776F726C640000000000AA
:101AE0000100016E0150D8B402D0010E01D07A502D
:101AF0001200100E946EC00E956E200E936E1200A2
:020000040020DA
:08000000FFFFFFFFFFFFFFFF00
:020000040030CA
:0E000000FF071F1FFF8385FF0F400F600F409B
:00000001FF
