:1000000047EF11F00000000000EF00F000000000DA
:0A0010000000000000000000F3D71C
:10001C00B8C26FFF6DB002D00000FCD76FCF00F0FC
:02002C001200C0
:10002E00B8C2C9FFC7B002D00000FCD7C9CF00F0DC
:02003E001200AE
:10004000F250026EF29E0500FF6A0150FE6E0050F3
:08005000FD6E02BEF28E1200EB
:040058008B94120073
:10005C008B844DC2E1FF4EC2E2FFFF0EE66E4BC237
:0A006C0000F04CC201F0E6DF1200C4
:10007600400E0201AF25006E4DC2E1FF4EC2E2FF07
:1000860000C0E6FF4BC200F04CC201F0D6DF4DC205
:10009600E1FF4EC2E2FFB3C2E6FF4BC200F04CC224
:1000A60001F0CBDF4DC2E1FF4EC2E2FFB2C2E6FF76
:1000B6004BC200F04CC201F0C0DF4DC2E1FF4EC2A0
:1000C600E2FFB1C2E6FF4BC200F04CC201F0B5DF61
:1000D6004DC2E1FF4EC2E2FFB0C2E6FF4BC200F0E6
:1000E6004CC201F0AADF4DC2E1FF4EC2E2FFB4C22C
:1000F600E6FF4BC200F04CC201F09FDF0201B66B77
:10010600B76B4DC2E1FF4EC2E2FFFF0EE66E4BC279
:1001160000F04CC201F091DF00C0B5F20201B64B0F
:10012600B72B800E0014016E0150000A07E0000E86
:10013600B75D02E1640EB65D01E2E3D7B5C200F039
:020146001200A5
:1001480087DF000E000A02E1040E151809E1A1C2BA
:10015800A9F2A2C2AAF2A3C2ABF2A4C2ACF214D012
:10016800090E006EA1C2A9F2A2C2AAF2A3C2ABF202
:10017800A4C2ACF2005008E00201A937A991AA373D
:10018800AB37AC37FF0FF7D70201180EAF6FA9C214
:10019800B0F2AAC2B1F2ABC2B2F2ACC2B3F2FF0E75
:1001A800B46F65DF005204E055DF010E006E1200E7
:1001B8004DC2E1FF4EC2E2FFFF0EE66E4BC200F0F9
:1001C8004CC201F039DF4DC2E1FF4EC2E2FFFF0E23
:1001D800E66E4BC200F04CC201F02EDF4DC2E1FFCB
:1001E8004EC2E2FFFE0EE66E4BC200F04CC201F0BA
:1001F80023DF0201A76BA86BA851010802E1A751F0
:10020800FF0815E3A751A525E96EA851A621EA6EB6
:100218004DC2E1FF4EC2E2FFEECFE6FF4BC200F057
:100228004CC201F009DF0201A74BA82BE5D74DC24C
:10023800E1FF4EC2E2FFFF0EE66E4BC200F04CC279
:1002480001F0FADE4DC2E1FF4EC2E2FFFF0EE66E9C
:100258004BC200F04CC201F0EFDE4DC2E1FF4EC2CE
:10026800E2FFFF0EE66E4BC200F04CC201F0E4DE86
:1002780000C0A7F2000E0201A86F1F0EA715016E9D
:10028800A8C202F0000E021601C0A7F202C0A8F22E
:10029800000E021802E1050E011804E0DBDE020E72
:1002A800006E12004DC2E1FF4EC2E2FFFF0EE66E85
:1002B8004BC200F04CC201F0BFDE0050FF0A01E063
:0802C800F1D7C8DE006A120044
:1002D000C3DE000E000A02E1040E151809E1A1C2F6
:1002E000A9F2A2C2AAF2A3C2ABF2A4C2ACF214D089
:1002F000090E006EA1C2A9F2A2C2AAF2A3C2ABF279
:10030000A4C2ACF2005008E00201A937A991AA37B3
:10031000AB37AC37FF0FF7D70201110EAF6FA9C291
:10032000B0F2AAC2B1F2ABC2B2F2ACC2B3F2FF0EEB
:10033000B46FA1DE005204E091DE010E006E1200E7
:100340004DC2E1FF4EC2E2FFFF0EE66E4BC200F06F
:100350004CC201F075DE0050FE0A01E0F1D7020147
:10036000A76BA86B020EA85D02E1000EA75D1BE261
:10037000A751A525AD6FA851A621AE6F4DC2E1FFD3
:100380004EC2E2FFFF0EE66E4BC200F04CC201F01F
:1003900057DEADC2E1FFAEC2E2FF00C0E6FF0201E0
:1003A000A74BA82BDFD74DC2E1FF4EC2E2FFFF0EE5
:1003B000E66E4BC200F04CC201F042DE4DC2E1FFDE
:1003C0004EC2E2FFFF0EE66E4BC200F04CC201F0DF
:0803D00037DE44DE006A120072
:1003D800220E0C6E086A096A0A6A0B6A0C06D8B4FF
:1003E8001FD0D8900B320A32093208320332023257
:1003F80001320032D8A0F2D70C06D8B409D0045084
:1004080008260550092206500A2207500B22EAD76F
:10041800045008260550092206500A2207500B22CC
:020428001200C0
:10042A000B6A0A6A096A00500402F4CF09F0F3CF92
:10043A0008F001500502F4CF0BF0F3CF0AF0005098
:10044A000502F3500926F4500A22E86A0B220150E9
:10045A000402F3500926F4500A22E86A0B2208C063
:10046A0000F009C001F00AC002F00BC003F012004C
:10047A0002019D6B9E6B270E9E5D02E1100E9D5D33
:10048A00D8B09AD0000E000A02E1000E9C1915E1BC
:10049A00DEDD010EAF6FB06BB16BB26BB36BFF0EEB
:1004AA00B46FE4DD00C09FF2D4DD02019F51000A5F
:1004BA0003E1156A006A12007CD0C9DD370EAF6FFE
:1004CA00B06BB16BB26BB36BFF0EB46FCFDD00C014
:1004DA009FF2BFDD02019F51010AD8A469D0B7DD9E
:1004EA00290EAF6F000EB06F000EB16F000EB26F23
:1004FA00400EB36FFF0EB46FB9DD00C09FF2A9DDE5
:10050A0002019F51000A53E1000E000A02E1020EA5
:10051A009C1949E19CDD3A0EAF6FB06BB16BB26BBF
:10052A00B36BFF0EB46FA2DD00C09FF24DC2E1FFB4
:10053A004EC2E2FFFF0EE66E4BC200F04CC201F063
:10054A007ADD00C0A0F24DC2E1FF4EC2E2FFFF0E0B
:10055A00E66E4BC200F04CC201F06DDD4DC2E1FF08
:10056A004EC2E2FFFF0EE66E4BC200F04CC201F033
:10057A0062DD4DC2E1FF4EC2E2FFFF0EE66E4BC2E4
:10058A0000F04CC201F057DD64DD02019F51000A00
:10059A0009E1A0AD03D0040E156E02D0030E156E4C
:1005AA00006A120004D0010E156E006A120001D012
:0E05BA0003D09D4B9E2B5FD7010E006E1200EA
:1005C8000450085E0550D8A0053C095E0650D8A026
:1005D800063C0A5E0750D8A0073C0B5E0336070EA0
:1005E8000C6E0334083609360A360B36045003A05D
:1005F8000ED0085E0550D8A0053C095E0650D8A06C
:10060800063C0A5E0750D8A0073C0B5E0DD00826B2
:100618000550D8B0053C09260650D8B0063C0A2635
:100628000750D8B0073C0B2603360C2EDAD7023415
:10063800083609360A360B36045003A00ED0085E79
:100648000550D8A0053C095E0650D8A0063C0A5EB5
:100658000750D8A0073C0B5E0DD008260550D8B02F
:10066800053C09260650D8B0063C0A260750D8B0E3
:10067800073C0B260236070E0C6E02340836093684
:100688000A360B36045002A00ED0085E0550D8A0DA
:10069800053C095E0650D8A0063C0A5E0750D8A063
:1006A800073C0B5E0DD008260550D8B0053C09263E
:1006B8000650D8B0063C0A260750D8B0073C0B268F
:1006C80002360C2EDAD70134083609360A360B36CC
:1006D800045002A00ED0085E0550D8A0053C095E63
:1006E8000650D8A0063C0A5E0750D8A0073C0B5E0F
:1006F8000DD008260550D8B0053C09260650D8B0BC
:10070800063C0A260750D8B0073C0B260136070ED0
:100718000C6E0134083609360A360B36045001A02F
:100728000ED0085E0550D8A0053C095E0650D8A03A
:10073800063C0A5E0750D8A0073C0B5E0DD0082681
:100748000550D8B0053C09260650D8B0063C0A2604
:100758000750D8B0073C0B2601360C2EDAD70034E8
:10076800083609360A360B36045001A00ED0085E4A
:100778000550D8A0053C095E0650D8A0063C0A5E84
:100788000750D8A0073C0B5E0DD008260550D8B0FE
:10079800053C09260650D8B0063C0A260750D8B0B2
:1007A800073C0B260036070E0C6E00340836093657
:1007B8000A360B36045000A00ED0085E0550D8A0AB
:1007C800053C095E0650D8A0063C0A5E0750D8A032
:1007D800073C0B5E0DD008260550D8B0053C09260D
:1007E8000650D8B0063C0A260750D8B0073C0B265E
:1007F80000360C2EDAD700B00ED00450082605506B
:10080800D8B0053C09260650D8B0063C0A26075041
:08081800D8B0073C0B261200CA
:1008200002019C6B5B6B5C6B040E496E000E4A6EA2
:100830004FC2A1F250C2A2F251C2A3F252C2A4F21C
:100840004B0EA56F000EA66F43DD4A50381802E12B
:100850003750491816E1496A4A6A02015B4B5C2B22
:100860005B514F25A16F5C515021A26F000E5121A9
:10087000A36F000E5221A46F4B0EA56F000EA66F42
:1008800027DD4B0E4924E96E000E4A20EA6EEE5039
:10089000000A12E1010E4924006E000E4A20016E8A
:1008A0004B0E0024E96E000E0120EA6EEE50000AA5
:1008B00003E1010E02019C6F0201020E4926000EA7
:1008C0004A229C53C2E09C6B020E495E000E4A5ABB
:0208D000120014
:1008D2005BC200F05CC201F07FC204F080C205F08E
:1008E200A3DD49C002F04AC003F003320232039E84
:1008F200025000240201776F03500120786F12002A
:10090200020E0201775D046E000E7859056E35C045
:1009120000F0000E016E026E036E000E066E076E90
:100922005ADD00C053F201C054F202C055F203C0B6
:1009320056F27B510024536F7C510120546F7D513C
:0C0942000220556F7E510320566F1200FA
:10094E000B6A0A6A096A086A0E6A0334083604508A
:10095E00085E0550D8A0053C095E0650D8A0063C9E
:10096E000A5E0750D8A0073C0B5EE86AD8A0010EBD
:10097E000E5E0336070E0C6E0334083609360A3641
:10098E000B360E36045003A012D0085E0550D8A0C8
:10099E00053C095E0650D8A0063C0A5E0750D8A05A
:1009AE00073C0B5EE86AD8A0010E0E5E11D0082639
:1009BE000550D8B0053C09260650D8B0063C0A268C
:1009CE000750D8B0073C0B26E86AD8B0010E0E26A9
:1009DE0003360C2ED1D70234083609360A360B36BA
:1009EE000E36045003A012D0085E0550D8A0053C68
:1009FE00095E0650D8A0063C0A5E0750D8A0073CF8
:100A0E000B5EE86AD8A0010E0E5E11D008260550C6
:100A1E00D8B0053C09260650D8B0063C0A26075029
:100A2E00D8B0073C0B26E86AD8B0010E0E26023667
:100A3E00070E0C6E0234083609360A360B360E36A1
:100A4E00045002A012D0085E0550D8A0053C095EE5
:100A5E000650D8A0063C0A5E0750D8A0073C0B5E95
:100A6E00E86AD8A0010E0E5E11D008260550D8B047
:100A7E00053C09260650D8B0063C0A260750D8B0C9
:100A8E00073C0B26E86AD8B0010E0E2602360C2E55
:100A9E00D1D70134083609360A360B360E360450D5
:100AAE0002A012D0085E0550D8A0053C095E065083
:100ABE00D8A0063C0A5E0750D8A0073C0B5EE86A39
:100ACE00D8A0010E0E5E11D008260550D8B0053CF8
:100ADE0009260650D8B0063C0A260750D8B0073C67
:100AEE000B26E86AD8B0010E0E260136070E0C6EE4
:100AFE000134083609360A360B360E36045001A07C
:100B0E0012D0085E0550D8A0053C095E0650D8A04C
:100B1E00063C0A5E0750D8A0073C0B5EE86AD8A0D8
:100B2E00010E0E5E11D008260550D8B0053C0926E0
:100B3E000650D8B0063C0A260750D8B0073C0B2604
:100B4E00E86AD8B0010E0E2601360C2ED1D700342D
:100B5E00083609360A360B360E36045001A012D06E
:100B6E00085E0550D8A0053C095E0650D8A0063C8C
:100B7E000A5E0750D8A0073C0B5EE86AD8A0010EAB
:100B8E000E5E11D008260550D8B0053C0926065039
:100B9E00D8B0063C0A260750D8B0073C0B26E86AA8
:100BAE00D8B0010E0E260036070E0C6E0034083635
:100BBE0009360A360B360E36045000A012D0085EE7
:100BCE000550D8A0053C095E0650D8A0063C0A5E2A
:100BDE000750D8A0073C0B5EE86AD8A0010E0E5E47
:100BEE0011D008260550D8B0053C09260650D8B0BD
:100BFE00063C0A260750D8B0073C0B26E86AD8B048
:100C0E00010E0E2600360C2ED1D700B00ED0045099
:100C1E0008260550D8B0053C09260650D8B0063C2B
:0C0C2E000A260750D8B0073C0B26120025
:100C3A004B0E4924E16E000E4A20E26EFF0EE66E6C
:100C4A00010E4924006E000E4A20016E4B0E00244C
:100C5A00E16E000E0120E26EFF0EE66E02015B51AC
:100C6A004F25A16F5C515021A26F000E5121A36F35
:100C7A00000E5221A46F4B0EA56F000EA66FA4ECB6
:100C8A0000F002015B515725A16F5C515821A26FF8
:100C9A00000E5921A36F000E5A21A46F4B0EA56FA7
:0A0CAA00000EA66FA4EC00F012008B
:100CB4000B1E0A1E091E081E082AD8B4092AD8B415
:080CC4000A2AD8B40B2A120021
:100CCC000450000A12E10550000A0FE10650000A18
:100CDC000CE10750000A09E1FF0E006EFF0E016ED9
:100CEC00FF0E026E7F0E036E12000C6A07BE0C2AFA
:100CFC000D6A0B6A0A6A096A086A0350021001102D
:100D0C000010D8B484D0035007180E6E0EBE0D1E02
:100D1C0007AE0BD0041E051E061E071E042AD8B4EF
:100D2C00052AD8B4062AD8B4072A03AE0BD0001E65
:100D3C00011E021E031E002AD8B4012AD8B4022AAE
:100D4C00D8B4032A035007100E6E0EBE1CD036DC2E
:100D5C000CBE36D00DAE5BD0001E011E021E031E53
:100D6C00002AD8B4012AD8B4022AD8B4032A081EFF
:100D7C00091E0A1E0B1E082AD8B4092AD8B40A2A3E
:100D8C00D8B40B2A44D007AE15D003BE0DD00350F7
:100D9C000B6E02500A6E0150096E0050086E036A09
:100DAC00026A016A006AD6D7036A026A016A006A9B
:100DBC00002A000C031E021E011E001E0C8EC7D73B
:100DCC00082AD8B4092AD8B40A2AD8B40B2A045051
:100DDC00085CD8A4BFD70550095CD8A4BBD7065073
:100DEC000A5CD8A4B7D707500B5CD8A4B3D70B6A4E
:100DFC000A6A096A086A002AD8B4012AD8B4022AF5
:100E0C00D8B4032A03AEA6D70E6A0E88FF0C0E6A5E
:0A0E1C000CA001D049DF000F120006
:100E260002015B514F25A16F5C515021A26F000E4C
:100E36005121A36F000E5221A46F4B0EA56F000E19
:100E4600A66F68EC01F04B0E4924026E000E4A2094
:100E5600036E02C0E9FF03C0EAFFEECF98F2000E70
:100E66000201996F9A6F9B6F000E996F9A6F9B6F35
:100E7600010E4924006E000E4A20016E4B0E00241E
:100E8600E96E000E0120EA6EEECF99F25BC273F2B4
:100E96005CC274F249C071F24AC072F202C0E1FF4C
:100EA60003C0E2FF97C2E6FF010E4924006E000E62
:100EB6004A20016E4B0E0024E16E000E0120E26E08
:100EC60097C2E6FF5B514F25A16F5C515021A26F7F
:100ED600000E5121A36F000E5221A46F4B0EA56F79
:100EE600000EA66FA4EC00F002015B515725A16F1E
:100EF6005C515821A26F000E5921A36F000E5A2192
:100F0600A46F4B0EA56F000EA66FA4EC00F0000EAA
:100F1600006E02019B1908E100509A1905E1FF0EC7
:100F2600991902E19851FF0AD8B4A2D098C200F0EC
:100F360099C201F09AC202F09BC203F000360090FB
:100F460001360236033600C098F201C099F202C09B
:100F56009AF203C09BF237C004F038C005F0000EC9
:100F6600066E076EF1DC00C05BF201C05CF237C0B2
:100F760004F038C005F0000E066E076E98C200F049
:100F860099C201F09AC202F09BC203F0DDDC08C0F0
:100F960000F009C001F00AC002F00BC003F000C067
:100FA60049F001C04AF05B514F25A16F5C515021B9
:100FB600A26F000E5121A36F000E5221A46F4B0E9B
:100FC600A56F000EA66F68EC01F04B0E4924026E69
:100FD600000E4A20036E02C0E9FF03C0EAFFEECF0F
:100FE60098F2010E4924006E000E4A20016E4B0E47
:100FF6000024E96E000E0120EA6EEECF99F202C0DF
:10100600E1FF03C0E2FFE66A010E4924006E000E0E
:101016004A20016E4B0E0024E16E000E0120E26EA6
:10102600E66A02015B514F25A16F5C515021A26F08
:10103600000E5121A36F000E5221A46F4B0EA56F17
:10104600000EA66FA4EC00F002015B515725A16FBC
:101056005C515821A26F000E5921A36F000E5A2130
:10106600A46F4B0EA56F000EA66FA4EC00F04FD731
:1010760073C25BF274C25CF271C249F072C24AF08A
:02108600120056
:10108800416A426A436A446A3F6A406A3D6A3E6A04
:10109800456A466A476A486A0201776B786B536B00
:1010A800546B556B566B396A3A6A3B6A3C6A4F6BAC
:1010B800506B516B526B576B586B596B5A6B5B6B20
:1010C8005C6B736B746B496A4A6A716B726B376AD3
:1010D800386A7F6B806B5F6B606B6D6B6E6B796B67
:1010E8007A6B7B6B7C6B7D6B7E6B356A366A676B64
:1010F8006C6B616B626B636B646B5D6B5E6B656B7A
:0C110800666B756B766B6F6B706B120082
:10111400050E156E94942EEC00F00201976B986BFB
:10112400000E985D02E10A0E975D10E24DC2E1FFE8
:101134004EC2E2FFFF0EE66E4BC200F04CC201F05D
:1011440020EC00F00201974B982BEAD72CEC00F02E
:10115400AF6BB06BB16BB26BB36B950EB46F3BEC12
:1011640000F000C099F22EEC00F002019951010A3E
:1011740003E0010E006E12002CEC00F0080EAF6FBD
:10118400AA0EB06F010EB16F000EB26FB36F870E6F
:10119400B46F3BEC00F000C099F24DC2E1FF4EC2C7
:1011A400E2FFFF0EE66E4BC200F04CC201F020ECF1
:1011B40000F04DC2E1FF4EC2E2FFFF0EE66E4BC2ED
:1011C40000F04CC201F020EC00F04DC2E1FF4EC231
:1011D400E2FFFF0EE66E4BC200F04CC201F020ECC1
:1011E40000F04DC2E1FF4EC2E2FFFF0EE66E4BC2BD
:1011F40000F04CC201F020EC00F02EEC00F00201F3
:101204009951010A0AE0010E9C6F3DEC02F0005274
:1012140003E09C6B3DEC02F004D0020E9C6F3DECAD
:1012240002F0000E000A02E1050E151803E1020E99
:10123400006E1200000E000A02E1040E15181AE0F6
:101244002CEC00F0100EAF6F000EB06F020EB16FF9
:10125400000EB26FB36FFF0EB46F3BEC00F000C032
:1012640099F22EEC00F002019951000A03E0030EFA
:08127400006E1200006A120076
:10127C005BC273F25CC274F249C071F24AC072F282
:10128C0010EC04F0D4DC69EC04F073514F25A16F21
:10129C0074515021A26F000E5121A36F000E5221E8
:1012AC00A46F4B0EA56F000EA66F68EC01F04B0EF1
:1012BC0002017125E16E000E7221E26E77C2E6FF2B
:1012CC00010E7125006E000E7221016E4B0E002472
:1012DC00E16E000E0120E26E78C2E6FF73514F25DD
:1012EC00A16F74515021A26F000E5121A36F000EFB
:1012FC005221A46F4B0EA56F000EA66FA4EC00F04C
:10130C00020173515725A16F74515821A26F000E21
:10131C005921A36F000E5A21A46F4B0EA56F000E1E
:0C132C00A66FA4EC00F081EC04F01200AD
:10133800020197517A0804E3610E975DD8B0979B34
:0613480097C200F0120044
:10134E0077C205F078C206F0000E076E086E05C073
:10135E0000F006C001F007C002F008C003F000362E
:10136E00009001360236033600C097F201C098F2A3
:10137E0002C099F203C09AF237C004F038C005F0EB
:10138E00000E066E076EA7EC04F000C05BF201C003
:10139E005CF237C004F038C005F0000E066E076E22
:1013AE0097C200F098C201F099C202F09AC203F0FF
:1013BE00A7EC04F008C000F009C001F00AC002F06A
:0E13CE000BC003F000C049F001C04AF012004D
:1013DC003D6A3E6A3F6A406A10EC04F028DC69EC16
:1013EC0004F041C0A1F242C0A2F243C0A3F244C037
:1013FC00A4F24B0EA56F000EA66F68EC01F0020173
:10140C009B6B3E50381802E137503D1816E13D6A8F
:10141C003E6A3F4A402A3F504124A16F405042202F
:10142C00A26F000E4320A36F000E4420A46F4B0E3E
:10143C00A56F000EA66F68EC01F04B0E3D24E96E13
:10144C00000E3E20EA6EEE50E50A0AE04B0E3D24FB
:10145C00E96E000E3E20EA6EEE50000A01E003D069
:10146C00010E02019B6F0201200E3D26000E3E2252
:10147C009B53C7E09B51010AD8A40ED1200E3D5EB0
:10148C00000E3E5A9A6B9A510A0816E39A513D2463
:10149C00006E000E3E20016E4B0E0024E16E000E1D
:1014AC000120E26E9A519725E96E000E9821EA6EA2
:1014BC00EECFE6FF9A2BE7D71C0E9A6F200E9A5DA3
:1014CC000FE29A513D24006E000E3E20016E4B0E31
:1014DC000024E16E000E0120E26EE66A9A2BEED734
:1014EC001A0E3D24006E000E3E20016E4B0E0024A1
:1014FC00E16E000E0120E26E77C2E6FF1B0E3D246A
:10150C00006E000E3E20016E4B0E0024E16E000EAC
:10151C000120E26E78C2E6FF0B0E3D24006E000E39
:10152C003E20016E4B0E0024E16E000E0120E26E97
:10153C0099C2E6FF0D0E9A6F9A5119080FE39A5152
:10154C003D24006E000E3E20016E4B0E0024E16E19
:10155C00000E0120E26EE66A9A2BEED70E0E3D24A9
:10156C00006E000E3E20016E4B0E0024E16E000E4C
:10157C000120E26E75C2E6FF0F0E3D24006E000ED8
:10158C003E20016E4B0E0024E16E000E0120E26E37
:10159C0076C2E6FF100E3D24006E000E3E20016E5A
:1015AC004B0E0024E16E000E0120E26E5DC2E6FFE0
:1015BC00110E3D24006E000E3E20016E4B0E0024D9
:1015CC00E16E000E0120E26E5EC2E6FF120E3D24BB
:1015DC00006E000E3E20016E4B0E0024E16E000EDC
:1015EC000120E26E5DC2E6FF130E3D24006E000E7C
:1015FC003E20016E4B0E0024E16E000E0120E26EC7
:10160C005EC2E6FF160E3D24006E000E3E20016EFB
:10161C004B0E0024E16E000E0120E26E75C2E6FF57
:10162C00170E3D24006E000E3E20016E4B0E002462
:10163C00E16E000E0120E26E76C2E6FF180E3D242C
:10164C00006E000E3E20016E4B0E0024E16E000E6B
:10165C000120E26E5DC2E6FF190E3D24006E000E05
:10166C003E20016E4B0E0024E16E000E0120E26E56
:10167C005EC2E6FF3F504124A16F40504220A26F52
:10168C00000E4320A36F000E4420A46F4B0EA56FD9
:0E169C00000EA66FA4EC00F081EC04F012002A
:1016AA00020197517A0806E3610E975D03E3010E82
:0816BA00006E01D0006A12006D
:1016C2000900F5CFE6FF0006FBE10106F9E1120091
:1016D2000201856B866B1DDD862B005204E0320E03
:1016E200865D01E2F8D7320E865D03E3FF0E006EDF
:1016F2001200C9DC61C2A1F262C2A2F263C2A3F209
:1017020064C2A4F24B0EA56F000EA66F68EC01F046
:1017120002014951550AD8A463D04A51AA0AD8A451
:101722005FD04B50E90A09E04B50EB0A04E14D50FF
:10173200900A01E102D0006A02D0010E006E00524E
:101742004DE1155307E1165305E1175303E1185311
:1017520001E109D011C261F212C262F213C263F254
:1017620014C264F239D0255307E1265305E1275309
:1017720003E1285301E109D021C261F222C262F2DF
:1017820023C263F224C264F227D0355307E13653F1
:1017920005E1375303E1385301E109D031C261F267
:1017A20032C262F233C263F234C264F215D04553DC
:1017B20007E1465305E1475303E1485301E109D0EC
:1017C20041C261F242C262F243C263F244C264F2B3
:1017D20003D0010E006E1200856B02D0010E856FE0
:1017E200866B855326E161C2A1F262C2A2F263C294
:1017F200A3F264C2A4F24B0EA56F000EA66F68ECB2
:1018020001F002014951550A06E14A51AA0A03E1CF
:10181200010E856F0ED08651400A03E1010E006E63
:101822001200862B010E6127000E622363236423BC
:10183200D8D7010E866F8551010AD8A403D157C0AB
:1018420038F0376A56503712000E381258C035F049
:101852005AC060F25F6B59505F13000E60135BC099
:1018620067F262C001F0006A000161510012000ECD
:10187200011200C06DF201C06EF25BC004F0000EF6
:10188200056E15EC02F0005002016125416E015017
:101892006221426E000E6321436E000E6421446E8B
:1018A2005F51412660514222000E432244225DC014
:1018B20001F0006A5C500012000E011200C079F2C1
:1018C20001C07AF200C005F001C006F0000E076EFA
:1018D200086E050E046E05C000F006C001F007C0D8
:1018E20002F008C003F0045007E000360090013611
:1018F20002360336FF0FF8D7375000263850012240
:10190200000E02220322010E005E000E015A025A4C
:10191200035A37C004F038C005F0000E066E076E99
:1019220066EC06F00050412402017B6F0150422018
:101932007C6F025043207D6F035044207E6F5F51C5
:101942006125006E60516221016E000E6321026EFC
:10195200000E6421036E00C04FF201C050F202C0BB
:1019620051F203C052F26D510024576F6E510120A3
:10197200586F000E0220596F000E03205A6F37C0B5
:101982007FF238C080F280337F33809F0001615143
:101992006211006E54E05F505E10006E05E05EC0A2
:1019A20081F25FC082F208D06BC081F26CC082F219
:1019B2006DC083F26EC084F281C200F082C201F077
:1019C20083C202F084C203F002017B51005E7C51AB
:1019D200015A7D51025A7E51035A35C004F0000E5D
:1019E200056E066E076EA7EC04F000C081F201C01E
:1019F20082F202C083F203C084F2000E035C08E1AB
:101A0200000E025C05E10F0E015C02E1F50E005CC6
:101A120004E20201010E866F11D00201000E845D04
:101A220008E1000E835D05E1FF0E825D02E1F50E25
:101A3200815D02E2866B02D0010E866F03D0010E39
:0A1A4200006E120086C200F01200D0
:101A4C00C69A2E0E02014B6F000E4C6FB80E4D6FE6
:101A5C00020E4E6FFF0E686FFF0E696FFF0E6A6FFE
:101A6C00FF0E6B6F949A8151040A02E1948601D0A7
:101A7C0094969488C66A8151C6128351C6128251BB
:101A8C00C712835305E08451000AD8B4C78C03D025
:0A1A9C008453D8A4C78CC68A120038
:101AA6000201936B946B93518125E96E000E82219E
:101AB600EA6EEE50000A40E093518125E96E000E71
:101AC6008221EA6EEE502E0A02E193C294F29351FD
:101AD6008125E96E000E8221EA6EEECF97F2E2DDF5
:101AE600005218E0870E956F020E966F9351952758
:101AF600D8B0962B93518125E96E000E8221EA6EAD
:101B0600EECF97F216DC95C2E1FF96C2E2FF00C067
:101B1600E6FF10D0870EE16E020EE26E9351E126CB
:101B2600D8B0E22A93518125E96E000E8221EA6E31
:101B3600EECFE6FF932BB7D7870EE16E020EE26E6D
:101B46009351E126D8B0E22AE66A945354E094C24F
:101B560093F2030E9425016E026A000E0222800E95
:101B6600006E800E0218005C02E10150935D43E2B4
:101B76009351010F006E016A000E0122870E0024A8
:101B8600E96E020E0120EA6EEE50000A1CE1020E1A
:101B96009425016E026A000E0222800E0218006E63
:101BA600800E005C02E19351015C0CE3870EE16E4E
:101BB600020EE26E9351E126D8B0E22A200EE66EBE
:101BC600932BE5D718D0870EE16E020EE26E935185
:101BD600E126D8B0E22A9351010F006E016A000E89
:101BE6000122870E0024E96E020E0120EA6EEECF76
:101BF600E6FF932BAED793070A0E935D2FE2870E6F
:101C0600E96E020EEA6E9351E926D8B0EA2AEECFC3
:101C160091F29307870EE96E020EEA6E9351E9265A
:101C2600D8B0EA2AEECF90F29307870EE96E020E3D
:101C3600EA6E9351E926D8B0EA2AEECF8FF2935195
:101C460007080CE3870EE16E020EE26E9351E12661
:101C5600D8B0E22A200EE66E932BF1D7926B3D6A3E
:101C66003E6A3F6A406A41C0A1F242C0A2F243C046
:101C7600A3F244C0A4F24B0EA56F000EA66F68EC4B
:101C860001F00201846B856B946B3E50381802E1BB
:101C960037503D1816E13D6A3E6A3F4A402A3F509A
:101CA6004124A16F40504220A26F000E4320A36F33
:101CB600000E4420A46F4B0EA56F000EA66F68ECB5
:101CC60001F00201946B936B93510A081AE3935146
:101CD6003D24006E000E3E20016E4B0E0024E96E80
:101CE600000E0120EA6E870ED96E020EDA6E93514F
:101CF600D926D8B0DA2AEE50DE18D8B4942B932B16
:101D0600E3D7844B852B4B0E3D24E96E000E3E2017
:101D1600EA6EEECF86F2200E3D26000E3E2294514C
:101D26000B0A0DE085517A1902E17951841902E115
:101D36001E0E946F8651000A02E1190E946F94519B
:101D46000A08A3E2140E945DD8B0D5D0200E3D5CEF
:101D5600026E000E3E58036E02C03DF003C03EF018
:101D66001A0E0224006E000E0320016E4B0E002494
:101D7600E96E000E0120EA6EEECF77F21B0E02240A
:101D8600006E000E0320016E4B0E0024E96E000E5D
:101D96000120EA6EEECF78F281EC04F01C0E3D24B1
:101DA600006E000E3E20016E4B0E0024E96E000E02
:101DB6000120EA6EEECF39F01D0E3D24006E000EB6
:101DC6003E20016E4B0E0024E96E000E0120EA6EE5
:101DD600EECF3AF01E0E3D24006E000E3E20016E40
:101DE6004B0E0024E96E000E0120EA6EEECF3BF0AA
:101DF6001F0E3D24006E000E3E20016E4B0E002489
:101E0600E96E000E0120EA6EEECF3CF0A7EC09F079
:101E16000E0E3D24006E000E3E20016E4B0E002479
:101E2600E96E000E0120EA6EEECF75F20F0E3D242C
:101E3600006E000E3E20016E4B0E0024E96E000E71
:101E46000120EA6EEECF76F2100E3D24006E000EF3
:101E56003E20016E4B0E0024E96E000E0120EA6E54
:101E6600EECF5DF2110E3D24006E000E3E20016E97
:101E76004B0E0024E96E000E0120EA6EEECF5EF2F4
:101E8600160E3D24006E000E3E20016E4B0E002401
:101E9600E96E000E0120EA6EEECF6FF2170E3D24BA
:101EA600006E000E3E20016E4B0E0024E96E000E01
:101EB6000120EA6EEECF70F2180E3D24006E000E81
:101EC6003E20016E4B0E0024E96E000E0120EA6EE4
:101ED600EECF65F2190E3D24006E000E3E20016E17
:101EE6004B0E0024E96E000E0120EA6EEECF66F27C
:101EF600010E006E120083AF0CD0870E976F020E94
:101F0600986F7F0E8315996FEEEC09F0010E006E47
:061F16001200006A120037
:101F1C0053C2A1F254C2A2F255C2A3F256C2A4F209
:101F2C004B0E0201A56F000EA66F68EC01F00201CA
:101F3C00856B866B8451865D02E18351855D53E22E
:101F4C004B0E4524E16E000E4620E26E8551812534
:101F5C00E96E86518221EA6EEECFE6FF010E452630
:101F6C00000E462247224822000E006E481808E157
:101F7C000050471805E13850461802E14550371813
:101F8C002EE153C2A1F254C2A2F255C2A3F256C220
:101F9C00A4F24B0EA56F000EA66FA4EC00F0010E80
:101FAC0002015327000E542355235623456A466AD3
:101FBC00476A486A362A3650351803E1366A3EECD1
:101FCC0009F053C2A1F254C2A2F255C2A3F256C2F6
:101FDC00A4F24B0EA56F000EA66F68EC01F0020187
:101FEC00854B862BA7D753C2A1F254C2A2F255C27D
:101FFC00A3F256C2A4F24B0EA56F000EA66FA4EC72
:10200C0000F002018551392686513A22000E3B22FE
:10201C003C223F504124A16F40504220A26F000E41
:10202C004320A36F000E4420A46F4B0EA56F000E2F
:10203C00A66F68EC01F0120E3D24006E000E3E20DF
:10204C00016E4B0E0024E16E000E0120E26E5DC2AB
:10205C00E6FF130E3D24006E000E3E20016E4B0E6B
:10206C000024E16E000E0120E26E5EC2E6FF140E4B
:10207C003D24006E000E3E20016E4B0E0024E16EDE
:10208C00000E0120E26EE66A150E3D24006E000E75
:10209C003E20016E4B0E0024E16E000E0120E26E1C
:1020AC00E66A160E3D24006E000E3E20016E4B0EAD
:1020BC000024E16E000E0120E26E75C2E6FF170EE1
:1020CC003D24006E000E3E20016E4B0E0024E16E8E
:1020DC00000E0120E26E76C2E6FF180E3D24006E63
:1020EC00000E3E20016E4B0E0024E16E000E01200E
:1020FC00E26E5DC2E6FF190E3D24006E000E3E201E
:10210C00016E4B0E0024E16E000E0120E26E5EC2E9
:10211C00E6FF1C0E3D24006E000E3E20016E4B0EA1
:10212C000024E16E000E0120E26E39C0E6FF1D0EA8
:10213C003D24006E000E3E20016E4B0E0024E16E1D
:10214C00000E0120E26E3AC0E6FF1E0E3D24006E2A
:10215C00000E3E20016E4B0E0024E16E000E01209D
:10216C00E26E3BC0E6FF1F0E3D24006E000E3E20CB
:10217C00016E4B0E0024E16E000E0120E26E3CC09D
:10218C00E6FF3F5041240201A16F40504220A26F54
:10219C00000E4320A36F000E4420A46F4B0EA56FBE
:0A21AC00000EA66FA4EC00F0120074
:1021B600FF0E0201976F13EC07F0456A466A476AFD
:1021C600486A396A3A6A3B6A3C6A366A69EC04F0DC
:1021D60081EC04F03F504124A16F40504220A26F91
:1021E600000E4320A36F000E4420A46F4B0EA56F74
:1021F600000EA66F68EC01F01C0E3D24006E000E6A
:102206003E20016E4B0E0024E16E000E0120E26EB0
:10221600E66A1D0E3D24006E000E3E20016E4B0E3A
:102226000024E16E000E0120E26EE66A1E0E3D24D9
:10223600006E000E3E20016E4B0E0024E16E000E75
:102246000120E26EE66A1F0E3D24006E000E3E205F
:10225600016E4B0E0024E16E000E0120E26EE66A6E
:102266003F5041240201A16F40504220A26F000E50
:102276004320A36F000E4420A46F4B0EA56F000EE3
:08228600A66FA4EC00F01200A9
:10228E0087EC11F00F013A6B606A010E0201816F4B
:10229E00826B836B010E846F26EC0DF069EC0BF0F4
:1022AE000050000A1BE10201816B826B836B010EF1
:1022BE00846F26EC0DF02C0E816F000E826F800E57
:1022CE00836F53EC0DF070DF160E0201816F000E5E
:1022DE00826F150E836F000E846F19DEFFD7FFD746
:10230E0010EE15F0200E006E010E016EEE0EF66E42
:0E231E00220EF76E000EF86E61EC0BF012004E
:0122EE0000EF
:1022EF0057726974696E6720746F2053442043617D
:0622FF0072642E2E2E0079
:09230500546573742E5458540001
:020000040030CA
:0D00010003193CFFB581FF0FC00FE00F4059
:00000001FF
