:100000000C943F030C945C030C945C030C945C0311
:100010000C945C030C945C030C945C030C945C03E4
:100020000C945C030C945C030C945C030C945C03D4
:100030000C945C030C945C030C945C030C945C03C4
:100040000C945C030C945C030C945C030C945C03B4
:100050000C945C032046726565204D656D6F727966
:100060003A2000546F74616C204D656D6F72793A5F
:1000700020004572726F7220696E20676574746922
:100080006E6720636C757374657200456E64206FD3
:100090006620436C757374657220436861696E00F5
:1000A0002046696C65204372656174656421200097
:1000B0002046696C6520617070656E64656421001E
:1000C000204E6F206672656520636C75737465726F
:1000D000210020456E74657220746578742028654F
:1000E0006E642077697468207E293A00204E6F2064
:1000F0006672656520636C757374657221002043B8
:1001000072656174696E672046696C652E2E0020E9
:1001100046696C6520616C726561647920657869F7
:100120007374732C20617070656E64696E672064EF
:100130006174612E2E00496E76616C696420666977
:100140006C654E616D652E2E004572726F7220696E
:100150006E2067657474696E6720636C757374656F
:1001600072004572726F7220696E206765747469DF
:100170006E6720636C757374657200524F4F540044
:10018000444952002020200046494C4500202020B0
:100190000046696C652064656C6574656421004483
:1001A000656C6574696E672E2E0046696C65206407
:1001B0006F6573206E6F74206578697374210020F9
:1001C000496E76616C6964206F7074696F6E21008E
:1001D0002066696C65206E616D6520746F6F206CA0
:1001E0006F6E672E2E00456E7465722066696C65B1
:1001F000206E616D653A20005265616420737563FD
:100200006365737366756C21005265616420666175
:10021000696C65642E2E005772697465207375636E
:100220006365737366756C21005772697465206627
:1002300061696C65642E2E0020456E7465722074B1
:100240006578742028456E642077697468207E295B
:100250003A004572617365642100457261736520DF
:100260006661696C65642E2E00456E74657220743B
:10027000686520426C6F636B206E756D62657220DD
:1002800028303030302D39393939293A0046415437
:100290003332206F7074696F6E73206469736162AA
:1002A0006C656421003E2053656C656374204F705B
:1002B00074696F6E2028302D392F612F622F6329CA
:1002C0003A20003E20623A205570646174652044F3
:1002D0006174652020202020202020202020202044
:1002E00020202020633A2055706461746520546991
:1002F0006D65003E20393A205265616420534420E8
:100300004D656D6F72792043617061636974792006
:1003100020202020613A2053686F77204461746563
:1003200020262054696D65003E20373A20577269B7
:1003300074652046696C6520202020202020202024
:10034000202020202020202020383A2044656C6581
:1003500074652046696C65003E20353A2047657417
:100360002066696C65206C69737420202020202031
:10037000202020202020202020363A205265616451
:100380002046696C65003E20313A205772697465D9
:100390002073696E676C6520426C6F636B20202050
:1003A00020202020202020323A20526561642073D2
:1003B000696E676C6520426C6F636B003E20303A5B
:1003C00020457261736520426C6F636B732000502F
:1003D0007265737320616E79206B65792E2E2E0005
:1003E0004641543332206E6F7420666F756E6421FF
:1003F00000556E6B6E6F776E2053442043617264BC
:1004000020446574656374656421005374616E648F
:100410006172642043617061636974792043617221
:1004200064202856657220322E7829204465746530
:100430006374656421004869676820436170616383
:1004400069747920436172642044657465637465DE
:100450006421005374616E64617264204361706151
:100460006369747920436172642028566572203173
:100470002E782920446574656374656421004361A6
:10048000726420496E697469616C697A6174696F1C
:100490006E206661696C65642E2E00534420636192
:1004A0007264206E6F742064657465637465642E75
:1004B0002E002A2A2A2A2A2A2A2A2A2A2A2A2A2AC2
:1004C0002A2A2A2A2A2A2A2A2A2A2A2A2A2A2A2A8C
:1004D0002A2A2A2A2A2A2A2A2A2A2A2A2A2A2A2A7C
:1004E0002A2A2A2A2A2A0020202020446861726DA4
:1004F000616E692773206D6963726F534420436195
:1005000072642054657374696E672E2E2020002A51
:100510002A2A2A2A2A2A2A2A2A2A2A2A2A2A2A2A3B
:100520002A2A2A2A2A2A2A2A2A2A2A2A2A2A2A2A2B
:100530002A2A2A2A2A2A2A2A2A2A2A2A2A2A2A2A1B
:100540002A2A2A00496E76616C696420456E7472AD
:10055000792E2E00446174652055706461746520A5
:100560004661696C65642E2E004461746520557087
:1005700064617465642073756365737366756C6C10
:10058000792100456E746572204461792028537585
:100590006E6461793A302C204D6F6E6461793A3126
:1005A0002E2E2E292028302D36293A00456E7465CE
:1005B000722044617465202864642F6D6D2F7979F1
:1005C000293A00496E76616C696420456E747279CF
:1005D0002E2E0054696D6520557064617465204647
:1005E00061696C65642E2E0054696D6520557064D8
:1005F000617465642073756365737366756C6C797B
:100600002100456E7465722054696D6520696E2005
:1006100032346820666F726D61742868683A6D6D57
:100620003A7373293A00556E6B6E6F776E005361A3
:100630007475726461790046726964617900546806
:10064000757273646179005765646E65736461796E
:100650000054756573646179004D6F6E6461790053
:1006600053756E64617900202020204461793A201E
:1006700000446174653A0054696D653A00001124C4
:100680001FBECFE5D8E0DEBFCDBF10E0A0E6B0E0F2
:10069000E6EFF1E302C005900D92A038B107D9F75B
:1006A00012E0A0E8B0E001C01D92A33DB107E1F760
:1006B0000E94370F0C94F9180C940000EF92FF92EF
:1006C0000F931F932091A5023091A602E0908D0018
:1006D000F0908E0000918F00109190006250704059
:1006E0008040904040E050E00E94B8189B01AC016F
:1006F0002E0D3F1D401F511FB901CA011F910F91BF
:10070000FF90EF9008958F929F92AF92BF92CF92F9
:10071000DF92EF92FF920F93DF93CF93CDB7DEB7C7
:1007200064970FB6F894DEBF0FBECDBF982E6A0156
:100730007B01DE011196E0E6F0E084E101900D928C
:100740008150E1F70CE08CE2882E053011F0093081
:1007500029F4FE01E00FF11D808201505E01A00E20
:10076000B11CC701B6012AE030E040E050E00E9431
:10077000D7186063F5016083C701B6012AE030E055
:1007800040E050E00E94D718C901DA016C017D01F8
:10079000C114D104E104F10411F00150B1F6F1E00B
:1007A0009F1611F48BE48E87CE0101960E944814A7
:1007B00064960FB6F894DEBF0FBECDBFCF91DF9128
:1007C0000F91FF90EF90DF90CF90BF90AF909F90F0
:1007D0008F9008950F931F93DF93CF93CDB7DEB71C
:1007E0002B970FB6F894DEBF0FBECDBF8C01582FEC
:1007F000A12FFC0140E080818E3219F4493030F0A5
:100800000EC04F5F31964C30B1F709C0BE016F5F2B
:100810007F4F852F9A2F9C01F901DB0108C086E3E9
:1008200091E00E943E1481E052C081918D938E2F01
:10083000851B8417D0F3842F9E012F5F3F4F90E2DA
:1008400005C0F901E80FF11D90838F5F8830C9F76B
:10085000242F2F5FAE014F5F5F4F30E2F801E20FB0
:10086000F11D9081992359F0FA01E80FF11D908351
:100870002F5F07C0FA01E80FF11D30838F5F8B30C7
:10088000C8F38F5F8B3050F39E01245F3F4FFB0115
:100890009081892F81568A3110F4905290836F5F36
:1008A0007F4F6217730799F720E030E0AE014F5F8A
:1008B0005F4FF801E20FF31FDA01A20FB31F8C9113
:1008C00080832F5F3F4F2B30310599F780E02B96C7
:1008D0000FB6F894DEBF0FBECDBFCF91DF911F9151
:1008E0000F9108956F927F928F929F92AF92BF92D5
:1008F000CF92DF92EF92FF920F931F9360783B01AC
:100900004C0122E0660C771C881C991C2A95D1F7B3
:100910005B016C0150C0E090B002F090B1022091F8
:1009200095003091960000E010E08091A702909130
:10093000A802A091A902B091AA02E80EF91E0A1F0E
:100940001B1F40E050E0C401B3010E94D718E20E23
:10095000F31E041F151FC801B7010E94651360E054
:10096000E62FF0E0EE0FFF1FEE0FFF1FEB55FF4FDE
:1009700080819181A281B381BF700097A105B105EB
:1009800039F4A6019501260F311D411D511D25C0C9
:100990006F5F603829F780E890E0A0E0B0E0A80E33
:1009A000B91ECA1EDB1E80E092E0A0E0B0E0680E37
:1009B000791E8A1E9B1E8091970090919800A091AD
:1009C0009900B0919A00A816B906CA06DB0608F489
:1009D000A2CF20E030E040E050E0B901CA011F9111
:1009E0000F91FF90EF90DF90CF90BF90AF909F90CE
:1009F0008F907F906F900895CF92DF92EF92FF9249
:100A00000F931F93D82EC62E79018A016091A702F9
:100A10007091A8028091A9029091AA026F5F7F4F06
:100A20008F4F9F4F0E9465138091A5009091A60063
:100A3000A091A700B091A80082559245A146B1446B
:100A400009F054C08091890290918A02A0918B0292
:100A5000B0918C0282579247A144B14609F046C03A
:100A60008091A1029091A202A091A302B091A40250
:100A700080509040A545BA4AC9F5CC20A9F481E040
:100A8000D81649F420918D0230918E0240918F0248
:100A9000509190022FC0209191023091920240918A
:100AA00093025091940226C021E0D21649F4E092BC
:100AB0008D02F0928E0200938F021093900208C074
:100AC000E0929102F09292020093930210939402AA
:100AD0006091A7027091A8028091A9029091AA0248
:100AE0006F5F7F4F8F4F9F4F0E9417132FEF3FEF86
:100AF0004FEF5FEFB901CA011F910F91FF90EF9087
:100B0000DF90CF900895DF92EF92FF920F931F93A3
:100B1000D82EDB01CA01E9E0B695A7959795879590
:100B2000EA95D1F7517060707070411551056105FB
:100B3000710519F4AC01BD0106C0AC01BD014F5FE8
:100B40005F4F6F4F7F4FDB01CA0133E0B695A7952A
:100B5000979587953A95D1F747705070607070708F
:100B6000411551056105710519F47C018D0107C01E
:100B70007C018D010894E11CF11C011D111D809167
:100B8000B7028823D9F081E060E020E030E040E067
:100B900050E00E94FC04DD2039F49B01AC012E0DD5
:100BA0003F1D401F511F06C09B01AC012E193F097C
:100BB000400B510B81E061E00E94FC041F910F91FA
:100BC000FF90EF90DF9008952F923F924F925F92A7
:100BD0006F927F928F929F92AF92BF92CF92DF924D
:100BE000EF92FF920F931F932091970030919800FE
:100BF0004091990050919A006091A5027091A602CF
:100C000080E090E00E94B8185B016C011AE0D69475
:100C1000C794B794A7941A95D1F7E0909500F090F7
:100C200096008DE00E943A148AE00E943A148DE00A
:100C30000E943A148AE00E943A1483E690E00E94EF
:100C40003E1400E010E0C601B501A80197010E9422
:100C5000B818AB01BC0181E00E94830381E060E031
:100C600020E030E040E050E00E94FC043B014C01F9
:100C70008091970090919800A0919900B0919A006E
:100C800086159705A805B90508F07CC01092B70233
:100C9000A0909B00B0909C00C0909D00D0909E00C2
:100CA000B2E0AA0CBB1CCC1CDD1CBA95D1F76624A3
:100CB00077244301222433242101E090B002F090F4
:100CC000B102209195003091960000E010E08091F3
:100CD000A7029091A802A091A902B091AA02E80EE1
:100CE000F91E0A1F1B1F40E050E0C601B5010E941B
:100CF000D718E20EF31E041F151FC801B7010E948A
:100D00006513A201910160E070E0FB01EB55FF4F1C
:100D100080819181A281B381BF700097A105B10547
:100D200029F40894611C711C811C911C2F5F3F4F9A
:100D30004F4F5F4F8091970090919800A09199003C
:100D4000B0919A000296A11DB11D281739074A07D4
:100D50005B07C1F0C901821993096C5F7F4F02E004
:100D60006030700791F6E12CA2E0FA2E012D112DD2
:100D7000AE0CBF1CC01ED11E8038910518F01901A1
:100D80002A019BCF8091B702882331F481E061E092
:100D9000A40193010E94FC0481E08093B70220919A
:100DA000A5023091A60240E050E0C401B3010E94C8
:100DB000B8185B016C01FAE0D694C794B794A79475
:100DC000FA95D1F7E0909500F09096008DE00E94A2
:100DD0003A148AE00E943A1484E590E00E943E149E
:100DE00000E010E0C601B501A80197010E94B81803
:100DF000AB01BC0181E00E9483038DE00E943A14A4
:100E00008AE00E943A141F910F91FF90EF90DF90BB
:100E1000CF90BF90AF909F908F907F906F905F909A
:100E20004F903F902F9008956F927F928F929F9254
:100E3000AF92BF92CF92DF92EF92FF920F931F93E8
:100E40001092A7021092A8021092A9021092AA0270
:100E500060E070E080E090E00E9465138091A50062
:100E6000893E19F18B3E09F18091A3029091A40271
:100E700085559A4A09F0B0C060916B0270916C027E
:100E800080916D0290916E026093A7027093A80208
:100E90008093A9029093AA020E9465138091A500F5
:100EA000893E19F08B3E09F097C08091B000909177
:100EB000B10090939600809395008091B20090E0ED
:100EC0009093A6028093A502A090B300B090B400C6
:100ED000B092B102A092B0028091D1009091D20064
:100EE000A091D300B091D40080939B0090939C007C
:100EF000A0939D00B0939E00E090B002F090B102EC
:100F00006091B50070E080E090E02091C9003091E0
:100F1000CA004091CB005091CC000E94B8183B0110
:100F20004C0100E010E08091C1009091C200A091BE
:100F3000C300B091C400E80EF91E0A1F1B1FE60C87
:100F4000F71C081D191DE0928D00F0928E00009391
:100F50008F00109390002091A5023091A602CC241E
:100F6000DD246091C5007091C6008091C70090910A
:100F7000C8006A197B098C099D09661977098809D7
:100F8000990940E050E00E94D718C901DA01809326
:100F9000970090939800A0939900B0939A0081E0F5
:100FA00060E020E030E040E050E00E94FC0420914E
:100FB0009700309198004091990050919A0026171F
:100FC00037074807590718F41092B70203C081E0A9
:100FD0008093B70280E001C081E01F910F91FF90E4
:100FE000EF90DF90CF90BF90AF909F908F907F90C9
:100FF0006F9008954F925F926F927F928F929F921F
:10100000AF92BF92CF92DF92EF92FF920F931F9316
:10101000CF93DF935B016C01842E2801390180910D
:10102000B0029091B10202E0AA0CBB1CCC1CDD1CEA
:101030000A95D1F720919500309196007C0100E04F
:1010400010E08091A7029091A802A091A902B0910E
:10105000AA02E80EF91E0A1F1B1F40E050E0C6015D
:10106000B5010E94D718E20EF31E041F151FC09190
:101070009500D09196009924C801B7010E9465138C
:10108000882321F093948AE09816B1F79E0140E0FE
:1010900050E0C601B5010E94D718FB01EB55FF4F88
:1010A000882031F420813181428153815F700CC0EE
:1010B0004082518262827382C801B7010E94171375
:1010C00020E030E040E050E0B901CA01DF91CF916B
:1010D0001F910F91FF90EF90DF90CF90BF90AF9056
:1010E0009F908F907F906F905F904F9008952F9278
:1010F0003F924F925F926F927F928F929F92AF92A8
:10110000BF92CF92DF92EF92FF920F931F93DF93E4
:10111000CF93CDB7DEB72A970FB6F894DEBF0FBED8
:10112000CDBF8D837F836E83A0909B00B0909C0089
:10113000C0909D00D0909E00815088872091A5028C
:101140003091A602E0908D00F0908E0000918F000B
:1011500010919000C601B5016250704080409040EF
:1011600040E050E00E94B8181B012C012E0C3F1CDF
:10117000401E511E66247724430160C1D401C3017F
:10118000820D931DA41DB51D89839A83AB83BC83F7
:10119000BC01CD010E94651340E2E42EF12C3EC15A
:1011A0008A010B551F4FF701EB55FF4FB097808118
:1011B000B096882341F49D819150923008F068C127
:1011C0008AEA91E063C1853E09F424C17597808164
:1011D0008F3009F41FC1A885A23008F0D2C020E0EA
:1011E00030E0C801820F931FAE81BF81A20FB31FF1
:1011F000FC0190818C91981709F00CC1822F8F5FB0
:101200002F5F3F4F2B30310561F78B3009F002C162
:10121000FD81F13009F03FC089819A81AB81BC81A9
:101220008093B8029093B902A093BA02B093BB0224
:10123000CA01A0E0B0E08093870090938800A0935B
:101240008900B0938A00D80154968D919C9155974E
:10125000A0E0B0E0DC0199278827F801228D338DCA
:1012600040E050E0822B932BA42BB52B8093B2024D
:101270009093B302A093B402B093B502848D958D80
:10128000A68DB78D8093910090939200A0939300C8
:10129000B0939400FFC08DE00E943A148AE00E944F
:1012A0003A148FE991E00E943E148DE00E943A14B6
:1012B0008AE00E943A148DE00E943A148AE00E946B
:1012C0003A14D80154968D919C915597A0E0B0E0C6
:1012D0005C0199248824F801828D938DA0E0B0E010
:1012E000882A992AAA2ABB2A85EE808369817A8175
:1012F0008B819C810E941713D8015C964D915D9162
:101300006D917C915F9780E00E94830582E060E0B0
:1013100020E030E040E050E00E94FC048616970692
:10132000A806B90630F482E061E0A50194010E94AC
:10133000FC04C501B40140E000E010E020E030E032
:101340000E94FA07F62EE72ED82EC92EC501B40149
:1013500041E000E010E020E030E00E94FA078F2D2D
:101360009E2DAD2DBC2D4C015D01B7EF8B16BFEF4F
:101370009B06BFEFAB06BFE0BB06D8F281E991E068
:1013800085C08DE00E943A148AE00E943A141A86C1
:1013900019860BC0E985E73019F480E20E943A14FF
:1013A00089859A8501969A878987E985FA85E00F6C
:1013B000F11F80810E943A14A985BA851A9751F7C6
:1013C0008DE891E00E943E1487010B551F4F055197
:1013D0001040F80180810B5E1F4F8031B9F08830DA
:1013E00019F48BE791E014C088E891E00E943E1464
:1013F00084E891E00E943E14F801349740815181C5
:101400006281738180E00E94830304C080E891E0E0
:101410000E943E1480E290E0E80EF91EA7014052BF
:10142000504080919500909196004817590708F414
:10143000B7CE0894611C711C811C911C8091A5027F
:101440009091A602A0E0B0E0681679068A069B0695
:1014500008F494CEC601B50140E000E010E020E0C1
:1014600030E00E94FA075B016C0197EFA9169FEF2D
:10147000B9069FEFC9069FE0D90650F4A114B10444
:10148000C104D10409F05ACE82E691E00E943E14D4
:1014900000E010E0C8012A960FB6F894DEBF0FBE38
:1014A000CDBFCF91DF911F910F91FF90EF90DF9013
:1014B000CF90BF90AF909F908F907F906F905F90F4
:1014C0004F903F902F900895CF93DF93EC010E94AF
:1014D000EA03882321F482E0BE010E947708DF91AD
:1014E000CF9108952F923F924F925F926F927F9289
:1014F0008F929F92AF92BF92CF92DF92EF92FF9224
:101500000F931F93DF93CF9300D000D0CDB7DEB7FA
:10151000E82E8B01CB010E94EA03882311F082E0C0
:101520009BC081E0B8010E9477089C01009709F4F4
:1015300092C081E0E81609F48FC0D90154968D91CC
:101540009C915597A0E0B0E04C0177246624F90106
:10155000828D938DA0E0B0E0682A792A8A2A9B2A9E
:10156000D9015C968D919D910D90BC91A02D8983A0
:101570009A83AB83BC838DE00E943A148AE00E9478
:101580003A148DE00E943A148AE00E943A14222410
:10159000332421012091A5023091A602E0908D0014
:1015A000F0908E0000918F0010919000C401B30163
:1015B000625070408040904040E050E00E94B81877
:1015C0005B016C01AE0CBF1CC01ED11EEE2425C0F9
:1015D000C601B5016E0D711D811D911D0E9465131F
:1015E00000E010E0F801EB55FF4F80810E943A14B3
:1015F00089819A81AB81BC81281639064A065B062F
:1016000050F50894211C311C411C511C0F5F1F4FC9
:1016100092E00030190731F7E3942091A502309150
:10162000A6028E2D90E08217930790F2C401B301B9
:1016300040E000E010E020E030E00E94FA073B01CB
:101640004C01611571058105910509F0A3CF89E46D
:1016500091E00E943E1480E00F900F900F900F9049
:10166000CF91DF911F910F91FF90EF90DF90CF907E
:10167000BF90AF909F908F907F906F905F904F90B2
:101680003F902F9008952F923F924F925F926F92CA
:101690007F928F929F92AF92BF92CF92DF92EF9202
:1016A000FF920F931F93DF93CF93CDB7DEB72797AA
:1016B0000FB6F894DEBF0FBECDBF9D838C8381E053
:1016C0006C817D810E94720A813009F05BC08FE0DD
:1016D00091E00E943E146090B2027090B30280903C
:1016E000B4029090B502AA24BB246501C401B301E1
:1016F00040E000E010E020E030E00E94FA076F3F99
:101700002FEF72072FEF82072FE0920741F0089426
:10171000A11CB11CC11CD11C3B014C01E7CF209185
:10172000A5023091A6026091950070919600E0901C
:101730009500F090960080E090E040E050E00E943C
:10174000B818A60195010E94B8189B01AC016091E0
:101750009100709192008091930090919400621B8F
:10176000730B840B950B00E010E0A80197010E9419
:10177000D718B22E21E0AA24A3941A8219821F82BC
:101780001E8259C0823009F440C38DE00E943A1491
:101790008AE00E943A148EEF90E00E943E1482E0AC
:1017A00060E020E030E040E050E00E94FC049B015B
:1017B000AC018091970090919800A0919900B09110
:1017C0009A0082179307A407B50740F420919B0065
:1017D00030919C0040919D0050919E00CA01B9013A
:1017E0000E9472043B014C01611571058105910550
:1017F00049F48DE00E943A148AE00E943A148CEE7B
:1018000090E001C341E00FEF1FEF2FEF3FE00E9498
:10181000FA07C401AA27BB279A8389837F826E8235
:1018200010929100109292001092930010929400E6
:1018300020E0AA24BB241B822B2C332444245524CF
:10184000C401B30162507040804090402223E9F10E
:101850002091A5023091A602E0908D00F0908E00BC
:1018600000918F0010919000E20CF31C041D151DD7
:1018700040E050E00E94B818E60EF71E081F191F3E
:10188000E092A100F092A2000093A3001093A400A4
:101890006091A1007091A2008091A3009091A4009A
:1018A0000E946513209195003091960040E050E031
:1018B00060919100709192008091930090919400BA
:1018C0000E94D7188B01EB2C1FC02091A5023091EC
:1018D000A602E0908D00F0908E0000918F00109194
:1018E000900040E050E00E94B818E60EF71E081F76
:1018F000191FE092A100F092A2000093A3001093A0
:10190000A400EE2400E010E08DE00E943A148AE08A
:101910000E943A1482ED90E00E943E148B81813047
:10192000E9F48AE00E943A14F801EB55FF4F8AE08F
:1019300080830F5F1F4F8091910090919200A09142
:101940009300B09194000196A11DB11D8093910068
:1019500090939200A0939300B09394000E9435144A
:10196000F82E98E08917D1F401151105B9F388E034
:101970000E943A1480E20E943A1488E00E943A14CD
:10198000015010408091910090919200A09193009D
:10199000B09194000197A109B109D8CF0E943A14DF
:1019A000F801EB55FF4FF0820F5F1F4F80919100C0
:1019B00090919200A0919300B09194000196A11D86
:1019C000B11D8093910090939200A0939300B093E7
:1019D0009400ADE0FA1621F5B2E000301B0719F4CF
:1019E000E1E0EB8324C08AE00E943A14F801EB5551
:1019F000FF4F8AE080830F5F1F4F8091910090918D
:101A00009200A0919300B09194000196A11DB11D88
:101A10008093910090939200A0939300B0939400D0
:101A2000F2E000301F0710F41B822AC01B82609175
:101A3000A1007091A2008091A3009091A4000E9447
:101A40001713E3942091A5023091A6028E2D90E009
:101A500082179307D1F08091A1009091A200A091EC
:101A6000A300B091A4000196A11DB11D8093A10017
:101A70009093A200A093A300B093A40000E010E014
:101A80002EE7F21609F04ACF05C08EE7F816C1F529
:101A900000E010E08091910090919200A09193005D
:101AA000B09194000197A109B1098093910090939E
:101AB0009200A0939300B0939400B80161507040DD
:101AC00006C0FB01EB55FF4F10826F5F7F4F92E026
:101AD00060307907B0F36091A1007091A20080910D
:101AE000A3009091A4000E94171382E061E0A4017A
:101AF00093010E94FC040E941F17882349F530C0FF
:101B0000C401B3010E9472046B017C01611571056F
:101B10008105910549F48DE00E943A148AE00E9403
:101B20003A1480EC90E06FC1C401B30141E0970129
:101B300086010E94FA07C701B60141E00FEF1FEFCF
:101B40002FEF3FE00E94FA0720E03601470178CEF0
:101B500010928C0010928B001092A00010929F00A7
:101B6000AA2009F454C06091B8027091B902809122
:101B7000BA029091BB020E946513E0918700F09138
:101B80008800EB55FF4F138A128A80919F00909135
:101B9000A000978B868B80918B0090918C00918F09
:101BA000808F20919100309192004091930050914C
:101BB0009400848D958DA68DB78D79018A01E81AE0
:101BC000F90A0A0B1B0B248F358F468F578F6091B4
:101BD000B8027091B9028091BA029091BB020E9442
:101BE000171381E0B801A7010E9483058DE00E94D0
:101BF0003A148AE00E943A1480EB90E00E943E146E
:101C00008DE00E943A148AE00E943A14FEC080904F
:101C10009B0090909C00A0909D00B0909E0022247C
:101C20002091A5023091A602E0908D00F0908E00E8
:101C300000918F0010919000C501B4016250704076
:101C40008040904040E050E00E94B8182B013C01D9
:101C50004E0C5F1C601E711E33248CC07301620128
:101C6000C30CD11CE11CF11CC701B6010E94651315
:101C700000E210E074C0222009F0C7C0AF014B554C
:101C80005F4FF801EB57FF4FE081EE2319F0E53E7F
:101C900009F063C020E030E0BA01620F731FAC812D
:101CA000BD81A20FB31F8C91DB018C932F5F3F4F3F
:101CB0002B30310589F7F801EB55FF4F7597B0E2EE
:101CC000B1931192119220919F003091A000219325
:101CD000319380918B0090918C008193919311822C
:101CE0001082349621933193918380833497898134
:101CF0009A81918380833696AE81BF81A193B193FF
:101D00008091910090919200A0919300B0919400E5
:101D100080839183A283B383C701B6010E94171306
:101D20008DE00E943A148AE00E943A148DE00E94ED
:101D30003A148AE00E943A1480EA90E00E943E142D
:101D400040919100509192006091930070919400A5
:101D500081E00E94830522242394005E1F4F80911E
:101D6000950090919600F801B097E817F90708F4EC
:101D700082CF33942091A5023091A602832D90E06A
:101D80008217930708F46ACFC501B40140E000E070
:101D900010E020E030E00E94FA076B017C01673F11
:101DA000BFEF7B07BFEF8B07BFE09B0710F16F3FD3
:101DB000EFEF7E07EFEF8E07EFE09E07B9F4C50166
:101DC000B4010E9472046B017C01C501B40141E0C1
:101DD000970186010E94FA07C701B60141E00FEFA3
:101DE0001FEF2FEF3FE00E94FA0703C08BE890E05F
:101DF0000AC046015701C114D104E104F10409F0FD
:101E00000FCF82E790E00E943E1427960FB6F89419
:101E1000DEBF0FBECDBFCF91DF911F910F91FF901D
:101E2000EF90DF90CF90BF90AF909F908F907F907A
:101E30006F905F904F903F902F9008951BBA1ABA01
:101E40008FEE88BB8FEB87BB15BA14BA12BA8EEF30
:101E500081BB0895F8940E941E0F0E941C140E94DA
:101E600057180E942B1415BE1BBE19BE08956F9201
:101E70007F928F929F92AF92BF92CF92DF92EF921A
:101E8000FF920F931F93DF93CF93CDB7DEB72E97BB
:101E90000FB6F894DEBF0FBECDBF88EE93E028ECFE
:101EA00030E0F9013197F1F70197D9F70E942A0F35
:101EB000929A8DE00E943A148AE00E943A148DE0D2
:101EC0000E943A148AE00E943A148FE095E00E9442
:101ED0003E148DE00E943A148AE00E943A1487EE84
:101EE00094E00E943E148DE00E943A148AE00E9421
:101EF0003A1482EB94E00E943E148DE00E943A1462
:101F00008AE00E943A141092B60200E010E00E94AB
:101F10009613882399F00F5F1F4F0A301105B9F708
:101F2000813029F48BE994E00E943E1406C082308F
:101F300021F48EE794E00E943E14FFCF8091B60218
:101F4000823039F0833041F0813049F483E594E008
:101F500008C086E394E005C08BE094E002C081EF06
:101F600093E00E943E1480E58DB9709A80ED97E071
:101F70000197F1F70E941407882319F4EE24E394E3
:101F80000BC08DE00E943A148AE00E943A1480EE61
:101F900093E00E943E14EE24F1E08F2E912CA12CB0
:101FA000B12C6E010894C11CD11CEEE06E2E712C78
:101FB0006C0E7D1E8DE00E943A148AE00E943A1455
:101FC0008FEC93E00E943E148DE00E943A148AE068
:101FD0000E943A140E9435148DE00E943A148AE05F
:101FE0000E943A148CEB93E00E943E148DE00E9414
:101FF0003A148AE00E943A1486E893E00E943E1464
:102000008DE00E943A148AE00E943A1488E593E039
:102010000E943E148DE00E943A148AE00E943A1415
:1020200088E293E00E943E148DE00E943A148AE018
:102030000E943A1483EF92E00E943E148DE00E94C9
:102040003A148AE00E943A1483EC92E00E943E1413
:102050008DE00E943A148AE00E943A148DE00E94BA
:102060003A148AE00E943A148DE00E943A148AE001
:102070000E943A1485EA92E00E943E140E943514B0
:10208000F82E0E943A148F2D8553853098F4EE2057
:1020900089F48DE00E943A148AE00E943A148DE09F
:1020A0000E943A148AE00E943A148DE892E00E945D
:1020B0003E1480CF8F2D8053853008F0A2C08DE074
:1020C0000E943A148AE00E943A148DE00E943A1469
:1020D0008AE00E943A1489E692E00E943E140E942F
:1020E0003514082F0E943A1410E00F70107088EE1B
:1020F00093E09C01029FC001039F900D129F900DE1
:102100001124AA2797FDA095BA2F8093A100909340
:10211000A200A093A300B093A4000E943514082F3E
:102120000E943A142091A1003091A2004091A30096
:102130005091A40010E00F70107084E690E0BC0194
:10214000069FC001079F900D169F900D1124AA278E
:1021500097FDA095BA2F820F931FA41FB51F8093E0
:10216000A1009093A200A093A300B093A4000E94AA
:102170003514082F0E943A142091A1003091A2003A
:102180004091A3005091A40010E00F701070C8019E
:1021900073E0880F991F7A95E1F7000F111F800FE8
:1021A000911FAA2797FDA095BA2F820F931FA41FF6
:1021B000B51F8093A1009093A200A093A300B093B9
:1021C000A4000E943514182F0E943A148091A10097
:1021D0009091A200A091A300B091A4001F70810F64
:1021E000911DA11DB11D8093A1009093A200A09309
:1021F000A300B093A4008DE00E943A148AE00E94EC
:102200003A148092AC029092AD02A092AE02B092CB
:10221000AF0279E3F71609F440C17F15B0F082E30D
:10222000F81609F49BC08F1540F020E3F21649F12F
:1022300031E3F31609F03FC145C065E3F61609F432
:10224000C3C0F61608F437C1CBC073E4F71609F41F
:102250002FC17F1548F081E4F81609F421C122E46A
:10226000F21609F028C121C132E6F31609F41DC1A6
:1022700063E6F61609F41CC171E6F71609F01BC1F6
:102280000FC16091A1007091A2008091A300909174
:10229000A4002091AC023091AD024091AE02509169
:1022A000AF020E94E412182F8DE00E943A148AE0D7
:1022B0000E943A14112319F08AE592E049C082E5A0
:1022C00092E046C08DE00E943A148AE00E943A14DF
:1022D00088E392E00E943E1400E010E00E94351472
:1022E000F82E0E943A14F801EB55FF4FF0820F5F71
:1022F0001F4F8DE0F81651F48AE00E943A14F8015D
:10230000EB55FF4F8AE080830F5F1F4F22E00030C4
:10231000120719F03EE7F31609F76091A1007091DA
:10232000A2008091A3009091A4000E941713182F7F
:102330008DE00E943A148AE00E943A148DE00E94D7
:102340003A148AE00E943A14112329F089E292E0BB
:102350000E943E14C6C087E192E0FACF6091A100CE
:102360007091A2008091A3009091A4000E94651337
:10237000182F8DE00E943A148AE00E943A1411232B
:1023800019F089E092E0E4CF00E010E0F801EB55AD
:10239000FF4F80818E3749F080810E943A140F5F91
:1023A0001F4F62E00030160789F78DE00E943A1453
:1023B0008AE00E943A148DE00E943A148AE00E945A
:1023C0003A1488EF91E0C4CF8DE00E943A148AE07D
:1023D0000E943A1480E060E070E00E94770881C0BB
:1023E0008DE00E943A148AE00E943A148DE00E9427
:1023F0003A148AE00E943A1486EE91E00E943E145C
:10240000F6011192E615F705E1F700E010E00E94F1
:102410003514982F8D3029F1883079F40115110584
:10242000B1F388E00E943A1480E20E943A1488E0F6
:102430000E943A1401501040EACF80528F3538F78D
:10244000892F9E870E943A14F601E00FF11F9E85A6
:1024500090830F5F1F4F0D301105C9F680ED91E09D
:1024600077CF0D301105E8F58DE00E943A148AE02F
:102470000E943A1476E3F71629F480E0B6010E9430
:10248000720A2FC087E3F81621F4C6010E94430B9D
:1024900028C0C6010E94640A24C00E94E40521C02D
:1024A0000E94E2170E9441181CC00E94531519C0D7
:1024B0000E94441616C08DE00E943A148AE00E94E1
:1024C0003A148DE00E943A148AE00E943A148FEB8D
:1024D00091E00E943E148DE00E943A148AE00E942E
:1024E0003A148DE00E943A148AE00E943A1462CDB8
:1024F000DF92EF92FF920F931F93D82E7A018B01F8
:102500008091AB028823B9F48D2D8151823060F027
:1025100088E1D81649F089E1D81631F080E2D81662
:1025200019F081E2D81639F439E0EE0CFF1C001FD7
:10253000111F3A95D1F7C4988D2D80640E94201404
:10254000812F9927AA27BB270E942014C801AA27F8
:10255000BB270E942014BB27A12F902F8F2D0E94F4
:1025600020148E2D0E94201488E0D81611F487E8DC
:1025700001C085E90E94201410E002C01150D1F082
:102580000E942514082F8F3FC9F3882399F48AE30A
:10259000D81681F40E94251486FF04C081E0809340
:1025A000AB0202C01092AB020E9425140E942514B7
:1025B0000E9425140E942514C49A802F1F910F9108
:1025C000FF90EF90DF900895AF92BF92CF92DF928D
:1025D000EF92FF920F931F937B018C0159016A01C7
:1025E00080E2B801A7010E9478128823B9F4089408
:1025F000E108F10801091109EA0CFB1C0C1D1D1D65
:1026000081E2B801A7010E947812882339F486E29A
:1026100040E050E060E070E00E9478121F910F915E
:10262000FF90EF90DF90CF90BF90AF900895CF9341
:10263000DF93AB01BC0188E10E947812882311F07E
:10264000982F3FC0C4988EEF0E942014C0E0D0E0C5
:10265000FE01EB55FF4F80810E942014219682E0FD
:10266000C030D807A9F78FEF0E9420148FEF0E9487
:1026700020140E942514982F8F71853041F0C49A40
:1026800020C08FEFCF3FD80791F0219602C0C0E065
:10269000D0E00E9425148823A1F3C49A8FEF0E94F2
:1026A0002014C49808C08FEFCF3FD80719F4C49AFC
:1026B00091E007C021960E9425148823A1F3C49AB3
:1026C00090E0892FDF91CF9108951F93CF93DF93EF
:1026D000AB01BC0181E10E947812182F882309F513
:1026E000C498C0E0D0E005C0219719F4C49A11E065
:1026F00018C00E9425148E3FB9F7C0E0D0E00E94B8
:102700002514FE01EB55FF4F8083219682E0C030F7
:10271000D807A9F70E9425140E9425140E942514A9
:10272000C49A812FDF91CF911F9108951F93CF936A
:10273000DF9310E08FEF0E9420141F5F1A30D1F753
:10274000C498C0E0D0E080E040E050E060E070E09D
:102750000E9478122196C132D10511F481E068C03F
:10276000813089F7C49A8FEF0E9420148FEF0E9466
:102770002014C0E0D0E088E04AEA51E060E070E078
:102780000E9478122196CF3FD10559F48DE00E9426
:102790003A148AE00E943A1481E08093B60211E074
:1027A00003C0813041F712E0C0E0D0E087E340E0B1
:1027B00050E060E070E00E94781289E240E050E072
:1027C00060E070E40E9478122196CF3FD10541F479
:1027D0008DE00E943A148AE00E943A1482E028C0F8
:1027E000882321F71092AB02123011F5C0E0D0E03F
:1027F0008AE340E050E060E070E00E9478122196A9
:10280000CF3FD10549F48DE00E943A148AE00E943E
:102810003A141092B60202C0882351F78091AB029D
:10282000813011F482E001C083E08093B60280E041
:10283000DF91CF911F91089582E58DB91EB808955B
:102840008FB9779BFECF8FB108958FEF8FB9779BAC
:10285000FECF8FB108951AB81BB886E880BD89E114
:1028600089B910BC88E18AB908955F9BFECF8BB10E
:102870008CB108955D9BFECF8CB90895FC0104C016
:102880005D9BFECF31968CB984918823C9F708955A
:10289000FC0104C05D9BFECF31968CB980818823FA
:1028A000C9F70895DF93CF93CDB7DEB72B970FB657
:1028B000F894DEBF0FBECDBF813011F494E005C0A7
:1028C000823011F498E001C092E0DE011196E4E755
:1028D000F0E08BE001900D928150E1F79E012E5FB8
:1028E0003F4F842F8F70E92FF0E08A3020F4E20F01
:1028F000F31F805D03C0E20FF31F895C808391505A
:1029000041F084E076956795579547958A95D1F77C
:10291000E8CFCE0101960E9448142B960FB6F8948A
:10292000DEBF0FBECDBFCF91DF9108958091C2026F
:1029300090E08770907064E0880F991F6A95E1F7C6
:102940002091C3022F70282B209380008091BF021A
:1029500090E08770907054E0880F991F5A95E1F7C6
:102960002091C0022F70282B209381008091BC02FF
:1029700090E08370907044E0880F991F4A95E1F7CA
:102980002091BD022F70282B209382008091D102CC
:10299000809383008091C70290E08370907034E050
:1029A000880F991F3A95E1F72091C8022F70282BC4
:1029B000209384008091CA0290E08170907024E09E
:1029C000880F991F2A95E1F72091CB022F70282BB1
:1029D000209385009091CF029295907F8091D002B4
:1029E0008F70982B90938600089587E696E00E945A
:1029F0003E14809183008330B9F0843028F4813014
:102A000069F0823070F407C08530A1F0853078F02D
:102A10008630B1F412C080E696E014C089E596E0F5
:102A200011C081E596E00EC087E496E00BC08EE30E
:102A300096E008C087E396E005C08EE296E002C00B
:102A400086E296E00E943E1408950E945C18813050
:102A500011F180ED0E9476188130E9F083E00E9448
:102A60008D188130C1F0809183000E948D188130D3
:102A700091F0809184000E948D18813061F08091E6
:102A800085000E948D18813031F0809186000E946F
:102A90008D18813021F40E94B51881E008950E94BC
:102AA000B51880E008950F931F938DE00E943A14AB
:102AB0008AE00E943A148CEA95E00E943E140E943B
:102AC0003514182F0E943A14812F8053843008F057
:102AD000A5C01093C7020E943514182F0E943A1403
:102AE000812F80538A3008F099C01093C8021F705C
:102AF0008091C70290E0837090709C01A3E0220F48
:102B0000331FAA95E1F7880F991F280F391F210F4E
:102B1000311D203231050CF081C08FE20E943A1441
:102B20000FE20093C9020E943514182F0E943A1434
:102B3000812F8053823008F071C01093CA020E9426
:102B40003514182F0E943A14812F80538A3008F0D0
:102B500065C01093CB021F708091CA0290E0837011
:102B600090709C01E3E0220F331FEA95E1F7880F94
:102B7000991F280F391F210F311D2D3031050CF001
:102B80004DC08FE20E943A140093CC0282E38093FE
:102B9000CD0280E38093CE020E943514182F0E944C
:102BA0003A14812F80538A30C8F51093CF020E94C7
:102BB0003514182F0E943A14812F80538A3070F5F3
:102BC0001093D0028DE00E943A148AE00E943A14D9
:102BD00083E895E00E943E140E943514182F0E944D
:102BE0003A14812F80538730C8F41F701093D1029C
:102BF0000E9496140E942515182F8DE00E943A1409
:102C00008AE00E943A14112331F489E695E00E948B
:102C10003E1480E00EC084E595E008C08DE00E947F
:102C20003A148AE00E943A1484E495E00E943E142B
:102C300081E01F910F9108950E945C188130E1F0AE
:102C400080ED0E9476188130B9F080E00E948D18E6
:102C5000813091F0809180000E948D18813061F068
:102C6000809181000E948D18813031F08091820026
:102C70000E948D18813021F40E94B51881E00895DA
:102C80000E94B51880E008951F938DE00E943A14C9
:102C90008AE00E943A1482E096E00E943E140E946C
:102CA0003514182F0E943A14812F8053833008F076
:102CB0006EC01093BC020E943514182F0E943A1463
:102CC000812F80538A3008F062C01093BD028AE3DE
:102CD0000E943A148091BC0290E0837090709C0135
:102CE00013E0220F331F1A95E1F7880F991F280F61
:102CF000391F8091BD028F70280F311D2831310599
:102D00000CF045C00E943514182F0E943A14812FF0
:102D100080538630E0F51093BF020E943514182FBF
:102D20000E943A14812F80538A3088F51093C00294
:102D30008AE30E943A140E943514182F0E943A1414
:102D4000812F8053863018F51093C2020E943514EB
:102D5000182F0E943A14812F80538A30C0F41093A8
:102D6000C3020E9496140E941C16182F8DE00E9428
:102D70003A148AE00E943A14112331F488EE95E067
:102D80000E943E1480E00EC083ED95E008C08DE007
:102D90000E943A148AE00E943A1483EC95E00E9463
:102DA0003E1481E01F9108950E945C18813051F01B
:102DB00080ED0E947618813029F080E00E948D1805
:102DC000813021F40E94B51881E008950E94B51861
:102DD00080E008951F93CF93DF930E945C188130A9
:102DE000F9F080ED0E9476188130D1F080E00E94E9
:102DF0008D188130A9F00E946918813089F081ED29
:102E00000E947618813061F0C0E8D0E010E0163002
:102E100019F40E94A81802C00E949B188E3721F452
:102E20000E94B51881E007C089931F5F173079F7BA
:102E30000E94B51880E0DF91CF911F9108950E9404
:102E4000EA16882311F081E0089540918600842FCE
:102E500082958F7090E0FC01B3E0EE0FFF1FBA95F2
:102E6000E1F7880F991FE80FF91F50E04F7050707D
:102E70004C5E5F4F60918500862F82958F70AAE02F
:102E80008A9F802D112470918400272F22952F7006
:102E90002A9F202D11246F70860F90E04E0F5F1F28
:102EA000E4E0440F551FEA95E1F7842B952B65E08C
:102EB000880F991F6A95E1F77F70270F30E0822B0A
:102EC000932B90938C0080938B0070918200872FBE
:102ED00082958F708A9F802D1124E09181004E2F62
:102EE00042954F704A9F402D112460918000262FFB
:102EF00022952F702A9F202D11246F70260F7F702E
:102F0000870F90E056E0880F991F5A95E1F7EF7010
:102F10004E0F50E0842B952B35E0880F991F3A9582
:102F2000E1F7269530E0822B932B9093A0008093BD
:102F30009F0080E008950E94EA16882311F081E046
:102F400008951092D2021092D10290918600892F9A
:102F50008F7080638093D00292959F70906390935E
:102F6000CF0280E38093CE0282E38093CD023FE2E2
:102F70003093CC0280918500282F2F7020632093FE
:102F8000CB0290E08071907044E0959587954A95CA
:102F9000E1F780638093CA023093C9028091840074
:102FA000282F2F7020632093C80290E080739070C8
:102FB00024E0959587952A95E1F780638093C70271
:102FC00080E008950E949B17882311F081E0089506
:102FD0008DE00E943A148AE00E943A1481E796E05C
:102FE0000E943E1487EC92E00E9448140E94F5145F
:102FF00080E008950E94EA16882311F081E0089588
:103000000E94EA161092C40280918000282F2F702F
:1030100020632093C30290E08077907074E09595D0
:1030200087957A95E1F780638093C2023AE3309303
:10303000C10280918100282F2F7020632093C0024D
:1030400090E08077907064E0959587956A95E1F7B8
:1030500080638093BF023093BE0280918200282F4C
:103060002F7020632093BD0290E08073907054E035
:10307000959587955A95E1F780638093BC0280E02F
:1030800008950E94FA17882311F081E008958DE0D9
:103090000E943A148AE00E943A1487E796E00E9460
:1030A0003E148CEB92E00E94481480E0089516BE16
:1030B00082E180B911B8089584EA86BF06B607FE9A
:1030C000FDCF81B190E0887F883009F091E0892FB1
:1030D000089584EA86BF06B607FEFDCF81B190E071
:1030E000887F803109F091E0892F089580FD02C02A
:1030F00028E101C020E483B984E886BF06B607FE54
:10310000FDCF81B140E090E0887F907030E0821781
:10311000930709F041E0842F089583B984E886BFBE
:1031200006B607FEFDCF81B190E0887F883209F0B6
:1031300091E0892F089584EC86BF06B607FEFDCF87
:1031400081B1887F803511F08EE7089583B10895AD
:1031500084E886BF06B607FEFDCF81B1887F88353B
:1031600011F08EE7089583B1089584E986BF08952C
:10317000629FD001739FF001829FE00DF11D649F5B
:10318000E00DF11D929FF00D839FF00D749FF00DE7
:10319000659FF00D9927729FB00DE11DF91F639F88
:1031A000B00DE11DF91FBD01CF0111240895A1E269
:1031B0001A2EAA1BBB1BFD010DC0AA1FBB1FEE1FB1
:1031C000FF1FA217B307E407F50720F0A21BB30BFC
:1031D000E40BF50B661F771F881F991F1A9469F778
:1031E00060957095809590959B01AC01BD01CF01D4
:0631F0000895F894FFCFE2
:1031F600202020202020202020202020202042794E
:1032060074657300307820202020202020200000C4
:00000001FF
