:040000004DEF2AF0A6
:1050D10001100E946EC00E956E200E936E12006834
:1050E100656C6C6F20776F726C64000000000001CA
:1050F10006D8A002060128D8B40228D8B41200F7B5
:10510100D7016E0150D8B402D0010E02D00001FFC8
:105111005112000A6E000E036E0A40E842C00B09EC
:10512100243F0FA1EC29F01200828C000E026E06C2
:105131000E016E000E046E010E036EF7EC2AF012E2
:1051410000010E0326000E0422052206220106D8C4
:10515100A0020602500110D8B41200F2D7838A01CE
:105161000E026EF40E016E78EC28F0839A010E02A5
:105171006EF40E016E78EC28F012000106000E02AA
:105181005A035A045A0128D8B40228D8B40328D89B
:10519100B40428D8B41200F1D702C008F001C00746
:1051A100F008D007C0D9FF08C0DAFF03C0DFFF074E
:1051B1004A082A0506D8A006060528D8B40628D824
:1051C100B41200EFD70DD0010E036E09C0F6FF0A2D
:1051D100C0F7FFF86A0800F550A1EC29F0094A0A66
:1051E1002A09C0F6FF0AC0F7FFF86A0800F5500067
:1051F10009D8B41200E8D7829C000E026E0E0E018F
:105201006E000E046E010E036EF7EC2AF053EC29CA
:10521100F008500710D8B404D0000E0D6E010E0531
:10522100D095EC28F0000E0D6E000E0C6E12005C95
:10523100C04FF05BC04EF065EC34F05D6E5D661101
:10524100D05CC003F05BC002F0C2EC2BF05D6E5D80
:105251006608D05BC0D9FF5CC0DAFF000EDE6E00CD
:105261000EDD6E5D501200000E036E010EA1EC29E1
:10527100F0000E036E020EA1EC29F0000E036E0683
:105281000EA1EC29F0000E036E0C0EA1EC29F0002A
:105291000E036E280EA1EC29F0000E036E800EA104
:1052A100EC29F01200130E0A6E880E096E16D0005A
:1052B1000E026E0B0E016E000E046E010E036EF7F0
:1052C100EC2AF00B28D8B40DD0000E026E640E014A
:1052D1006EA1EC28F00906D8A00A060A500910D8D8
:1052E100A4E6D70A500910000ED8A4010E076E08D3
:1052F1006A120002D0014A022A01C0F6FF02C0F779
:10530100FFF86A0800F5500009D8B410D001C0F6C2
:10531100FF02C0F7FFF86A0800F550056E066A043F
:1053210050061802E103500518D8A4E4D701C0F6CD
:10533100FF02C0F7FFF86A0800F550016E026A1219
:1053410000086E036608D083CF04F0EF0E04160444
:1053510050066E076A08D0100E83CF04F0056A0468
:1053610010066E0550076E06C083FF08C004F004E6
:105371003A0F0E04168350F00B0410836EAFEC2825
:10538100F008C004F00F0E04168350F00B041083D4
:105391006EAFEC28F0120020EE1AF00150D926026F
:1053A10050DA2203C0DFFF20EE1BF00150D92602A4
:1053B10050DA2204C007F007C008F0096A0850DF7C
:1053C1006E20EE14F00150D9260250DA2205C0DF1A
:1053D100FF20EE15F00150D9260250DA2206C0074F
:1053E100F007C008F0096A0850DF6E1200000E09CC
:1053F1006E000E0A6E000E0B6E000E0C6E01A00800
:10540100D00550092606500A2207500B2208500CDD
:1054110022D8900536063607360836D8900432036E
:1054210032023201320450011002100310D8A4E6F6
:10543100D709C001F00AC002F00BC003F00CC00490
:10544100F0120002C008F001C007F004C00AF00326
:10545100C009F019D009C0F6FF0AC0F7FFF86A07C2
:10546100C0D9FF08C0DAFF0F0EF76403D00800F5BA
:105471005005D0F6CFE9FFF7CFEAFFEF50DF6E0915
:105481004A0A2A074A082A0506D8A006060528D886
:10549100B40628D8B41200DED70BEE4EF014EE326B
:1054A100F0EE6AE550E150FCE1E250FAE101EE482C
:1054B100F0460EEE6AE806FDE100EEF8F0070EEEAA
:1054C1006AE806FDE1E00EF66E500EF76E000EF88A
:1054D1006E01EE8EF010EE10F00900F5CFEEFFE553
:1054E10050E150FAE1D10EF66E500EF76E000EF853
:1054F1006E0900F5CFFFF00001BCEF37F002C00BE1
:10550100F001C00AF004C00DF003C00CF0000E0F52
:105511006E000E0E6E0506D8A006060528D8B40644
:1055210028D8B41FD00CC0D9FF0DC0DAFF0C4A0D2A
:105531002ADF50076E086A071E081E074A082A0A52
:10554100C0D9FF0BC0DAFF0A4A0B2ADF50096E09E6
:105551005007240E6E000E08200F6E0F500E10D84B
:10556100B4D9D70EC001F00FC002F01200030E0C27
:105571006EE80E0B6E16D0000E026E0D0E016E005F
:105581000E046E010E036EF7EC2AF00D28D8A40D5F
:10559100D0000E026E640E016EA1EC28F00B06D84D
:1055A100A00C060C500B10D8A4E6D70D50FE0AD85B
:1055B100B404D0000E086E000E17D008C002F00728
:1055C100C001F009C003F00AC004F0F7EC2AF000B2
:1055D1000E026E0D0E016E000E046E020E036EF7CA
:1055E100EC2AF0000E086E010E076E1200828A008E
:1055F1000E056E82B8052A82868296D8900536827B
:10560100B8052A82868296D890053682B8052A8204
:10561100868296D890053682B8052A82868296D8E7
:1056210090053682B8052A82868296D89005368200
:10563100B8052A82868296D890053682B8052A82D4
:10564100868296D890053682B8052A82868296018E
:10565100C0D9FF02C0DAFF05C0DFFF014A022A03F9
:1056610006D8A0040604500310D8B41200C0D70015
:105671000E096E000E0A6E000E0B6E000E0C6E0807
:1056810050051006100710D8B42AD0010E0D6E0671
:10569100D0D89005360636073608360D2A08AEF8FA
:1056A100D7D89009360A360B360C360550015C0600
:1056B1005002580750035808500458D8A009D00583
:1056C10050015E0650025A0750035A0850045A0905
:1056D10080D89008320732063205320D2EE1D70903
:1056E100C001F00AC002F00BC003F00CC004F012BC
:1056F1000053EC29F008500710D8B43AD00FC0116C
:10570100F0200E036E000E026E110E016E000E05EA
:105711006E010E046E0FEC2CF00F50FD0AD8B42C64
:10572100D00EC003F00DC002F00CC001F0020E0556
:105731006E000E046E0FEC2CF0000E026E110E01C5
:105741006E000E046E020E036EF7EC2AF0000E02DC
:105751006E110E016E000E046E010E036EF7EC2A3F
:10576100F011C010F01F0E10161050050AD8B40425
:10577100D0000E0D6E000E03D0000E0D6E010E0C4A
:105781006E120003C007F002C006F007500610D8E1
:10579100B441D006C0D9FF07C0DAFFDE50DD10D812
:1057A100B439D006C0D9FF07C0DAFFDECF04F0DD7F
:1057B100CF05F004C0D9FF05C0DAFFDF50D8B42A05
:1057C100D020EE02F00650D9260750DA2206C0E1B9
:1057D100FF07C0E2FF00EE06F0E650E926E550EAD9
:1057E10022EE52DE52DD50ED18DFCFE8FFD8B4EFE4
:1057F10018D8A410D006C0D9FF07C0DAFF10EE01F7
:10580100F0DE50E126DD50E222E75081EC28F00481
:105811006E04A002D0090E01D0000E120001C0F6E4
:10582100FF02C0F7FF03C0F8FFF8BA03D00800F584
:105831005005D0F6CFE9FFF7CFEAFFEF50066E0132
:105841000E0126000E0222000E032206AE02D082B5
:105851008A01D0829A8286829606AC02D0828A011F
:10586100D0829A8286829606AA02D0828A01D0824A
:105871009A8286829606A802D0828A01D0829A8272
:1058810086829606A602D0828A01D0829A82868278
:105891009606A402D0828A01D0829A8286829606D6
:1058A100A202D0828A01D0829A8286829606A002C2
:1058B100D0828A01D0829A828682960406D8A00577
:1058C1000605500410D8B41200A9D7000E456E2069
:1058D100EE2EF03B50D9263C50DA22DECF41F0DEED
:1058E100CF42F0DECF43F0DECF44F0405044180801
:1058F100E13F50431805E13E50421802E13D50415D
:1059010018D8B43BD03CC027F03BC026F08FEC3117
:10591100F0456E456632D0320E3B241C6E000E3CC3
:10592100201D6E3DC01EF03EC01FF03FC020F04064
:10593100C021F0000E236E010E226E20EE01F03B1D
:1059410050D9263C50DA22DF501CEC2DF00009D84A
:10595100B406D03D683E683F684068010E456E2040
:10596100EE2EF03B50D9263C50DA223DC0DEFF3E00
:10597100C0DEFF3FC0DEFF40C0DEFF455012001B0E
:105981006E1BAE06D01B9E010E1A6402D01A505235
:10599100D01B500C0AD8B40AD095EC28F0FCEC28A6
:1059A100F00D500C10D8A402D0FF0E44D01B504073
:1059B10009136E12C014F011C015F010C016F00FCB
:1059C100C017F0010E1A6E1B6602D0950E1A6E1BDF
:1059D10050080AD8A402D0870E1A6E1AC018F020F7
:1059E1000E036E000E026E130E016E000E056E06A2
:1059F1000E046E0FEC2CF01B500C0AD8A40AD00038
:105A01000E026E190E016E000E046E010E036EF78A
:105A1100EC2AF00A0E1A6E000E026E190E016E00CB
:105A21000E046E010E036EF7EC2AF019AE02D01AC5
:105A31002EF2D719501200256E255081EC28F02442
:105A41006E24A002D0030E58D00001F8B708D00987
:105A51000ED8901E361F3620362136E82EF9D70291
:105A61000E225C000E2358D8B004D0000E276E1110
:105A71000E03D0000E276E120E266E26C028F01ED1
:105A8100C00FF01FC010F020C011F021C012F0288B
:105A910050C0EC2CF00009D8A426D01DC008F01C81
:105AA100C007F0020E0A6E000E096EB7EC2AF0086C
:105AB100500710D8B409D0020E1D262206D8A02303
:105AC1000623502210D8A4E9D72850120AD8A40BD3
:105AD100D0000E0F6E000E106E000E116E000E1231
:105AE1006E0C0EC0EC2CF095EC28F023502210D84F
:105AF100B402D0010E01D0000E1200020E0F5E00A2
:105B01000E105A115A125A20EE16F00D50D9260EC7
:105B110050DA22FE0EDE24136EFF0EDE20146EFF1D
:105B21000EDE20156EFF0EDE20166E13500F5C1474
:105B31005010581550115816501258D8A008D000BE
:105B41000E0D6E000E0E6E000E0F6E000E38D02080
:105B5100EE2AF00D50D9260E50DA22DECF13F0DEF8
:105B6100CF14F0DECF15F0DECF16F020EE02F00DEF
:105B710050D9260E50DA22DF50176E1750016E02EF
:105B81006A036A046A0FC005F010C006F011C0076D
:105B9100F012C008F0F7EC29F001C018F002C019AA
:105BA100F003C01AF004C01BF0135018240D6E143A
:105BB1005019200E6E15501A200F6E16501B201012
:105BC1006E12001A0E0324056E000E0420066E01EB
:105BD1000E0524D96E000E0620DA6EDF50076E071F
:105BE10050096E086A1A0E03240A6E000E04200B77
:105BF1006E0AC0D9FF0BC0DAFFDF500C6E0C5008E3
:105C010012000E091208C011F009C012F0136A1433
:105C11006A030E01C0D9FF02C0DAFFDF6232D0147D
:105C21000E0324056E000E0420066E010E0524D914
:105C31006E000E0620DA6EDF50076E0750096E08FF
:105C41006A140E03240A6E000E04200B6E0AC0D9DA
:105C5100FF0BC0DAFFDF500C6E0C5008100D6E09FF
:105C6100500E6E0F6A106A0EC010F00DC00FF00ECC
:105C71006A0D6A0D5011120E5012120F50131210AC
:105C810050141211C001F012C002F013C003F0143D
:105C9100C004F012000001ACC0A5F00001ABC0A42B
:105CA100F0000E0001A76F010E0001A66FF6EC30A7
:105CB100F07F6E7F6661D0ABC0D9FFACC0DAFFDE8A
:105CC100CF3BF0DDCF3CF0000120EE0EF00001AB48
:105CD10051D9260001AC51DA22DECF3DF0DECF3EB4
:105CE100F0DECF3FF0DECF40F066EC2CF07F6E7F30
:105CF1006643D0000120EE12F00001AB51D926001D
:105D010001AC51DA22DECF01F0DDCF02F0000E044A
:105D11006E000E036E000E066E200E056ECDEC2891
:105D2100F0000120EE12F00001AB51D9260001ACC8
:105D310051DA22DECF01F0DDCF02F0000120EE14B6
:105D4100F00001AB51D9260001AC51DA22DECF03BC
:105D5100F0DDCF04F0000E066E0B0E056E22EC2A6C
:105D6100F0ABC0D9FFACC0DAFF10EE04F0DE50E1B9
:105D710026DD50E222010EE76E7F5012007EC073D5
:105D8100F07DC072F0000E756E000E746EE3EC3B98
:105D9100F00001A76F0001A751D8A473D07DC0D92D
:105DA100FF7EC0DAFFDECF3BF0DDCF3CF020EE0E10
:105DB100F07D50D9267E50DA22DECF3DF0DECF3E97
:105DC100F0DECF3FF0DECF40F066EC2CF00001A713
:105DD1006F0001A751D8A455D020EE12F07D50D903
:105DE100267E50DA220001DECFA5F00001DDCFA62C
:105DF100F0A5C0D9FFA6C0DAFFDF500001A46F00F3
:105E010001A46704D0040E0001A76F3BD00001205C
:105E1100EE0BF00001A551D9260001A651DA22DFCF
:105E2100507F6E7FB61AD00001A6C002F00001A516
:105E3100C001F020EE14F07D50D9267E50DA22DE2A
:105E4100CF03F0DDCF04F0000E066E0B0E056E7F62
:105E5100EC2AF002500110D8B414D000017EC09297
:105E6100F000017DC091F0000E0001946F000E0062
:105E710001936F7AEC47F00001A76F0001A751D899
:105E8100B48DD70001A7511200256E255081EC2851
:105E9100F0246E24A002D0030E82D00001F8B708CE
:105EA100D0090ED8901E361F3620362136E82EF93D
:105EB100D722042310D8A422D01EC00FF01FC01077
:105EC100F020C011F021C012F0180EC0EC2CF0002F
:105ED10009D8A45CD00E6A0F0E1D640E8A1DC00D78
:105EE100F01CC00CF0FE0E0F6E79EC2BF00D500C77
:105EF10010D8B44CD0000E236E000E47D0F8C02449
:105F0100F0060E2416D8B409D022C00FF023C01019
:105F1100F0116A126A970EC0EC2CF01EC00FF01F30
:105F2100C010F020C011F021C012F0190EC0EC2CED
:105F3100F00009D8A42BD00E6A0F0E1D640E8A1D25
:105F4100C00DF01CC00CF0FC0E0F6E79EC2BF00DA7
:105F5100500C10D8B409D0020E1D262206D8A02359
:105F61000623502210D8A4E7D7000E0E6E000E0DA6
:105F71006E000E0C6EFD0E0F6E79EC2BF00D500CB9
:105F810010D8A404D0000E236E010E226E95EC28C9
:105F9100F023502210D8B402D0010E01D0000E120D
:105FA1000020EE20F00E50D9260F50DA22DECF1459
:105FB100F0DDCF15F0040E14241D6E000E15201E09
:105FC1006E10C014F011C015F012C016F013C017F6
:105FD100F00A0E05D0D8901732163215321432E875
:105FE1002EF9D714C001F015C002F016C003F01746
:105FF100C004F00EC0D9FF0FC0DAFF10EE02F0DED0
:1060010050E126DD50E222E750186E1850056E0669
:106011006A076A086A38EC2BF001C019F002C01A4D
:10602100F003C01BF004C01CF01DC0D9FF1EC0DA74
:10603100FFDECF1FF0DECF20F0DECF21F0DECF225A
:10604100F0040E1D26000E1E2222501F10201021CA
:1060510010D8A408D0000E0E6E000E0F6E000E10A8
:106061006E000E2ED01F50195C20501A5821501B63
:106071005822501C58D8A00DD01F50195E20501A1C
:106081005A21501B5A22501C5A040E1D26000E1E66
:1060910022CBD71DC0D9FF1EC0DAFFDECF14F0DE40
:1060A100CF15F0DECF16F0DECF17F0195014240E05
:1060B1006E1A5015200F6E1B501620106E1C5017B3
:1060C10020116E120072C07CF071C07BF00101786A
:1060D100C05AF1010177C059F1000E0101606F79D9
:1060E1000E01015F6F000E01015C6F760E01015B15
:1060F1006F01017CC05EF101017BC05DF1010E0108
:1061010001696F000E026E7B0E016E54EC32F001DC
:10611100C079F002C07AF079C06AF17A50800AF34E
:106121006E800EF35C000ED8B4795CD8B002D00B4F
:106131000E5BD0480E746E010E756ED8907934D90D
:106141006E7A34DA6E7450D9267550DA22DECF7742
:10615100F0DDCF78F078507710D8B409D0010E0176
:10616100016B6F77C0D9FF78C0DAFF000EDF6E7068
:10617100506F10D8B409D0020E01016B6F6FC0D9F6
:10618100FF70C0DAFF000EDF6E480E746E010E75EF
:106191006ED8907934D96E7A34DA6E7450D9267506
:1061A10050DA226FC0DEFF70C0DDFF70506F10D873
:1061B100B403D07304D8B402D0000E16D0050E017A
:1061C100016B6F000E6B6E6F0E6A6E000E6D6E715D
:1061D1000E6C6E000E6E6E32EC53F0766E76C06908
:1061E100F1060E01016B6F765012000001A5C0731C
:1061F100F00001A4C072F0000E756E000E746EE323
:10620100EC3BF00001AA6F0001AA677DD0000E00EF
:1062110001A96F000E0001A86FA4C0D9FFA5C0DAC3
:10622100FFDECF3BF0DDCF3CF0000120EE0EF000B1
:1062310001A451D9260001A551DA22DECF3DF0DEBD
:10624100CF3EF0DECF3FF0DECF40F066EC2CF00029
:1062510001AA6F0001AA51D8A456D0000120EE1264
:10626100F00001A451D9260001A551DA22DECF7D2B
:10627100F0DDCF7EF07DC0D9FF7EC0DAFFDF50E5D3
:106281000AD8B414D0000120EE12F00001A451D9B3
:10629100260001A551DA22DECF7DF0DDCF7EF07D33
:1062A100C0D9FF7EC0DAFFDF50D8A413D00001208F
:1062B100EEA8F0DE2A000EDD220001DE520001A769
:1062C10051DD180001A6C0E8FFD8B4DF18D8B41B0F
:1062D100D006D0000E0001A96F000E0001A86F00CA
:1062E10001A5C092F00001A4C091F0000E0001943C
:1062F1006F010E0001936F7AEC47F00001AA6F0065
:1063010001AA51D8B489D70001AA51040AD8A4031B
:10631100D0070E0001AA6F0001AA511200000E342D
:106321006E20EE04F02650D9262750DA22DF50D80D
:10633100B4B8D020EE2EF02650D9262750DA22DE2E
:10634100CF37F0DECF38F0DECF39F0DECF3AF032A2
:106351000E2624286E000E2720296E28C01CF02945
:10636100C01DF037C01EF038C01FF039C020F03A10
:10637100C021F0000E236E010E226E20EE01F026E8
:1063810050D9262750DA22DF5045EC2FF00009D8EA
:10639100B403D0010E346E85D020EE04F02650D91E
:1063A100262750DA22000EDF6E20EE1AF02650D991
:1063B100262750DA22DECF28F0DECF29F0DECF2AE1
:1063C100F0DECF2BF020EE22F02650D9262750DA2E
:1063D10022DECF2CF0DECF2DF0DECF2EF0DECF2F60
:1063E100F02C1E2D1E2E1E2F1E2C2A000E2D222EAD
:1063F100222F2237502C24306E38502D20316E3907
:10640100502E20326E3A502F20336E2850305C29A6
:106411005031582A5032582B503358D8B042D020DE
:10642100EE03F02650D9262750DA22DF50286E28B5
:1064310050356E366A020E355C000E3658D8A031E2
:10644100D020EE1AF02650D9262750DA22DE503716
:1064510026DE503822DE503922DD503A22320E2615
:1064610024286E000E2720296E28C01CF029C01D8B
:10647100F037C01EF038C01FF039C020F03AC021FB
:10648100F0000E236E010E226E20EE01F02650D98F
:10649100262750DA22DF5045EC2FF03506D8A036FA
:1064A10006C9D734501200000E0001FE6FFEC0FD78
:1064B100F0FDC0FCF009680A68010E0101526F038A
:1064C1000E0001FD6F01C0D9FF02C0DAFFDE50DD11
:1064D10010D8B4E9D0040E0001FD6F010E01015383
:1064E1006F01C0D9FF02C0DAFFDECF11F0DDCF129C
:1064F100F002D0114A122A000E086E210E076E1109
:10650100C0F6FF12C0F7FFF86A0800F550036E04E9
:106511006A0750035C08500458D8A00AD011C0F68D
:10652100FF12C0F7FFF86A0800F5503A0AD8A4E153
:10653100D711C0F6FF12C0F7FFF86A0800F5503A0C
:106541000AD8A4AAD00C0E0001FC6F01C0D9FF0229
:10655100C0DAFFDECF0DF0DDCF0EF00DC0F6FF0E7D
:10656100C0F7FFF86A0800F5CF03F0D00E03240F3F
:106571006E106AFF0E10220D4A0E2A0A0E0F5C00E1
:106581000E1058D8B017D012500E1802E111500D4C
:1065910018D8A410D00B0E0001FE6F050E0F5C0081
:1065A1000E1058D8B075D00FC009F010C00AF01104
:1065B1004A122A66D00C0E0001FE6F000E106E000A
:1065C1000E0F6E114A122A0FC003F010C004F0D84A
:1065D1009003360436FF0E0324F66EBE0E0420F738
:1065E1006EF86A000EF8220900F5CF05F00A00F5F1
:1065F100CF06F001C0D9FF02C0DAFFDECF0DF0DD1A
:10660100CF0EF005C0F6FF06C0F7FFF86A0800F5E7
:10661100CF0BF0054A062A0DC0F6FF0EC0F7FFF8B2
:106621006A0800F5CF0CF00D4A0E2A600E0C6406C4
:10663100D07B0E0C5CD8B002D0200E0C5E0B50D873
:10664100B404D00B500C18D8B4DCD70B6607D012A9
:10665100500E1802E111500D18D8B408D00F4A108D
:106661002A050E0F5C000E1058D8A0ADD7050E0FED
:106671005C000E1058D8B00CD00FC009F010C00A41
:10668100F001C0D9FF02C0DAFF11C0DEFF12C0DD88
:10669100FF010E0101546F07D00F0E0001FC6F00C6
:1066A10001F9C009F00A6A09C001F00AC002F0123A
:1066B100003C6E3C5081EC28F01F6E1FA002D003FD
:1066C1000E02D1010E426EF1D0FCEC28F00D500CFF
:1066D10010D8B4F6D0E5D0000E0F6E000E106E008B
:1066E1000E116E000E126E090EC0EC2CF00009D8CE
:1066F100A4E7D0000E086E2C0E076E000E0A6E1075
:106701000E096EB7EC2AF008500710D8B4D9D02C76
:10671100C01FF0060E206ED8901F32202EFCD71F0E
:1067210050010AD8A44ED033C01FF03F0E1F161FD0
:10673100C020F0216A226A236A21C023F020C022EE
:10674100F0216A206A3450256E246A3550266E275E
:106751006A245026262550272226502024286E27D9
:10676100502120296E000E22202A6E000E23202B9C
:106771006E010E28243E6E000E29203F6E000E2A67
:1067810020406E000E2B20416E3EC01FF03FC02006
:10679100F040C021F041C022F00A0ED8901F3620EF
:1067A1003621362236E82EF9D71DC0D9FF1EC0DAB0
:1067B100FF1FC0DEFF20C0DEFF21C0DEFF22C0DDE3
:1067C100FF5ED035C01FF0030E1F16D8901F342076
:1067D1006E216A36AE01D0212A010E211631500FE9
:1067E1000B21242024020F3D6E3250030B1F6E201B
:1067F1006A0A0ED8901F362036E82EFBD733502177
:106801006E226AD89021362236D89021362236342B
:1068110044E846030B236E246A2150232622502488
:10682100221F50232620502422010E2326000E244D
:106831002223C03EF024C03FF0406A416A3DC01FA0
:10684100F0F70E1F263EC020F03FC021F040C022CD
:10685100F041C023F01F2A05D0D8902036213622DE
:106861003623361F2EF9D71DC0D9FF1EC0DAFF20EF
:10687100C0DEFF21C0DEFF22C0DEFF23C0DDFFD965
:1068810006D9060ED01DC0D9FF1EC0DAFF800EDE6C
:106891006E000EDE6E000EDE6E000EDD6EDD52DD70
:1068A10052000E01D0040E426E0BD01C50000AD8CB
:1068B100B40BD7010AD8B40FD7020AD8B4E3D7F280
:1068C100D795EC28F0425012004FC003F04EC002A1
:1068D100F0C2EC2BF0546E546608D120EE04F04E59
:1068E10050D9264F50DA22DF50506E50AAFED04EBA
:1068F100C0D9FF4FC0DAFFDECF3BF0DDCF3CF02047
:10690100EE1AF04E50D9264F50DA22DECF3DF0DE9E
:10691100CF3EF0DECF3FF0DECF40F066EC2CF054FE
:106921006E5466E3D020EE1EF04E50D9264F50DA59
:1069310022DECF59F0DDCF5AF020EE0BF05950D9BD
:10694100265A50DA22000EDB8A20EE0AF04E50D988
:10695100264F50DA2210EE1CF05950E1265A50E22F
:1069610022DFCFE7FF20EE1DF05950D9265A50DA29
:106971002210EE0AF04E50E1264F50E222E6CF50AF
:10698100F0E5CF51F051C050F0516A5050DF6E2008
:10699100EE1EF05950D9265A50DA2210EE0AF04E66
:1069A10050E1264F50E222E6CF50F0E6CF51F0E61B
:1069B100CF52F0E6CF53F0110E05D0D8905332529A
:1069C1003251325032E82EF9D75050DF6E20EE1F8F
:1069D100F05950D9265A50DA2210EE0AF04E50E101
:1069E100264F50E222E6CF50F0E6CF51F0E6CF52EB
:1069F100F0E6CF53F0190E05D0D8905332523251F0
:106A0100325032E82EF9D75050DF6E5AC002F05999
:106A1100C001F020EE0EF04E50D9264F50DA22DEA2
:106A2100CF03F0DECF04F0DECF05F0DECF06F0CCF1
:106A3100EC29F0000E556E000E566EFE0E576E4894
:106A41000E586E20EE16F05950D9265A50DA2255BA
:106A5100C0DFFF20EE17F05950D9265A50DA2256DE
:106A6100C050F050C051F0526A5150DF6E20EE1804
:106A7100F05950D9265A50DA2257C0DFFF20EE19BB
:106A8100F05950D9265A50DA2258C0DFFF20EE12B1
:106A9100F05950D9265A50DA22000EDF6E20EE133B
:106AA100F05950D9265A50DA22000EDF6E20EE043A
:106AB100F04E50D9264F50DA22DF0EDF164EC0D9E4
:106AC100FF4FC0DAFF10EE04F0DE50E126DD50E2A8
:106AD10022010EE76E4EC0D9FF4FC0DAFFDECF4371
:106AE100F0DDCF44F081EC3DF0546E545012001DA6
:106AF1006E0A0E0001FA6F1D50D8B402D0030E15B4
:106B0100D1320E0001FA6F270E026E100E016EA136
:106B1100EC28F0330E0001FA6F949C828C949E82D3
:106B210096949A94880B0E0001FA6F0A0E246E0B4C
:106B3100D0000E026E200E016E000E046E010E03D7
:106B41006EF7EC2AF024062466F3D7000E276E00B8
:106B51000E0F6E000E106E000E116E000E126E0002
:106B61000EC0EC2CF01C6E1C04D8A4CED00C0E0070
:106B710001FA6FFAC0FBF0AA0E0F6E010E106E0043
:106B81000E116E000E126E080EC0EC2CF01C6E1C65
:106B910004D8A467D00D0E0001FA6F000E026E201A
:106BA1000E016E000E046E040E036EF7EC2AF02245
:106BB10004D8A4AAD02350AA0AD8A4A6D00E0E00A5
:106BC10001FA6F030E296EE80E286E1BD0000E0F1E
:106BD1006E000E106E000E116E400E126EA90EC0E8
:106BE100EC2CF00009D8A404D0100E0001FA6F0DAE
:106BF100D0030E026EE80E016EA1EC28F02806D833
:106C0100A0290629502810D8A4E1D729502810D846
:106C1100B47BD0000E0F6E000E106E000E116E00D0
:106C21000E126E3A0EC0EC2CF00009D8A46DD00003
:106C31000E026E200E016E000E046E040E036EF73E
:106C4100EC2AF0110E0001FA6F20BC04D0000E1FD7
:106C51006E040E03D0000E1F6E0C0E1E6E1EC0279A
:106C6100F053D0000E0F6E000E106E000E116E006C
:106C71000E126EA90EC0EC2CF01C6E020E1C5CD81C
:106C8100B007D0120E0001FA6F020E276EA90E0393
:106C9100D0010E276E010E256E030E296EE80E2817
:106CA1006E1BD0000E0F6E000E106E000E116E00E6
:106CB1000E126E2550C0EC2CF00009D8A404D0139C
:106CC1000E0001FA6F0DD0030E026EE80E016EA1E7
:106CD100EC28F02806D8A0290629502810D8A4E1CC
:106CE100D729502810D8B40ED0000E0F6E020E1006
:106CF1006E000E116E000E126E100EC0EC2CF00024
:106D010009D8B402D0000E276E0F0E0001FA6F27CA
:106D1100C0F8F02750D8A402D0010E01D0000E26F1
:106D21006E26C0FFF095EC28F0265012000001AA53
:106D3100C0F6FF0001ABC0F7FFF86A0800F5502F5D
:106D41000AD8B40CD00001AAC0F6FF0001ABC0F70D
:106D5100FFF86A0800F5505C0AD8A411D00001AA16
:106D61004BAB2B000120EE06F00001A851D9260003
:106D710001A951DA22DE6ADE6ADE6ADD6A1DD0A867
:106D8100C0D9FFA9C0DAFF10EE12F0DE50E126DD16
:106D910050E222000120EE06F00001A851D92600A0
:106DA10001A951DA22E6CFDEFFE6CFDEFFE6CFDE34
:106DB100FFE5CFDDFFDD52DD52200E0001AAC0F656
:106DC100FF0001ABC0F7FFF86A0800F5CFACF00097
:106DD10001AC5DD8B01CD00001A9C073F00001A8BE
:106DE100C072F0000E756E000E746EE3EC3BF000A5
:106DF10001B36F000120EE12F00001A851D9260065
:106E010001A951DA22000EDE6E000EDD6EB1D00056
:106E110001A9C00AF00001A8C009F00001000E0C90
:106E21006E0001AA0E0B6E29EC3FF00001B36F005A
:106E310001B351D8A49DD00001A9C07EF00001A8E2
:106E4100C07DF0BFEC2EF00001B36F000120EE1405
:106E5100F00001A851D9260001A951DA2210EE0B48
:106E6100F0DE50E126DD50E222E7500001B26F0072
:106E710001B351D8B42ED00001B351040AD8A4787B
:106E8100D00001B2AB1FD0000120EE06F00001A836
:106E910051D9260001A951DA22DE6ADE6ADE6ADDF5
:106EA1006A000120EE12F00001A851D9260001A9C3
:106EB10051DA22000EDE6E000EDD6E0001B2A5A7D2
:106EC100D7000E04D00001B2B553D024D00001B3D5
:106ED1006F4FD00001B2B54CD0000120EE12F0008E
:106EE10001A851D9260001A951DA220001DECFB053
:106EF100F00001DDCFB1F0000120EE0BF00001B098
:106F010051D9260001B151DA22DF500001AC6F00E6
:106F110001ACB902D0050EDAD7A8C0D9FFA9C0DAF1
:106F2100FFDECF01F0DDCF02F00001B1C004F000BF
:106F310001B0C003F0E2EC2DF001C0ACF002C0AD35
:106F4100F003C0AEF004C0AFF0000120EE06F00087
:106F510001A851D9260001A951DA22ACC0DEFFAD4A
:106F6100C0DEFFAEC0DEFFAFC0DDFFD906D9064FE0
:106F7100D70001B351120021EE8EF011EE30F01066
:106F81000EDECFE6FFE82EFCD7010E0101446F00B3
:106F91000E0101416F000E0101406F000E0101431E
:106FA1006F200E0101426F69EC28F034EC29F0BF2B
:106FB1000E0A6E370E096EE3EC28F0A00E016E8604
:106FC1000E026E010E036E000E046EBEEC28F0A0E0
:106FD1000E016E860E026E010E036E000E046EBE71
:106FE100EC28F0BF0E0A6E480E096EE3EC28F0A003
:106FF1000E016E860E026E010E036E000E046EBE51
:10700100EC28F0A00E016E860E026E010E036E00DA
:107011000E046EBEEC28F00D0E706E4E0E6F6EBF3C
:107021000E726EC50E716E010E736E63EC30F0015F
:1070310001476F01014751D8B426D0010E096E01F5
:107041000E8AEC28F0BF0E0A6E890E096EE3EC2859
:10705100F0010E036E01014751300FA1EC29F0A0A0
:107061000E016E860E026E010E036E000E046EBEE0
:10707100EC28F0A00E016E860E026E010E036E006A
:107081000E046EBEEC28F00101010E0001D56F0166
:10709100016C0E0001D46FBF0E0001D76FD20E003C
:1070A10001D66F0A0E0001D86F1FEC4AF0010147AB
:1070B1006F01014751D8B426D0010E096E010E8A25
:1070C100EC28F0BF0E0A6E690E096EE3EC28F001A0
:1070D1000E036E01014751300FA1EC29F0A00E0102
:1070E1006E860E026E010E036E000E046EBEEC285B
:1070F100F0A00E016E860E026E010E036E000E04EC
:107101006EBEEC28F00101010E0001926F01016CCD
:107111000E0001916FBF0E0001946FB80E00019334
:107121006F000E0001966F0D0E0001956F010101B8
:107131000E0001986F0101450E0001976FDEEC4DC5
:10714100F00101476F01014751D8B426D0010E0962
:107151006E010E8AEC28F0BF0E0A6E990E096EE3DD
:10716100EC28F0010E036E01014751300FA1EC290B
:10717100F0A00E016E860E026E010E036E000E046B
:107181006EBEEC28F0A00E016E860E026E010E039B
:107191006E000E046EBEEC28F00101010E5C6E0162
:1071A100016C0E5B6E18EC29F00101476F0101477C
:1071B10051D8B426D0010E096E010E8AEC28F0BF19
:1071C1000E0A6E790E096EE3EC28F0010E036E01D2
:1071D100014751300FA1EC29F0A00E016E860E027D
:1071E1006E010E036E000E046EBEEC28F0A00E01BF
:1071F1006E860E026E010E036E000E046EBEEC284A
:10720100F0FFD7000E0101666F010E0101656F20CD
:10721100EE04F04650D9264750DA22000EDF6E20E8
:10722100EE2EF04650D9264750DA22FF0EDE6EFFD1
:107231000EDE6EFF0EDE6EFF0EDD6EDD52DD52479D
:10724100C03CF046C03BF048C03DF049C03EF04A6A
:10725100C03FF04BC040F066EC2CF00009D8B402FE
:10726100D0030E22D1000E0101666F020E010165ED
:107271006F22EE31F04650D9264750DA22DF504CCA
:107281006E4C504E6E4D6A22EE30F04650D9264774
:1072910050DA22DF504F6E4F504D12000E4E124EFB
:1072A10050AA0A550ED8B44D18D8B402D0020EFC1B
:1072B100D0000E0101666F030E0101656F20EE69BA
:1072C100F04650D9264750DA22DF504C6E4C504ED2
:1072D1006E4D6A20EE6AF04650D9264750DA22DF19
:1072E100504F6E4FC050F0516A526A536A51C053A9
:1072F100F050C052F0516A506A20EE6BF04650D9FE
:10730100264750DA22DF50546E54C055F0566A5762
:107311006A586A55C058F0576A566A556A505055AE
:1073210010596E515056105A6E525057105B6E5391
:107331005058105C6E4D5059105D6E4E505A105E93
:107341006E000E5B105F6E000E5C10606E20EE68CA
:10735100F04650D9264750DA22DF50616E61505D08
:1073610010626E5E50636E5F50646E6050656EFFBA
:107371000E6214666EFF0E6314676EFF0E6414686E
:107381006E000E6514696E6850540A460ED8B466D4
:1073910018410ED8B467186910D8A407D0000E019F
:1073A10001666F1E0E0101656F76D0000E01016648
:1073B1006F040E0101656F20EE85F04650D9264716
:1073C10050DA22DF504C6E4C504E6E4D6A20EE86E4
:1073D100F04650D9264750DA22DF504F6E4FC05049
:1073E100F0516A526A536A51C053F050C052F05181
:1073F1006A506A20EE87F04650D9264750DA22DFDC
:1074010050546E54C055F0566A576A586A55C05860
:10741100F0576A566A556A50505510596E51505678
:10742100105A6E525057105B6E535058105C6E4D8F
:107431005059105D6E4E505A105E6E000E5B105F1B
:107441006E000E5C10606E20EE84F04650D9264727
:1074510050DA22DF50616E61505D10626E5E5063E2
:107461006E5F50646E6050656EFF0E6214666EFF53
:107471000E6314676EFF0E6414686E000E65146966
:107481006E6850540A460ED8B46618410ED8B467D7
:10749100186910D8A402D0000E07D0000E010166B1
:1074A1006F050E0101656F010E120079C089F07A36
:1074B100C08AF07BC08BF07CC08CF079C095F07AEB
:1074C100C096F07BC097F07CC098F0020E795C000A
:1074D1000E7A58000E7B58000E7C58D8A044D0205C
:1074E100EE16F07750D9267850DA22DECF80F0DE22
:1074F100CF81F0DECF82F0DECF83F00001805179C1
:107501005C000181517A58000182517B580001834E
:10751100517C58D8B028D0000E0001996F34D17831
:10752100C047F077C046F079C048F07AC049F07B97
:10753100C04AF07CC04BF0D8EC42F046C09AF0470C
:10754100C09BF048C09CF049C09DF000019D519A3C
:10755100119B119C11D8B433D100019A059B119C48
:10756100119D11D8A402D0020E0BD000019A29D886
:10757100B49B29D8B49C29D8B49D29D8A404D0019E
:107581000E0001996F1CD178C047F077C046F079A1
:10759100C048F07AC049F07BC04AF07CC04BF00093
:1075A1000E4C6E000E4D6E000E4E6E000E4F6EFCB8
:1075B100EC44F00001996F00019951D8A400D12049
:1075C100EE0EF07750D9267850DA22DECF80F0DE49
:1075D100CF81F0DECF82F0DECF83F000018029D8A9
:1075E100B48129D8B48229D8B48329D8B413D0203E
:1075F100EE0EF07750D9267850DA22DE2A000EDE20
:1076010022DE22DD2220EE05F07750D9267850DAED
:1076110022000EDB80010E000195250001806F0024
:107621000E000196210001816F000E0001972100DB
:1076310001826F000E000198210001836F00019DFE
:1076410051000183190EE100019C510001821909C9
:10765100E100019B510001811904E100019A5100EF
:10766100018019D8A409D09AC095F09BC096F09CCE
:10767100C097F09DC098F07FD078C00EF077C00D14
:10768100F089C00FF08AC010F08BC011F08CC012CD
:10769100F07EEC2DF00DC08DF00EC08EF00FC08F7E
:1076A100F010C090F078C00EF077C00DF095C00FCB
:1076B100F096C010F097C011F098C012F07EEC2D3A
:1076C100F00DC080F00EC081F00FC082F010C083B9
:1076D100F020EE02F07750D9267850DA22DF500000
:1076E10001846F00018451000180250001856F0034
:1076F1000E000181210001866F000E000182210030
:1077010001876F000E000183210001886FFF0E00C9
:107711000185250001916FFF0E0001862100019274
:107721006FFF0E000187210001936FFF0E0001889A
:10773100210001946F040E1C6E0001000E1E6E00EC
:10774100018D0E1D6E20EE01F07750D9267850DAAA
:1077510022DF5059EC33F09AC095F09BC096F09C13
:10776100C097F09DC098F095C089F096C08AF097B7
:10777100C08BF098C08CF09AC079F09BC07AF09CD5
:10778100C07BF09DC07CF020EE16F07750D92678B2
:1077910050DA22DECF80F0DECF81F0DECF82F0DE64
:1077A100CF83F000018051795C000181517A58004A
:1077B1000182517B58000183517C58D8A0B0D6007A
:1077C100019951120020EE04F07250D9267350DA5B
:1077D1002274C0DEFF75C0DDFF20EE06F07250D9C5
:1077E100267350DA220001DECF86F00001DECF875A
:1077F100F00001DECF88F00001DECF89F0000186C4
:1078010005871188118911D8B426D172C0D9FF73A7
:10781100C0DAFF10EE16F0DE50E126DD50E222E67E
:10782100CF76F0E6CF77F0E6CF78F0E6CF79F07655
:10783100500001865D77500001875978500001881A
:1078410059795000018959D8B006D1000189518672
:107851001187118811D8A425D0030E72C0D9FF73E6
:10786100C0DAFFDECF76F0DDCF77F076C0D9FF77D3
:10787100C0DAFFDF6216D072C0D9FF73C0DAFF1021
:10788100EE26F0DE50E126DD50E2220001E6CF8651
:10789100F00001E6CF87F00001E6CF88F00001E6B5
:1078A100CF89F000018951861187118811D8A42B45
:1078B100D072C0D9FF73C0DAFF10EE08F0DE50E1DC
:1078C10026DD50E222E6CF76F0E5CF77F0765074F0
:1078D1005C77507558D8B0BFD072C0D9FF73C0DA89
:1078E100FF10EE26F0DE50E126DD50E2220001E637
:1078F100CF82F00001E6CF83F00001E6CF84F000F3
:1079010001E6CF85F08FD072C0D9FF73C0DAFF10C6
:10791100EE02F0DE50E126DD50E222E750766E768F
:1079210050100DF3CF80F0F4CF81F05AD072C0D94E
:10793100FF73C0DAFFDECF46F0DDCF47F086C048E7
:10794100F087C049F088C04AF089C04BF0D8EC42BA
:10795100F046C086F047C087F048C088F049C0892A
:10796100F000018629D8B48729D8B48829D8B489E8
:1079710029D8A402D0010EC3D0020E0001865D00F9
:107981000E00018759000E00018859000E0001897F
:1079910059D8A061D072C0D9FF73C0DAFF10EE16BA
:1079A100F0DE50E126DD50E222E6CF76F0E6CF7739
:1079B100F0E6CF78F0E6CF79F076500001865D777A
:1079C1005000018759785000018859795000018988
:1079D10059D8B041D000018051745E0001815175C8
:1079E1005A00018051745C000181517558D8B09ED4
:1079F100D772C0D9FF73C0DAFFDECF0DF0DDCF0E35
:107A0100F086C00FF087C010F088C011F089C01255
:107A1100F07EEC2DF00DC082F00EC083F00FC0841B
:107A2100F010C085F020EE0AF07250D9267350DABA
:107A310022000186C0DEFF000187C0DEFF00018851
:107A4100C0DEFF000189C0DEFF0001855182118384
:107A5100118411D8A402D0020E52D074C076F075F0
:107A6100C077F0040E786ED89077327632782EFB9C
:107A7100D7765000018225796E7750000183217AF3
:107A81006E000E000184217B6E000E000185217CB9
:107A91006E20EE0EF07250D9267350DA2279C0DED4
:107AA100FF7AC0DEFF7BC0DEFF7CC0DDFFD906D9D7
:107AB100060F0E7414766E000E7514776E050ED8CF
:107AC1009076367736E82EFBD7320E7626000E7783
:107AD1002272C0D9FF73C0DAFFDECF78F0DDCF7933
:107AE100F0765078267750792220EE12F07250D934
:107AF100267350DA2278C0DEFF79C0DDFF000E1256
:107B01000044C027F043C026F08FEC31F04D6E4D9C
:107B1100669DD1030E43C0D9FF44C0DAFFDF628204
:107B2100D120EE05F04350D9264450DA22010EDF70
:107B31006279D1320E4324016E000E4420026E00A0
:107B41000E046E000E036E020E066E000E056ECD63
:107B5100EC28F022EE30F04350D9264450DA225579
:107B61000EDF6E22EE31F04350D9264450DA22AABC
:107B71000EDF6E20EE32F04350D9264450DA225205
:107B81000EDF6E20EE33F04350D9264450DA2252F4
:107B91000EDF6E20EE34F04350D9264450DA2261D4
:107BA1000EDF6E20EE35F04350D9264450DA2241E3
:107BB1000EDF6E22EE16F04350D9264450DA2272BF
:107BC1000EDF6E22EE17F04350D9264450DA2272AE
:107BD1000EDF6E22EE18F04350D9264450DA2241CE
:107BE1000EDF6E22EE19F04350D9264450DA22619D
:107BF1000EDF6E20EE0EF04350D9264450DA2212E9
:107C0100EE1AF04350E1264450E222DFCFE7FF2293
:107C1100EE1BF04350D9264450DA2210EE0EF04309
:107C210050E1264450E222E6CF45F0E5CF46F0464A
:107C3100C045F0466A4550DF6E22EE1CF04350D934
:107C4100264450DA2210EE0EF04350E1264450E271
:107C510022E6CF45F0E6CF46F0E6CF47F0E6CF4843
:107C6100F0110E05D0D8904832473246324532E8FD
:107C71002EF9D74550DF6E22EE1DF04350D9264430
:107C810050DA2210EE0EF04350E1264450E222E693
:107C9100CF45F0E6CF46F0E6CF47F0E6CF48F01902
:107CA1000E05D0D8904832473246324532E82EF997
:107CB100D74550DF6E20EE0AF04350D9264450DA02
:107CC1002212EE1EF04350E1264450E222DFCFE7BC
:107CD100FF22EE1FF04350D9264450DA2210EE0A5B
:107CE100F04350E1264450E222E6CF45F0E5CF468D
:107CF100F046C045F0466A4550DF6E22EE20F04363
:107D010050D9264450DA2210EE0AF04350E12644BD
:107D110050E222E6CF45F0E6CF46F0E6CF47F0E667
:107D2100CF48F0110E05D0D890483247324632453F
:107D310032E82EF9D74550DF6E22EE21F04350D9BB
:107D4100264450DA2210EE0AF04350E1264450E274
:107D510022E6CF45F0E6CF46F0E6CF47F0E6CF4842
:107D6100F0190E05D0D8904832473246324532E8F4
:107D71002EF9D74550DF6E20EE1EF04350D9264430
:107D810050DA22DECF45F0DECF46F0DECF47F0DE1F
:107D9100CF48F0010E4524496E000E46204A6E0080
:107DA1000E47204B6E000E48204C6E20EE2EF04305
:107DB10050D9264450DA2249C0DEFF4AC0DEFF4BCB
:107DC100C0DEFF4CC0DDFFD906D906320E43244583
:107DD1006E000E4420466E45C01CF046C01DF020CA
:107DE100EE2EF04350D9264450DA22DECF1EF0DECB
:107DF100CF1FF0DECF20F0DECF21F0000E236E0189
:107E01000E226E20EE01F04350D9264450DA22DFD3
:107E11005045EC2FF020EE05F04350D9264450DABE
:107E210022000EDF6E000E1C6E000E1E6E000E1D77
:107E31006E20EE01F04350D9264450DA22DF50592A
:107E4100EC33F00009D8B402D0010E4D6E4D501242
:107E5100000BC0D9FF0CC0DAFFDECF1DF0DDCF1E55
:107E6100F002D01D4A1E2A1DC0F6FF1EC0F7FFF802
:107E71006A0800F5502F0AD8B4F4D71DC0F6FF1ECA
:107E8100C0F7FFF86A0800F5505C0AD8B4EAD720B9
:107E9100EE14F00950D9260A50DA22DECF1FF0DDA8
:107EA100CF20F020C002F01FC001F0000E046E20B0
:107EB1000E036E000E066E0B0E056ECDEC28F00063
:107EC1000E156E15C01BF01C6A1BC019F01CC01AE0
:107ED100F0000E176E080E166E1DC00DF01EC00EBE
:107EE100F019500D261A500E220DC0F6FF0EC0F7E4
:107EF100FFF86A0800F5502E0AD8A457D01DC00D0E
:107F0100F01EC00EF019500D261A500E220DC0F6AB
:107F1100FF0EC0F7FFF86A0800F5CF21F0194A1AE1
:107F21002A21502E0AD8A411D0030E195C000E1A72
:107F310058D8B00BD01B501F24D96E1C502020DA0A
:107F41006E21C0DFFF1B4A1C2AD9D721502F0AD826
:107F5100B408D021505C0AD8B404D0200E216401A9
:107F6100D003D11DC00DF01EC00EF019500D261A00
:107F7100500E220BC0D9FF0CC0DAFF0DC0DEFF0E80
:107F8100C0DDFF200E216404D0000E126E200E030E
:107F9100D0000E126E240E116E20EE0BF01F50D980
:107FA100262050DA2211C0DFFF0FD11DC00DF01EB7
:107FB100C00EF019500D261A500E220DC0F6FF0EFC
:107FC100C0F7FFF86A0800F5CF21F0194A1A2A20F4
:107FD1000E2164A9D021502F0AD8B4A5D021505C1C
:107FE1000AD8B4A1D021502E0AD8B406D016501BFD
:107FF1005C17501C58D8A016D01650080A1710D874
:10800100A4B3D021502E0AD8A4AFD0000E1C6E0804
:108011000E1B6E000E176E0B0E166ED8901536D80D
:10802100901536C3D77F0E216402D0030E1512803E
:108031000E216403D09F0E216407D0DF0E21644816
:10804100D0FD0E215CD8B044D01DC00DF01EC00E75
:10805100F019500D261A500E220DC0F6FF0EC0F772
:10806100FFF86A0800F5CF18F0194A1A2A3F0E18CE
:108071006403D07E0E186407D07F0E186475D0FD9E
:108081000E185CD8B071D0FF0E0D6EFF0E0E6E167D
:10809100C00FF017C010F00D500F260E5010220F18
:1080A100501B5C10501C58D8B05FD01B501F24D9F6
:1080B1006E1C502020DA6E21C0DFFF1B4A1C2A1BD8
:1080C100501F24D96E1C502020DA6E18C0DFFF2803
:1080D100D0BF0E026EA90E016E21C003F0046A7AB0
:1080E100EC29F002500110D8A43FD0400E216406C3
:1080F100D05B0E215CD8B002D015820AD0600E216F
:108101006407D07B0E215CD8B003D01580200E21EE
:108111005E1B501F24D96E1C502020DA6E21C0DF57
:10812100FF1B4A1C2A42D71DC00DF01EC00EF019BC
:10813100500D261A500E220BC0D9FF0CC0DAFF0DCC
:10814100C0DEFF0EC0DDFF200E216404D0000E143E
:108151006E000E03D0000E146E040E136E13C021B8
:10816100F01C501B10D8A402D0060E2FD0E50E1F14
:10817100C0D9FF20C0DAFFDF6206D01FC0D9FF20BF
:10818100C0DAFF050EDF6E1650080A1710D8A404D6
:10819100D0D8901536D890153615C00DF0030E0DB8
:1081A100160D50010AD8B4218815C00DF00C0E0D22
:1081B100160D50040AD8B4218620EE0BF01F50D9B9
:1081C100262050DA2221C0DFFF000E12007C5079F8
:1081D100107A107B10D8A446D020EE0AF07750D93F
:1081E100267850DA220001DECF85F00001DECF864D
:1081F100F00001DECF87F00001DECF88F0000188BA
:1082010051851186118711D8B420D020EE16F07750
:1082110050D9267850DA22DECF80F0DECF81F0DE31
:10822100CF82F0DECF83F0000180510001855D0037
:1082310001815100018659000182510001875900D5
:1082410001835100018859D8A06FD0010E0001852A
:108251006F000E0001866F000E0001876F000E0097
:1082610001886F62D078C047F077C046F079C04886
:10827100F07AC049F07BC04AF07CC04BF0D8EC42A8
:10828100F046C08DF047C08EF048C08FF049C090D5
:10829100F0020E0001806F816B826B836B000180A5
:1082A1005100018D5D0001815100018E5900018253
:1082B1005100018F590001835100019059D8B0023A
:1082C100D0010E83D000018D29D8B48E29D8B48F66
:1082D10029D8B49029D8B4AFD020EE16F07750D970
:1082E100267850DA22DECF80F0DECF81F0DECF8239
:1082F100F0DECF83F00001805100018D5D0001812E
:108301005100018E590001825100018F59000183F2
:108311005100019059D8A08FD079C085F07AC086DC
:10832100F07BC087F07CC088F085C089F086C08A68
:10833100F087C08BF088C08CF0010E000189270006
:108341000E00018A2300018B2300018C2320EE16ED
:10835100F07750D9267850DA22DECF80F0DECF8157
:10836100F0DECF82F0DECF83F00001805100018981
:108371005D0001815100018A590001825100018B88
:10838100590001835100018C59D8A027D0020E0059
:1083910001896F000E00018A6F000E00018B6F00D2
:1083A1000E00018C6F000189510001855D00018A79
:1083B100510001865900018B510001875900018C40
:1083C1005100018859D8B009D054D0776E000E7889
:1083D1006E000E796E000E7A6EE9D078C047F077A4
:1083E100C046F089C048F08AC049F08BC04AF08C81
:1083F100C04BF0D8EC42F046C08DF047C08EF0483B
:10840100C08FF049C090F0000190518D118E118FF5
:1084110011D8B431D000018D29D8B48E29D8B48FA8
:1084210029D8B49029D8B407D000018D058E118FB9
:10843100119011D8A409D08DC077F08EC078F08F3B
:10844100C079F090C07AF0B2D00001885100018C5F
:10845100190EE10001875100018B1909E100018624
:108461005100018A1904E10001855100018919D8DF
:10847100A463D7000EAAD778C047F077C046F08929
:10848100C048F08AC049F08BC04AF08CC04BF0FF65
:108491000E4C6EFF0E4D6EFF0E4E6E0F0E4F6EFCAC
:1084A100EC44F00001846F000184671ED07C507998
:1084B100107A107B10D8B418D078C047F077C04636
:1084C100F079C048F07AC049F07BC04AF07CC04BDB
:1084D100F089C04CF08AC04DF08BC04EF08CC04F7B
:1084E100F0FCEC44F00001846F000184673ED02071
:1084F100EE0AF07750D9267850DA22000189C0DEE1
:10850100FF00018AC0DEFF00018BC0DEFF00018C8D
:10851100C0DEFF20EE0EF07750D9267850DA22DE49
:10852100CF80F0DECF81F0DECF82F0DECF83F000AE
:10853100018029D8B48129D8B48229D8B48329D813
:10854100B42DD020EE0EF07750D9267850DA22DE05
:1085510006000EDE5ADE5ADD5A20EE05F07750D9BC
:10856100267850DA22000EDB8019D000018405D86C
:10857100B40DD0010E0001896F000E00018A6F0059
:108581000E00018B6F000E00018C6F08D000018975
:108591006900018A6900018B6900018C6989C077D2
:1085A100F08AC078F08BC079F08CC07AF0120002AA
:1085B1000E485C000E4958000E4A58000E4B58D820
:1085C100A0F9D120EE16F04650D9264750DA22DE26
:1085D100CF4CF0DECF4DF0DECF4EF0DECF4FF04C82
:1085E10050485C4D5049584E504A584F504B58D8FE
:1085F100B0E1D1686869686A686B68E5D148C06EA6
:10860100F049C06FF0D8906F304D6E6E304C6E4CAB
:10861100506E264D506F2247C03CF046C03BF020C3
:10862100EE22F04650D9264750DA22DECF4CF0DE5A
:10863100CF4DF0DECF4EF0DECF4FF06EC050F06F79
:10864100C051F0090E526ED89051325032522EFB69
:10865100D750504C243D6E51504D203E6E000E4E71
:10866100203F6E000E4F20406E66EC2CF00009D8C2
:10867100A4B9D1FF0E4C6E010E4D6E6EC04EF06F5F
:10868100C04FF04C504E164D504F16320E4E260034
:108691000E4F224E504624D96E4F504720DA6EDFDE
:1086A10050506E50506C6E6D6A6E4A6F2A47C03CD6
:1086B100F046C03BF020EE22F04650D9264750DA72
:1086C10022DECF4CF0DECF4DF0DECF4EF0DECF4FCD
:1086D100F06EC050F06FC051F0090E526ED890513B
:1086E100325032522EFBD750504C243D6E51504DDA
:1086F100203E6E000E4E203F6E000E4F20406E66F3
:10870100EC2CF00009D8A46ED1FF0E4C6E010E4D79
:108711006E6EC04EF06FC04FF04C504E164D504F24
:1087210016320E4E26000E4F224E504624D96E4F61
:10873100504720DA6EDF50506E5050526E516A51E0
:10874100506C1252506D1248B007D0FF0E6C146677
:108751006E0F0E6D14676E0FD06CC04CF06DC04D76
:10876100F0040E4E6ED8904D324C324E2EFBD74C4B
:10877100C066F04DC067F066C068F067C069F0641C
:10878100D047C03CF046C03BF020EE22F04650D925
:10879100264750DA22DECF4CF0DECF4DF0DECF4E51
:1087A100F0DECF4FF048C050F049C051F04AC052FE
:1087B100F04BC053F051C050F052C051F053C05271
:1087C100F0536A4C5050243D6E4D5051203E6E4E38
:1087D1005052203F6E4F505320406E66EC2CF000FB
:1087E10009D8A400D1FF0E4C6E010E4D6E48C04E4B
:1087F100F049C04FF0D8904E364F364C504E164D82
:10880100504F16320E4E26000E4F224E5046247007
:108811006E4F504720716E20EE01F07050D92671D5
:1088210050DA22DF504C6E4C504E6E4D6A70C0D9FA
:10883100FF71C0DAFFDF504F6E4F504D12000E4EE8
:10884100124DC068F04EC069F06A6A6B6ACBD047BE
:10885100C03CF046C03BF020EE22F04650D92647FE
:1088610050DA22DECF4CF0DECF4DF0DECF4EF0DE1F
:10887100CF4FF048C050F049C051F04AC052F04BC0
:10888100C053F0080E05D0D89053325232513250B5
:1088910032E82EF9D74C5050243D6E4D5051203EB8
:1088A1006E4E5052203F6E4F505320406E66EC2C5E
:1088B100F00009D8A497D0FF0E4C6E010E4D6E4802
:1088C100C04EF049C04FF0D8904E364F36D8904E3A
:1088D100364F364C504E164D504F16320E4E260026
:1088E1000E4F224E504624706E4F504720716E201D
:1088F100EE01F07050D9267150DA22DF504C6E4CE7
:10890100504E6E4D6A20EE02F07050D9267150DA49
:1089110022DF504F6E4FC050F0516A526A536A5174
:10892100C053F050C052F0516A506A20EE03F0700B
:1089310050D9267150DA22DF50546E54C055F0568A
:108941006A576A586A55C058F0576A566A556A504C
:10895100505510596E515056105A6E525057105B67
:108961006E535058105C6E4D5059105D6E4E505AFA
:10897100105E6E000E5B105F6E000E5C10606E701C
:10898100C0D9FF71C0DAFFDF50616E61505D1062C6
:108991006E5E50636E5F50646E6050656EFF0E6276
:1089A10014686EFF0E6314696EFF0E64146A6E0F15
:1089B1000E651407D0010E686E000E696E000E6A16
:1089C1006E000E6B6E0FD046C0D9FF47C0DAFFDFD5
:1089D10050010AD8B413D6030AD8B4D2D6010AD8A2
:1089E100B436D7E8D768C046F069C047F06AC048D6
:1089F100F06BC049F01200020E485C000E495800AD
:108A01000E4A58000E4B58D8A060D220EE16F04600
:108A110050D9264750DA22DECF50F0DECF51F0DEBA
:108A2100CF52F0DECF53F05050485C51504958526C
:108A3100504A5853504B58D8A04BD247D248C072D5
:108A4100F049C073F0D8907330516E7230506E504F
:108A51005072265150732247C03CF046C03BF02073
:108A6100EE22F04650D9264750DA22DECF50F0DE12
:108A7100CF51F0DECF52F0DECF53F072C054F0731D
:108A8100C055F0090E566ED89055325432562EFB11
:108A9100D7545050243D6E555051203E6E000E5219
:108AA100203F6E000E5320406E66EC2CF0746E7405
:108AB10050D8A41DD2FF0E506E010E516E72C052DD
:108AC100F073C053F05050521651505316320E529B
:108AD10026000E532252504624756E53504720767D
:108AE1006E724A732A48B004D04CC06EF06F6A1A95
:108AF100D04C50506E516A503A513AF00E511650C6
:108B0100500F0B5112F00E501675C0D9FF76C0DA16
:108B1100FFDF500F0B526E536A505052106E6E5160
:108B21005053106F6E75C0D9FF76C0DAFF6EC0DF8B
:108B3100FF20EE04F04650D9264750DA22010EDF1D
:108B41006E47C03CF046C03BF020EE22F04650D9C3
:108B5100264750DA22DECF50F0DECF51F0DECF5281
:108B6100F0DECF53F072C054F073C055F0090E56C9
:108B71006ED89055325432562EFBD7545050243D66
:108B81006E555051203E6E000E52203F6E000E5326
:108B910020406E66EC2CF0746E7450D8A4A8D1FFFE
:108BA1000E506E010E516E72C052F073C053F050F0
:108BB10050521651505316320E5226000E53225265
:108BC100504624756E53504720766E48B01BD04CEA
:108BD100C050F04DC051F04EC052F04FC053F05153
:108BE100C050F052C051F053C052F0536A0F0E50B2
:108BF1001675C0D9FF76C0DAFFDF50F00B50105464
:108C01006E545012D04CC050F04DC051F04EC05275
:108C1100F04FC053F0050E05D0D890533252325167
:108C2100325032E82EF9D75050706E716A75C0D942
:108C3100FF76C0DAFF70C0DFFF3FD147C03CF0468E
:108C4100C03BF020EE22F04650D9264750DA22DE12
:108C5100CF50F0DECF51F0DECF52F0DECF53F048EF
:108C6100C054F049C055F04AC056F04BC057F055BA
:108C7100C054F056C055F057C056F0576A50505482
:108C8100243D6E515055203E6E525056203F6E533A
:108C9100505720406E66EC2CF0746E7450D8A427A7
:108CA100D1FF0E506E010E516E48C052F049C053B3
:108CB100F0D8905236533650505216515053163206
:108CC1000E5226000E532252504624756E535047C1
:108CD10020766E75C0D9FF76C0DAFF4CC0DFFF2069
:108CE100EE01F07550D9267650DA224DC050F05081
:108CF100C051F0526A5150DF6EDFD047C03CF046A0
:108D0100C03BF020EE22F04650D9264750DA22DE51
:108D1100CF50F0DECF51F0DECF52F0DECF53F0482E
:108D2100C054F049C055F04AC056F04BC057F00846
:108D31000E05D0D8905732563255325432E82EF9BA
:108D4100D7505054243D6E515055203E6E525056CE
:108D5100203F6E53505720406E66EC2CF0746E74B9
:108D610050D8A4C5D0FF0E506E010E516E48C052AE
:108D7100F049C053F0D89052365336D890523653FA
:108D8100365050521651505316320E5226000E5381
:108D91002252504624756E53504720766E20EE01C4
:108DA100F07550D9267650DA22DF50506E5050526D
:108DB1006E516A20EE02F07550D9267650DA22DF24
:108DC10050536E53C054F0556A566A576A55C0578E
:108DD100F054C056F0556A546A20EE03F07550D92C
:108DE100267650DA22DF50586E58C059F05A6A5B25
:108DF1006A5C6A59C05CF05B6A5A6A596A54505994
:108E0100105D6E55505A105E6E56505B105F6E5776
:108E1100505C10606E51505D10616E52505E106278
:108E21006E000E5F10636E000E6010646E75C0D927
:108E3100FF76C0DAFFDF50656E65506110666E62C5
:108E410050676E6350686E6450696E000E66146AF6
:108E51006E000E67146B6E000E68146C6EF00E6976
:108E6100146D6E6A504C126B504D126C504E126D57
:108E7100504F1275C0D9FF76C0DAFF4CC0DFFF201A
:108E8100EE01F07550D9267650DA224DC050F050DF
:108E9100C051F0526A5150DF6E20EE02F07550D988
:108EA100267650DA224EC0DFFF20EE03F07550D94E
:108EB100267650DA224FC0DFFF20EE04F04650D96B
:108EC100264750DA22010EDF6E12D0020E746E0FA9
:108ED100D046C0D9FF47C0DAFFDF50010AD8B4AE8F
:108EE100D5030AD8B4AAD6010AD8B407D7EED774E5
:108EF100501200000120EE04F000019151D926002A
:108F0100019251DA22DECF95F0DDCF96F0010E000D
:108F110001952500019E6F000E0001962100019F21
:108F21006F00019F519E11D8B40CD1000120EE0EAB
:108F3100F000019151D92600019251DA22DECF953C
:108F4100F0DECF96F0DECF97F0DECF98F0000198FB
:108F510051951196119711D8B4F4D00F0E00019EBE
:108F6100150001956F000E00019F150001966F001D
:108F71000196519511D8A41ED2000120EE0EF000E9
:108F8100019151D92600019251DA22DE2A000EDE2A
:108F910022DE22DD22000120EE0AF000019151D9EA
:108FA1002600019251DA22DECF95F0DECF96F0DE77
:108FB100CF97F0DECF98F000019851951196119757
:108FC10011D8A419D091C0D9FF92C0DAFF10EE08D0
:108FD100F0DE50E126DD50E222E6CF95F0E5CF96B6
:108FE100F00001955100019E5D0001965100019F25
:108FF10059D8A0E0D1A6D000019EC095F000019FF4
:10900100C096F0040E0001976F0001D89096339539
:10901100330001972FF9D7FF0E0001986FFF0E99CA
:109021006F91C0D9FF92C0DAFF10EE02F0DE50E17D
:1090310026DD50E222E75000019A6F9B6B000198F8
:109041005100019A270001995100019B23000195CC
:109051005100019A170001965100019B1700019BD5
:10906100519A11D8A4A7D191C0D9FF92C0DAFFDEDD
:10907100CF46F0DDCF47F0000120EE0AF00001916C
:1090810051D92600019251DA22DECF48F0DECF49D4
:10909100F0DECF4AF0DECF4BF0D8EC42F046C0A074
:1090A100F047C0A1F048C0A2F049C0A3F0020E00F1
:1090B10001956F966B976B986B000195510001A01C
:1090C1005D000196510001A159000197510001A2D3
:1090D10059000198510001A359D8A068D00001A0FE
:1090E10029D8B4A129D8B4A229D8B4A329D8B4DFE6
:1090F100D091C0D9FF92C0DAFF10EE16F0DE50E138
:1091010026DD50E222E6CF95F0E6CF96F0E6CF9746
:10911100F0E6CF98F0000195510001A05D000196A5
:10912100510001A159000197510001A25900019874
:10913100510001A359D8A0FCD0000194519311D83A
:10914100A402D0040E7AD191C0D9FF92C0DAFFDE19
:10915100CF77F0DDCF78F0000120EE0AF000019129
:1091610051D92600019251DA22DECF79F0DECF7A91
:10917100F0DECF7BF0DECF7CF0E7EC40F077C0A0F3
:10918100F078C0A1F079C0A2F07AC0A3F00001A3E9
:1091910051A011A111A211D8A402D0070E4ED100E5
:1091A10001A005A111A211A311D8A402D0020E455C
:1091B100D10001A029D8B4A129D8B4A229D8B4A337
:1091C10029D8B475D091C0D9FF92C0DAFFDECF267D
:1091D100F0DDCF27F08FEC31F00009D8A468D091F1
:1091E100C0D9FF92C0DAFFDECF95F0DDCF96F03225
:1091F1000E00019525016E000E00019621026E0000
:109201000E046E000E036E020E066E000E056ECD8C
:10921100EC28F091C0D9FF92C0DAFFDECF0DF0DD6E
:10922100CF0EF0A0C00FF0A1C010F0A2C011F0A3AA
:10923100C012F07EEC2DF00DC095F00EC096F00F2F
:10924100C097F010C098F091C0D9FF92C0DAFF101A
:10925100EE2EF0DE50E126DD50E22295C0E6FF96CB
:10926100C0E6FF97C0E6FF98C0E5FFE106E1060012
:109271000E00019D6F000E00019C6F2DD091C0D991
:10928100FF92C0DAFF10EE04F0DE50E126DD50E27D
:1092910022010EE76E91C0D9FF92C0DAFFDECF2620
:1092A100F0DDCF27F08FEC31F00009D8B402D00106
:1092B1000EC4D091C0D9FF92C0DAFF10EE2EF0DEBD
:1092C10050E126DD50E222E62A000EE622E622E502
:1092D1002200019C4B9D2B91C0D9FF92C0DAFF1057
:1092E100EE02F0DE50E126DD50E222E7500001956A
:1092F1006F966B0001955100019C5D000196510034
:10930100019D59D8A0BBD791C0D9FF92C0DAFF10F7
:10931100EE2EF0DE50E126DD50E22200019C51E606
:109321005E00019D51E65A000EE65AE55AE552E506
:1093310052000120EE0AF000019151D9260001925C
:1093410051DA220001A0C0DEFF0001A1C0DEFF0052
:1093510001A2C0DEFF0001A3C0DEFF91C0D9FF92D0
:10936100C0DAFFDECF0DF0DDCF0EF0A0C00FF0A10F
:10937100C010F0A2C011F0A3C012F07EEC2DF00DD0
:10938100C095F00EC096F00FC097F010C098F00095
:109391000120EE0EF000019151D92600019251DA1F
:1093A1002295C0DEFF96C0DEFF97C0DEFF98C0DDCC
:1093B100FFD906D906000120EE04F000019151D930
:1093C1002600019251DA2200019EC0DEFF00019FBA
:1093D100C0DDFF0F0E00019E150001956F000E000C
:1093E100019F150001966F050ED8900001953796E3
:1093F10037E82EFAD7320E00019527000E962391F9
:10940100C0D9FF92C0DAFFDECF97F0DDCF98F00030
:109411000195510001972700019651000198230001
:109421000120EE12F000019151D92600019251DA8A
:109431002297C0DEFF98C0DDFF000E1200000E0172
:1094410001626F0C0E0101616F0001D551D411D879
:10945100A402D0090EB1D3D4C0D9FFD5C0DAFF0020
:109461000EDE6E000EDD6E0101614B622B000E01FE
:1094710001626F3D0E0101616F1F0E0001D81701DE
:1094810001010E6B6E0101170E6A6E0001000E6D77
:109491006E0001D60E6C6E0001D851FE0B6E6E325D
:1094A100EC53F00101146F0101614B622B010114B6
:1094B1006781D3000E0101626F600E0101616F01CE
:1094C10001010E01012C6F0101000E01012B6F0141
:1094D10001010E0001A96F0101170E0001A86F0023
:1094E10001D7C0ABF00001D6C0AAF097EC36F0016D
:1094F10001146F01012AC116F1010129C115F10100
:109501000114670ED0000E0101626F610E0101614D
:109511006F010116511511D8A403D0060E010114D3
:109521006F0101614B622BD8C0D9F01C0E0001D92B
:1095310017D8B4A6D1000E0101626F620E0101615C
:109541006F01011451D8B426D0000E0101626F855C
:109551000E0101616F01011451040AD8A40CD0015C
:1095610001010E0001AC6F0101170E0001AB6F4B41
:10957100EC2EF00101146F0001D88701012AC116F8
:10958100F1010129C115F1000E0101626F9D0E016A
:1095910001616F1FD0000E0101626F860E01016132
:1095A1006F010120EE0BF001011551D926010116C1
:1095B10051DA22DF500001D96F110E0001D917D8FD
:1095C100B402D0070E04D00001D8A503D0080E01C3
:1095D10001146F0101146783D10001D8A780D10064
:1095E1000E0101626F880E0101616F000E01011011
:1095F1006F000E0101116FFE0E0101126F480E0185
:1096010001136F010120EE0EF001011551D9260160
:10961100011651DA22010110C1DFFF010120EE0F15
:10962100F001011551D92601011651DA220101116A
:10963100C1D9F0D9C0DAF00001DB6B0001DA51DFEA
:109641006E010120EE10F001011551D9260101161C
:1096510051DA22010112C1DFFF010120EE11F001F7
:10966100011551D92601011651DA22010113C1DF79
:10967100FF010120EE16F001011551D92601011655
:1096810051DA22010110C1DFFF010120EE17F001C3
:10969100011551D92601011651DA22010111C1D951
:1096A100F0D9C0DAF00001DB6B0001DA51DF6E01A5
:1096B1000120EE18F001011551D92601011651DAE8
:1096C10022010112C1DFFF010120EE19F001011594
:1096D10051D92601011651DA22010113C1DFFF011F
:1096E1000120EE0BF001011551D92601011651DAC5
:1096F10022000EDF6E010120EE1CF001011551D98F
:109701002601011651DA22000EDF6E010120EE1D45
:10971100F001011551D92601011651DA22000EDF9F
:109721006E010120EE1EF001011551D9260101162D
:1097310051DA22000EDF6E010120EE1FF00101154A
:1097410051D92601011651DA22000EDF6E010118EE
:10975100C102F0010117C101F0010116C104F001BC
:109761000115C103F0E2EC2DF001C00CF102C00DB6
:10977100F103C00EF104C00FF1010116C102F001A5
:109781000115C101F0000E036E000E046E000E05FE
:109791006E000E066ECCEC29F0010120EE04F00102
:1097A100011751D92601011851DA22010EDF6E018C
:1097B100010F510C110D110E11D8B491D0010120DE
:1097C100EE2EF001011751D92601011851DA2201BB
:1097D10001DECF10F10101DECF11F10101DECF1267
:1097E100F10101DECF13F1010118C178F001011778
:1097F100C177F00CC179F00DC17AF00EC17BF00F89
:10980100C17CF056EC3AF00101146F010114676755
:10981100D0FF0E01010C250001D96FFF0E01010DD2
:10982100210001DA6FFF0E01010E210001DB6FFF44
:109831000E01010F210001DC6F010120EE0AF00190
:10984100011751D92601011851DA22D9C0DEFFDAF8
:10985100C0DEFFDBC0DEFFDCC0DDFFD906D90601BB
:109861000118C13CF0010117C13BF010C13DF011DD
:10987100C13EF012C13FF013C140F066EC2CF02D57
:10988100D0000E0101626F630E0101616F010114CD
:109891006726D0010120EE0BF001011551D92601F7
:1098A100011651DA22DF500001D96F0001D9A90256
:1098B100D0040E13D00001D8A312D0010120EE0B69
:1098C100F001011551D92601011651DA22DF5000AC
:1098D10001D96F0001D9A103D0070E0101146F0155
:1098E10001146736D0000E0101626F7D0E01016126
:1098F1006F0001D8A702D00001D88B010120EE2E04
:10990100F001011751D92601011851DA2200011085
:10991100EE1AF00001D451E1260001D551E222DE18
:10992100CFE6FFDECFE6FFDECFE6FFDDCFE5FFE5E9
:1099310052E552000120EE1EF00001D451D926005B
:1099410001D551DA22010115C1DEFF010116C1DD88
:10995100FF010114672FD1000E0101626F7F0E011B
:1099610001616F000120EE04F00001D451D92600FD
:1099710001D551DA220001D8C0DFFF000120EE0538
:10998100F00001D451D9260001D551DA22000EDFB1
:109991006E010118C102F0010117C101F0010116A8
:1099A100C104F0010115C103F0E2EC2DF001C0D9B1
:1099B100F002C0DAF003C0DBF004C0DCF0000120EB
:1099C100EE0EF00001D451D9260001D551DA22D989
:1099D100C0DEFFDAC0DEFFDBC0DEFFDCC0DDFFD9A9
:1099E10006D906010120EE1DF001011551D926010C
:1099F100011651DA22DF500001D96F0001D951005F
:109A010001DB6FDA6B010120EE1EF001011551D966
:109A11002601011651DA22DF500001DC6FDCC0DDC6
:109A2100F00001DE6BDF6BE06BDEC0E0F0DDC0DF7C
:109A3100F00001DE6BDD6B010120EE1FF00101156D
:109A410051D92601011651DA22DF500001E16FE1FF
:109A5100C0E2F00001E36BE46BE56BE2C0E5F0000E
:109A610001E46BE36BE26B0001DD510001E21100E7
:109A710001E66F0001DE510001E3110001E76F0013
:109A810001DF510001E4110001E86F0001E0510024
:109A910001E5110001E96F0001DA510001E6110051
:109AA10001EA6F0001DB510001E7110001EB6F00DA
:109AB1000E0001E8110001EC6F000E0001E9110038
:109AC10001ED6F010120EE1CF001011551D92601B4
:109AD100011651DA22DF500001EE6F0001EE510054
:109AE10001EA110001EF6F0001EB510001F06F007D
:109AF10001EC510001F16F0001ED510001F26F0025
:109B01000120EE0AF00001D451D9260001D551DA25
:109B110022EFC0DEFFF0C0DEFFF1C0DEFFF2C0DDEC
:109B2100FFD906D906000120EE06F00001D451D973
:109B3100260001D551DA22DE6ADE6ADE6ADD6A00BC
:109B41000120EE16F00001D451D9260001D551DAD9
:109B510022DE6ADE6ADE6ADD6A000120EE20F000A4
:109B610001D451D9260001D551DA22000EDE6E0052
:109B71000EDD6ED4C0D9FFD5C0DAFF010117C1DEF9
:109B8100FF010118C1DDFFD4C0D9FFD5C0DAFF1034
:109B9100EE06F0DE50E126DD50E222000120EE0269
:109BA100F00001D451D9260001D551DA22E6CFDEE9
:109BB100FFE5CFDDFF010114511200000194C0AB9C
:109BC100F0000193C0AAF097C0D9FF98C0DAFF0056
:109BD1000EDE6E000EDD6E000192C003F0000191F9
:109BE100C002F0C2EC2BF00001A96F0001A951D80D
:109BF100B404D00001A95131EF53F0000120EE056A
:109C0100F000019151D92600019251DA22DF50D89A
:109C1100B40CD0000120EE05F000019151D92600CD
:109C2100019251DA22DF5031EF53F0000120EE04AE
:109C3100F000019151D92600019251DA22DF500042
:109C410001996F000199B303D0070E31EF53F00072
:109C51000120EE06F000019151D92600019251DA5E
:109C610022DECF99F0DECF9AF0DECF9BF0DECF9CE3
:109C7100F0000120EE06F000019151D92600019279
:109C810051DA22DECF9DF0DECF9EF0DECF9FF0DEF7
:109C9100CFA0F00001955100019D250001A16F00A9
:109CA10001965100019E210001A26F000E00019F4B
:109CB100210001A36F000E0001A0210001A46F008B
:109CC1000199510001A15D00019A510001A25900C1
:109CD100019B510001A35900019C510001A459D8D5
:109CE100B0CFEF52F0000E0001966F000E0001950B
:109CF1006FCFEF52F0000120EE06F000019151D933
:109D01002600019251DA22FF0EDE140001996F0143
:109D11000EDE1400019A6F000EDE1400019B6F002D
:109D21000EDE1400019C6F00019C5199119A119B48
:109D310011D8A45BD3000120EE06F000019151D9A6
:109D41002600019251DA22DECF99F0DECF9AF0DEC1
:109D5100CF9BF0DECF9CF00A0E06D00001D8909C7C
:109D6100339B339A339933E82EF8D791C0D9FF92B8
:109D7100C0DAFF10EE02F0DE50E126DD50E222E70C
:109D81005000019D6F00019D05000199150001AC76
:109D91006F0001AC67F3D0000120EE06F0000191E5
:109DA10051D92600019251DA22DECF99F0DECF9A05
:109DB100F0DECF9BF0DECF9CF000019C5199119A0F
:109DC100119B11D8A42FD0000120EE0EF0000191BB
:109DD10051D92600019251DA220001DECFB5F000FF
:109DE10001DECFB6F00001DECFB7F00001DECFB863
:109DF100F00001B851B511B611B711D8A465D091D1
:109E0100C0D9FF92C0DAFFDECF77F0DDCF78F00066
:109E11000E796E000E7A6E000E7B6E000E7C6EE780
:109E2100EC40F04AD0000120EE20F000019151D920
:109E31002600019251DA22DE50DD10D8B422D00082
:109E41000192C00FF0000191C00EF0000120EE065A
:109E5100F000019151D92600019251DA22DECF1092
:109E6100F0DECF11F0DECF12F0DECF13F0D1EC2F08
:109E7100F00EC0B5F00FC0B6F010C0B7F011C0B809
:109E8100F023D091C0D9FF92C0DAFFDECF77F0DDA9
:109E9100CF78F0000120EE12F000019151D9260097
:109EA100019251DA22DECF79F0DECF7AF0DECF7B7C
:109EB100F0DECF7CF0E7EC40F077C0B5F078C0B6CB
:109EC100F079C0B7F07AC0B8F00001B851B511B659
:109ED10011B711D8B469D30001B505B611B711B8DE
:109EE10011D8B4BBD00001B529D8B4B629D8B4B7BC
:109EF10029D8B4B829D8B4CED2000120EE12F0008E
:109F0100019151D92600019251DA220001B5C0DE3A
:109F1100FF0001B6C0DEFF0001B7C0DEFF0001B8DF
:109F2100C0DEFF000120EE0EF000019151D92600A4
:109F3100019251DA22DECF99F0DECF9AF0DECF9B8B
:109F4100F0DECF9CF000019C5199119A119B11D820
:109F5100A415D0000120EE0EF000019151D9260088
:109F6100019251DA220001B5C0DEFF0001B6C0DE68
:109F7100FF0001B7C0DEFF0001B8C0DEFF00012015
:109F8100EE16F000019151D92600019251DA22DE3C
:109F9100CF99F0DECF9AF0DECF9BF0DECF9CF0912F
:109FA100C0D9FF92C0DAFF10EE2EF0DE50E126DDBF
:109FB10050E222E6CF9DF0E6CF9EF0E6CF9FF0E69D
:109FC100CFA0F000019C510001A0190EE100019BFE
:109FD1005100019F1909E100019A5100019E1904E4
:109FE100E10001995100019D19D8A40DD091C0D96A
:109FF100FF92C0DAFFDECF26F0DDCF27F08FEC3104
:10A00100F00009D8A447D291C0D9FF92C0DAFFDE8F
:10A01100CF0DF0DDCF0EF0000120EE12F000019126
:10A0210051D92600019251DA22DECF0FF0DECF1096
:10A03100F0DECF11F0DECF12F07EEC2DF00DC0AFCF
:10A04100F00EC0B0F00FC0B1F010C0B2F00001B21C
:10A0510051AF11B011B111D8A40DD0000120EE05FE
:10A06100F000019151D92600019251DA22020EDF4E
:10A071006E020EF6D20001AC510001AF27000E00B6
:10A0810001B0230001B1230001B223000195C09961
:10A09100F0000196C09AF0090E00019B6F0001D8F3
:10A0A100909A33993300019B2FF9D799C0ADF09A5B
:10A0B100C0AEF00001AE51AD11D8B42BD10001AC4E
:10A0C100510001AD250001996F000E0001AE210084
:10A0D100019A6F91C0D9FF92C0DAFF10EE02F0DE53
:10A0E10050E126DD50E222E75000019B6F9C6B009E
:10A0F10001995100019B5D00019A5100019C59D8C1
:10A10100B022D00001AC510001996F9A6B00019906
:10A111001F9A1F994B9A2B91C0D9FF92C0DAFF1059
:10A12100EE02F0DE50E126DD50E222E75000019B15
:10A131006F00019B51000199250001AD6F000E00D8
:10A14100019A210001AE6F0001ABC01DF00001AA10
:10A15100C01CF0AFC01EF0B0C01FF0B1C020F0B203
:10A16100C021F0ADC022F0AEC023F091C0D9FF9262
:10A17100C0DAFF10EE01F0DE50E126DD50E222E709
:10A181005045EC2FF00009D8A485D10001AD510054
:10A1910001996F0001AE5100019A6F00019B6B00A4
:10A1A100019C6B91C0D9FF92C0DAFF10EE2EF0DE58
:10A1B10050E126DD50E222E6CF9DF0E6CF9EF0E6AB
:10A1C100CF9FF0E6CFA0F00001AFC0A1F00001B039
:10A1D100C0A2F00001B1C0A3F00001B2C0A4F00020
:10A1E10001A11FA21FA31FA41FA12B000EA223A325
:10A1F10023A42300019D510001A1250001A56F00A9
:10A20100019E510001A2210001A66F00019F510092
:10A2110001A3210001A76F0001A0510001A42100A9
:10A2210001A86F000199510001A55D00019A51003B
:10A2310001A65900019B510001A75900019C510041
:10A2410001A859D8B054D091C0D9FF92C0DAFFDE2D
:10A25100CF99F0DDCF9AF0320E00019925016E0001
:10A261000E00019A21026E91C0D9FF92C0DAFF104F
:10A27100EE2EF0DE50E126DD50E222E6CF9BF0E546
:10A28100CF9CF00001AFC09DF00001B0C09EF00076
:10A29100019D1F9E1F9D4B9E2B00019B5100019D07
:10A2A1002700019C5100019E23090ED89000019DB9
:10A2B100379E37E82EFAD700019D510001AA2503E8
:10A2C1006E00019E510001AB21046E020E066E006C
:10A2D1000E056E22EC2AF091C0D9FF92C0DAFF1070
:10A2E100EE04F0DE50E126DD50E222000EE76E00C2
:10A2F10001ADC099F00001AEC09AF0090ED89000EE
:10A301000199379A37E82EFAD799C0B3F09AC0B4B9
:10A31100F017D1000120EE0AF000019151D9260079
:10A32100019251DA22DECF99F0DECF9AF0DECF9B97
:10A33100F0DECF9CF0000120EE06F000019151D932
:10A341002600019251DA22DECF9DF0DECF9EF0DEB3
:10A35100CF9FF0DECFA0F00001995100019D5D007B
:10A36100019A5100019E5900019B5100019F590022
:10A37100019C510001A059D8A023D091C0D9FF92CE
:10A38100C0DAFFDECF26F0DDCF27F08FEC31F00011
:10A3910009D8A480D091C0D9FF92C0DAFF10EE2E67
:10A3A100F0DE50E126DD50E2220001AFC0E6FF0001
:10A3B10001B0C0E6FF0001B1C0E6FF0001B2C0E696
:10A3C100FF000120EE16F000019151D92600019203
:10A3D10051DA220001AFC0DEFF0001B0C0DEFF0094
:10A3E10001B1C0DEFF0001B2C0DEFFFF0E00019926
:10A3F1006F010E9A6F000120EE06F000019151D914
:10A401002600019251DA22DECF9BF0DDCF9CF000D5
:10A4110001995100019B1700019A5100019C1700FD
:10A42100019B1F9C1F9B4B9C2B000E00019B250039
:10A4310001B36F020E00019C210001B46F0001B352
:10A44100510001955D0001B45100019659D8B00445
:10A45100D095C0B3F096C0B4F091C0D9FF92C0DAE4
:10A46100FFDECF3BF0DDCF3CF0000120EE16F00027
:10A47100019151D92600019251DA22DECF3DF0DE61
:10A48100CF3EF0DECF3FF0DECF40F066EC2CF000A7
:10A4910009D8B40DD0000120EE05F000019151D989
:10A4A1002600019251DA22010EDF6E010ED9D0FF92
:10A4B1000E0001996F010E9A6F000120EE06F00067
:10A4C100019151D92600019251DA22DECF9BF0DDB4
:10A4D100CF9CF00001995100019B1700019A510096
:10A4E100019C17320E00019B27000E9C2391C0D9BD
:10A4F100FF92C0DAFFDECF9DF0DDCF9EF000019B21
:10A501005100019D25016E00019C5100019E210217
:10A511006E0001ABC004F00001AAC003F0B3C00596
:10A52100F0B4C006F022EC2AF091C0D9FF92C0DA53
:10A53100FF10EE04F0DE50E126DD50E222010EE7CD
:10A541006E0001B3510001AA270001B4510001AB13
:10A5510023000120EE06F000019151D9260001925D
:10A5610051DA220001B351DE260001B451DE22008E
:10A571000EDE22DD22DD52DD5297C0D9FF98C0DA0E
:10A58100FF0001B351DE260001B451DD220001B309
:10A59100510001955F0001B4510001965B000196E5
:10A5A100519511D8A47BEF4EF0000120EE06F0008A
:10A5B100019151D92600019251DA22DECF99F0DEC4
:10A5C100CF9AF0DECF9BF0DECF9CF0000120EE0AA7
:10A5D100F000019151D92600019251DA22DECF9D7E
:10A5E100F0DECF9EF0DECF9FF0DECFA0F00001992C
:10A5F1005100019D5D00019A5100019E5900019B8E
:10A601005100019F5900019C510001A059D8B01C73
:10A61100D0000120EE06F000019151D926000192EF
:10A6210051DA22000110EE0AF000019151E12600F9
:10A63100019251E222DECFE6FFDECFE6FFDECFE67A
:10A64100FFDDCFE5FFE552E552000120EE04F00009
:10A65100019151D92600019251DA22000EDB8A00C4
:10A661000E1200000E0101646F170E0101636F6A83
:10A67100C0D9FF6BC0DAFF000EDE6E000EDD6E6D1D
:10A68100C002F06CC001F054EC32F001C0B8F0022D
:10A69100C0B9F00001B951800AF36E800EF35C007D
:10A6A1000ED8B4B85DD8B009D0000E0101646F199D
:10A6B1000E0101636F0B0E68EF5FF0000E01016484
:10A6C1006F180E0101636F480E0001806F010E814A
:10A6D1006FD8900001B835D96E0001B935DA6E0036
:10A6E100018051D92600018151DA220001DECFD249
:10A6F100F00001DDCFD3F00001D351D211D8A40372
:10A70100D00C0E68EF5FF0000E0101646F1A0E01AC
:10A7110001636F6AC0D9FF6BC0DAFF0001D2C0DEEE
:10A72100FF0001D3C0DDFF000E0101646F1B0E01AC
:10A7310001636FD2C0D9FFD3C0DAFFDF50D8B41A9A
:10A74100D0000120EE01F00001D251D9260001D341
:10A7510051DA22DF5081EC28F00001C46F0001C4FE
:10A76100B109D06E50D8B467EF5FF00001C4A5679E
:10A77100EF5FF032D0000E0101646F1C0E01016326
:10A781006FD2C0D9FFD3C0DAFF000EDF6E00012007
:10A79100EE01F00001D251D9260001D351DA220095
:10A7A10001B8C0DFFF000120EE01F00001D251D954
:10A7B100260001D351DA22DF5078EC35F00001C4D4
:10A7C1006F0001C4A103D0030E68EF5FF06E50D893
:10A7D100B406D00001C4A503D00A0E68EF5FF000F3
:10A7E1000E0101646F1D0E0101636F000E01016412
:10A7F1006F1E0E0101636F000E0001CB6F000E0092
:10A8010001CC6F000E0001CD6F000E0001CE6F0074
:10A8110001D3C047F00001D2C046F0CBC048F0CC14
:10A82100C049F0CDC04AF0CEC04BF002EC39F00087
:10A8310001D16F00010101D1C063F10101646B001D
:10A841000E0101646F3D0E0101636F0001D105D856
:10A85100A47AD1000E0101646F3E0E0101636F0005
:10A861000E0001D06F000E0001CF6F040E0001CF6A
:10A871005D000E0001D059D8B0F9D0000E0101647D
:10A881006F240E0101636FF00E0001806F010E81D4
:10A891006F0001CFC082F00001D0C083F0000182BF
:10A8A1003B833BF00E831782510F0B8313F00E8213
:10A8B10017000180510001822700018151000183AD
:10A8C10023000182510001D2250001C56F000183DF
:10A8D100510001D3210001C66F000120EE04F000F8
:10A8E10001C551D9260001C651DA22DF50D8A40B87
:10A8F100D0000E0001AA6F000E0001AB6F000E0028
:10A9010001AC6F000E8CD0000120EE09F00001C5F2
:10A9110051D9260001C651DA22DF500001806F00B3
:10A921000180510001826F816B000120EE0AF0006D
:10A9310001C551D9260001C651DA22DF5000018339
:10A941006F83C084F00001856B866B876B85C08740
:10A95100F084C086F00001856B846B000120EE0B52
:10A96100F00001C551D9260001C651DA22DF50009D
:10A9710001886F88C089F000018A6B8B6B8C6B89B1
:10A98100C08CF000018B6B8A6B896B0001845100D4
:10A9910001891100018D6F0001855100018A1100AB
:10A9A100018E6F0001865100018B1100018F6F0034
:10A9B10001875100018C110001906F00018151004C
:10A9C100018D110001916F0001825100018E110072
:10A9D10001926F000E00018F110001936F000E00B4
:10A9E1000190110001946F000120EE08F00001C5F3
:10A9F10051D9260001C651DA22DF500001956F00BE
:10AA0100019551000191110001AA6F0001925100BD
:10AA110001AB6F000193510001AC6F000194510033
:10AA210001AD6F9A0E0001806F000E816FD890000A
:10AA310001CF35D96E0001D035DA6ED890D936DA2A
:10AA41003600018051D92600018151DA220001AA84
:10AA5100C0DEFF0001ABC0DEFF0001ACC0DEFF00C5
:10AA610001ADC0DEFF0001CF4BD02BFFD6000E00A1
:10AA710001D06F000E0001CF6F0001D051CF11D86E
:10AA8100B404D00001CF07D8A0D007000E010164A3
:10AA91006F220E0101636F9A0E0001806F000E811B
:10AAA1006FD8900001CF35D96E0001D035DA6ED85C
:10AAB10090D936DA3600018051D92600018151DA68
:10AAC100220001DECFCBF00001DECFCCF00001DEB1
:10AAD100CFCDF00001DECFCEF00001CE51CB11CCB5
:10AAE10011CD11D8A407D0000E0001AF6F020E00E6
:10AAF10001AE6F18D00001D3C047F00001D2C046AB
:10AB0100F0CBC048F0CCC049F0CDC04AF0CEC04B2C
:10AB1100F002EC39F00001806F000180510001AEBC
:10AB21006F0001AF6BAEC0D1F00001D151D8B40BB1
:10AB3100D00001CF4BD02B040E0001CF5D000E00E1
:10AB410001D059D8A0A2D7000E0101646F200E01D7
:10AB510001636F0001D151030AD8A403D0010E682B
:10AB6100EF5FF00001D151D8A400EF5CF0000E01BD
:10AB710001646F1F0E0101636F000120EE3EF000C2
:10AB810001D251D9260001D351DA22DF50000180D0
:10AB91006F000180510001826F816B000120EE3D49
:10ABA100F00001D251D9260001D351DA22DF500041
