:060000000A128A11CE2C49
:10099C0083010A128A11902F1030831603138700DB
:1009AC0088010800DA2CDA2C0130F0020030031C2C
:1009BC00F103F102FF307106031DE62CFF307006C7
:1009CC00031DE92CEA2CDA2CEB2C0800EE2CEE2C77
:1009DC000130F0020030031CF103F102FF3071060C
:1009EC00031DFA2CFF307006031DFD2CFE2CEE2C83
:1009FC00FF2C0800831203138816F430F00001302A
:100A0C00F1000A128A11D8240A128A1183120313D4
:100A1C008812F430F0000130F1000A128A11D82447
:100A2C000A128A1108008312031307130130F00015
:100A3C000030F1000A128A11EC240A128A110630D5
:100A4C000A128A11CF260A128A110130F0000030E6
:100A5C00F1000A128A11EC240A128A118312031370
:100A6C0007170130F0000030F1000A128A11EC2453
:100A7C000A128A110800FC007A18452D492D8312A0
:100A8C00031308164C2D8312031308127C08FB0069
:100A9C0004300310FB0CFF3E031D4F2D0808F039EA
:100AAC007B0488000A128A1100250A128A110F3061
:100ABC007C05FB00831203130808F0397B048800C3
:100ACC000A128A1100250A128A110800FA01013053
:100ADC000A128A1141250A128A11FA0102300A12ED
:100AEC008A1141250A128A11FA0106300A128A115A
:100AFC0041250A128A11FA010C300A128A11412579
:100B0C000A128A11FA0128300A128A1141250A1296
:100B1C008A11FA0180300A128A1141250A128A11AF
:100B2C000800992D992D0130F4000030F5000030AB
:100B3C00F6000030F7007408F0027508031C750FFE
:100B4C00A82DA92DF1027608031C760FAE2DAF2D22
:100B5C00F2027708031C770FB42DB52DF302FF308A
:100B6C007306031DC32DFF307206031DC32DFF300A
:100B7C007106031DC32DFF307006031DC62DC72D36
:100B8C00992DC82D0800F7008312031307130130A9
:100B9C00F0000030F1000A128A11EC240A128A11BA
:100BAC0001300A128A11CF260A128A110130F00084
:100BBC000030F1000A128A11EC240A128A1177080B
:100BCC000A128A11CF260A128A110130F000003065
:100BDC00F1000A128A11EC240A128A1183120313EF
:100BEC0007170130F0000030F1000A128A11EC24D2
:100BFC000A128A1108008312031307130130F00044
:100C0C000030F1000A128A11EC240A128A11053004
:100C1C000A128A11CF260A128A110130F000003014
:100C2C00F1000A128A11EC240A128A110A128A1192
:100C3C003C260A128A11F7007708F8000130F00000
:100C4C000030F1000A128A11EC240A128A11831264
:100C5C00031307170130F0000030F1000A128A115B
:100C6C00EC240A128A1178083B2E0800F401083093
:100C7C007402031C422E432E452E812E812E83128C
:100C8C00031387110130F0000030F1000A128A11B1
:100C9C00EC240A128A117508F2007207F30073082B
:100CAC00F50083120313071E5C2E5D2E632E750850
:100CBC00013EF2007208F500632E87150130F0003A
:100CCC000030F1000A128A11EC240A128A11013048
:100CDC00F0000030F1000A128A11EC240A128A1179
:100CEC000130F2007208F40708307402031C7F2EE6
:100CFC00802E452E812E7508832E0800F800831255
:100D0C00031307130130F0000030F1000A128A11AE
:100D1C00EC240A128A1103300A128A11CF260A1205
:100D2C008A110130F0000030F1000A128A11EC2413
:100D3C000A128A1178080A128A11CF260A128A110D
:100D4C000130F0000030F1000A128A11EC240A1272
:100D5C008A110A128A113C260A128A11F7007708A6
:100D6C00F9000130F0000030F1000A128A11EC2475
:100D7C000A128A118312031307170130F000003096
:100D8C00F1000A128A11EC240A128A117908CE2E6B
:100D9C000800F4007408F2007208F500F60108303F
:100DAC007602031CDA2EDB2EDD2E242F242F831249
:100DBC00031387110130F0000030F1000A128A1180
:100DCC00EC240A128A11F51FEC2EED2EF12E831253
:100DDC0003138716F52E831203138712F52E75084D
:100DEC00F2007207F3007308F5000130F0000030D8
:100DFC00F1000A128A11EC240A128A1183120313CD
:100E0C0087150130F0000030F1000A128A11EC2431
:100E1C000A128A110130F0000030F1000A128A1116
:100E2C00EC240A128A110130F2007208F60708301D
:100E3C007602031C222F232FDD2E242F0800FB000B
:100E4C008312031307150A128A1119250A128A1123
:100E5C00302F302F0A128A1101260A128A11003003
:100E6C000A128A11C9250A128A1183120313071355
:100E7C000130F0000030F1000A128A11EC240A1241
:100E8C008A1102300A128A11CF260A128A110130F5
:100E9C00F0000030F1000A128A11EC240A128A11B7
:100EAC0079080A128A11CF260A128A110130F00031
:100EBC000030F1000A128A11EC240A128A117B0804
:100ECC000A128A11CF260A128A110130F000003062
:100EDC00F1000A128A11EC240A128A1183120313EC
:100EEC0007170130F0000030F1000A128A11EC24CF
:100EFC000A128A11822F822F0A128A1101260A12D3
:100F0C008A11FA007A1C8B2F8C2F822F83120313D9
:100F1C00071108000A128A11D2240A128A110A1225
:100F2C008A116C250A128A111530FD007D08F90012
:100F3C0041300A128A1125270A128A110030F30057
:100F4C000030F2000130F100F430F0000A128A1186
:100F5C0097250A128A111630FD007D08F9004E30D3
:100F6C000A128A1125270A128A110030F300003068
:100F7C00F2000130F100F430F0000A128A119725CA
:100F8C000A128A111730FD007D08F9004B300A1245
:100F9C008A1125270A128A11FA010314FA0D153049
:100FAC000A128A1184260A128A110A128A11412500
:100FBC000A128A11FA010314FA0D16300A128A1158
:100FCC0084260A128A110A128A1141250A128A11E0
:100FDC000030F3000730F200A130F1002030F000B7
:100FEC000A128A1197250A128A11D22FD22F0A12AD
:040FFC008A1100282E
:00000001FF
