:0400000062EF58F063
:10AF7600100E946EC00E956E200E936E1200010692
:10AF8600D8A002060128D8B40228D8B41200F7D7F0
:10AF96000106D8A002060128D8B40228D8B41200A7
:10AFA600F7D720202020202020202020202020200D
:10AFB6004279746573000A6E000E036E0A40E84219
:10AFC600C00B09243F0F87EC58F01200838A010E4C
:10AFD600026EF40E016EC2EC57F0839A010E026EF9
:10AFE600F40E016EC2EC57F012000106000E025A72
:10AFF600035A045A0128D8B40228D8B40328D8B46E
:10B006000428D8B41200F1D702C006F001C005F03A
:10B0160004D0054A062A034A042A03C0F6FF04C0E0
:10B02600F7FF05C0D9FF06C0DAFF0800F5CFDFFF3E
:10B03600DF50D8B41200EDD7000E036E010E87EC78
:10B0460058F0000E036E020E87EC58F0000E036EE9
:10B05600060E87EC58F0000E036E0C0E87EC58F0C7
:10B06600000E036E280E87EC58F0000E036E800E5D
:10B0760087EC58F01200000E036E1CD08296000E6C
:10B08600026E010E016ECBEC57F004500424046EE0
:10B0960082A802D00428046E8286000E026E010E7B
:10B0A600016ECBEC57F0000E026E010E016ECBEC7A
:10B0B60057F0032A070E0364E1D70450120000EE8E
:10B0C60094F012EE00F0EE6AE550E150FCE1E25039
:10B0D600FAE100EE4BF0310EEE6AE806FDE1A80E4D
:10B0E600F66EAF0EF76E000EF86E00EE80F010EE04
:10B0F60014F00900F5CFEEFFE550E150FAE1000E3D
:10B10600F86E0001C4EF5BF0086E036608D083CFCB
:10B1160004F0EF0E04160450066E076A08D0100EEF
:10B1260083CF04F0056A0410066E0550076E06C04C
:10B1360083FF08C004F0043A0F0E04168350F00B88
:10B146000410836EE9EC57F008C004F00F0E0416E5
:10B156008350F00B0410836EE9EC57F0120016D002
:10B16600010E036E09C0F6FF0AC0F7FFF86A0F0E5C
:10B17600F76403D00800F55005D0F6CFE9FFF7CF06
:10B18600EAFFEF5087EC58F0094A0A2A09C0F6FF91
:10B196000AC0F7FFF86A0F0EF76403D00800F550EF
:10B1A60005D0F6CFE9FFF7CFEAFFEF500009D8B494
:10B1B6001200D6D7000E096E000E0A6E000E0B6E38
:10B1C600000E0C6E01A008D00550092606500A2272
:10B1D60007500B2208500C22D89005360636073643
:10B1E6000836D8900432033202320132045001107C
:10B1F60002100310D8A4E6D709C001F00AC002F075
:10B206000BC003F00CC004F01200036E03C004F080
:10B21600000E056E23D08296000E026E010E016EA0
:10B22600CBEC57F004AE02D0828A01D0829A045049
:10B236000424046E000E026E010E016ECBEC57F074
:10B246008286000E026E010E016ECBEC57F0000EE8
:10B25600026E010E016ECBEC57F0052A070E05644F
:10B26600DAD71200000E136E000E126E0EC006F034
:10B276000FC007F010C008F011C009F0110E6EECF7
:10B2860059F0146E1450D8B402D0145023D0829CB6
:10B29600000E136E000E126E000E166E000E156E68
:10B2A600000E155C020E1658D8B00CD0940E15245C
:10B2B600D96E000E1620DA6E3EEC58F0DF6E154A97
:10B2C600162AEED73EEC58F03EEC58F03EEC58F01D
:10B2D600828C000E12000C6E000E0A6E829C0C50C0
:10B2E600400908EC59F0095008EC59F0085008ECF0
:10B2F60059F0075008EC59F0065008EC59F00C507C
:10B30600080AD8A404D0870E08EC59F003D0950E8D
:10B3160008EC59F03EEC58F03EEC58F00D6E0A2A57
:10B326000D6616D00C503A0AD8A412D03EEC58F04E
:10B33600400B0B6E0B50400AD8A402D0010E01D070
:10B34600000E776E3EEC58F03EEC58F03EEC58F0AE
:10B35600828C0D5012000EC006F00FC007F010C010
:10B3660008F011C009F0200E6EEC59F01A6E1A5052
:10B37600D8A42ED012500E24166E13500F20176E1E
:10B3860014501020186E15501120196EFF0E162439
:10B39600066EFF0E1720076EFF0E1820086EFF0EB2
:10B3A6001920096E210E6EEC59F01A6E1A50D8A4A7
:10B3B6000FD0000E066E000E076E000E086E000E11
:10B3C600096E260E6EEC59F01A6E1A50D8B402D0D9
:10B3D6001A5001D0000E1200000E096E000E0A6E01
:10B3E600000E0B6E000E0C6E0850051006100710AE
:10B3F600D8B42AD0010E0D6E06D0D8900536063682
:10B40600073608360D2A08AEF8D7D89009360A3618
:10B416000B360C360550015C06500258075003588F
:10B4260008500458D8A009D00550015E0650025AAB
:10B436000750035A0850045A0980D8900832073238
:10B44600063205320D2EE1D709C001F00AC002F01E
:10B456000BC003F00CC004F01200000E146E000EB8
:10B46600136E0EC006F00FC007F010C008F011C032
:10B4760009F0180E6EEC59F0176E1750D8A423D0A9
:10B48600829CFE0E08EC59F0000E166E000E156E2C
:10B49600000E155C020E1658D8B006D0410E08EC08
:10B4A60059F0154A162AF4D7FF0E08EC59F0FF0E8C
:10B4B60008EC59F017C012F01F0E12161250050AAA
:10B4C600D8B403D0828C175017D0FFD7134A142A4A
:10B4D6003EEC58F00009D8B4F9D7828CFF0E08EC80
:10B4E60059F0829C02D0134A142A3EEC58F0000907
:10B4F600D8B4F9D7828C000E1200226E000E246E8C
:10B50600940E236E010E6F240E6E000E70200F6EC9
:10B51600000E7120106E000E7220116E35EC59F07F
:10B5260023C0D9FF24C0DAFFDECF1DF0DECF1EF028
:10B53600DECF1FF0DECF20F02050410A520ED8B4E5
:10B546001D18520ED8B41E18610ED8B41F18D8A4F0
:10B556006CD021EEE4F02350D9262450DA22DECF37
:10B566001DF0DECF1EF0DECF1FF0DECF20F0205024
:10B57600610A720ED8B41D18720ED8B41E18410E88
:10B58600D8B41F18D8A451D021EEFCF02350D926E8
:10B596002450DA22DECF1DF0DECF1EF0DECF1FF004
:10B5A600DECF20F02050AA0A550ED8B41F181D1061
:10B5B6001E10D8A43AD0186615D02204D8A403D0F9
:10B5C60021EEE8F002D021EEECF02350D9262450EB
:10B5D600DA22DECF18F0DECF19F0DECF1AF0DECF9A
:10B5E6001BF027D02204D8A403D021EEE8F002D025
:10B5F60021EEECF02350D9262450DA2219C0DEFFC2
:10B606001AC0DEFF1BC0DEFF1CC0DEFF010E6F246A
:10B616000E6E000E70200F6E000E7120106E000E62
:10B626007220116E30EC5AF0216E186819681A688B
:10B636001B681200000E126E000E116E000E0F6EC9
:10B6460004D0FF0E08EC59F00F2A090E0F64F9D743
:10B65600829C000E066E000E076E000E086E000E2F
:10B66600096E000E6EEC59F0106E114A122A210E68
:10B67600115C000E1258D8A002D0010E81D0100421
:10B68600D8A4E7D7828CFF0E08EC59F0FF0E08EC21
:10B6960059F0000E126E000E116E020E0E6EAA0EFC
:10B6A600066E010E076E000E086E000E096E080E7D
:10B6B6006EEC59F0106E114A122AFF0E115C000E44
:10B6C6001258D8A005D0010E0E6E010E786E03D06A
:10B6D6001004D8A4E4D7000E126E000E116E000EF0
:10B6E600066E000E076E000E086E000E096E370E0F
:10B6F6006EEC59F0106E000E066E000E076E000E10
:10B70600086E400E096E290E6EEC59F0106E114A45
:10B71600122AFF0E115C000E1258D8A002D0020E9B
:10B726002FD01050040AD8A4DAD7000E126E000EDD
:10B73600116E000E776E0E50020AD8A420D0000EAD
:10B74600066E000E076E000E086E000E096E3A0EAB
:10B756006EEC59F0106E114A122AFF0E115C000EA3
:10B766001258D8A003D0000E786E02D01066E7D724
:10B776007704D8A402D0020E01D0030E786E000E14
:10B786001200BBEC57F01FEC58F0880E016E130E3A
:10B79600026E000E036E000E046EF8EC57F0000EFB
:10B7A600786E000E496E000E486E0A0E485C000E5A
:10B7B6004958D8B009D01DEC5BF04A6E4A6601D0F4
:10B7C60003D0484A492AF1D74A50D8B430D04A045F
:10B7D600D8A406D0BF0E0A6E410E096EB2EC58F020
:10B7E6004A50020AD8A406D0BF0E0A6E300E096E61
:10B7F600B2EC58F0FFD7BF0E0A6E820E096EB2EC9D
:10B8060058F020D0BF0E0A6E620E096EB2EC58F0E8
:10B8160019D0BF0E0A6E920E096EB2EC58F012D015
:10B82600BF0E0A6E720E096EB2EC58F00BD078504D
:10B83600010AD8B4E0D7030AD8B4E4D7010AD8B4C9
:10B84600E8D7EED7010E096E010EDEEC57F0010EB9
:10B85600036E410E87EC58F0010E456E43EC5DF029
:10B8660025504A6E4A50D8B40ED0010E036E5A0EB9
:10B8760087EC58F0BE0E0A6EFD0E096EB2EC58F05B
:10B88600000E456EFFD7500E016EC30E026E000EFF
:10B89600036E000E046EF8EC57F0500E016EC30EE8
:10B8A600026E000E036E000E046EF8EC57F0500E9A
:10B8B600016EC30E026E000E036E000E046EF8ECEF
:10B8C60057F0500E016EC30E026E000E036E000E90
:10B8D600046EF8EC57F0010E096E010EDEEC57F01F
:10B8E600000E636E000E646E000E656E000E666ED0
:10B8F600010E676E000E686E000E696E000E6A6EAF
:10B90600000E026E940E016EBE0E046E050E036EE0
:10B9160007EC58F063C00EF064C00FF065C010F07D
:10B9260066C011F035EC59F04A6E4A50D8B407D0CB
:10B93600BF0E0A6ECE0E096EB2EC58F006D0BF0EE0
:10B946000A6E0E0E096EB2EC58F0FFD763C00EF009
:10B9560064C00FF065C010F066C011F067C012F049
:10B9660068C013F069C014F06AC015F0AEEC59F067
:10B976004A6E4A50D8B407D0BF0E0A6EA20E096EA0
:10B98600B2EC58F072D0BF0E0A6EE60E096EB2EC3B
:10B9960058F06BD0BD0E0A6EEB0E096EB2EC58F085
:10B9A600000E496E000E486E010E476E940E482436
:10B9B600D96E000E4920DA6E47C0DFFF484A492A91
:10B9C60047500D0AD8A40AD0940E4824D96E000E0A
:10B9D6004920DA6E0A0EDF6E484A492A4950020AA1
:10B9E6004810D8B404D047507E0AD8A4DDD763C027
:10B9F6000EF064C00FF065C010F066C011F030ECB8
:10BA06005AF04A6E4A50D8B407D0BF0E0A6EB10E2D
:10BA1600096EB2EC58F029D0BE0E0A6E300E096ED1
:10BA2600B2EC58F022D063C00EF064C00FF065C0CF
:10BA360010F066C011F035EC59F04A6E4A50D8B491
:10BA460007D0BF0E0A6ECE0E096EB2EC58F006D0C5
:10BA5600BF0E0A6E0E0E096EB2EC58F0FFD7BF0E7F
:10BA66000A6E1F0E096EB2EC58F04650300AD8B472
:10BA76006DD7010AD8B48ED7030AD8B4D4D7EFD776
:10BA8600000E6F6E000E706E000E716E000E726EFE
:10BA9600000E0E6E000E0F6E000E106E000E116E72
:10BAA60035EC59F0000E3F6E940E3E6E010E036E9D
:10BAB600420E87EC58F03EC0D9FF3FC0DAFFDF5098
:10BAC600E90AD8B46FD03EC0D9FF3FC0DAFFDF50D5
:10BAD600EB0AD8B467D0000E3B6E940E3A6E010E98
:10BAE600036E430E87EC58F021EEFEF03A50D9264D
:10BAF6003B50DA22D92ADD50AA0A550ED8B4DF18EF
:10BB0600D8A447D0010E036E440E87EC58F0BE0E43
:10BB16003A243C6E010E3B203D6E20EE08F03C5070
:10BB2600D9263D50DA22DECF6FF0DECF70F0DECFC1
:10BB360071F0DECF72F0010E036E450E87EC58F001
:10BB460020EE08F03C50D9263D50DA22DECF0EF02A
:10BB5600DECF0FF0DECF10F0DECF11F035EC59F06E
:10BB6600000E3F6E940E3E6E010E036E460E87EC7F
:10BB760058F03EC0D9FF3FC0DAFFDF50E90AD8B41B
:10BB86000CD03EC0D9FF3FC0DAFFDF50EB0AD8B475
:10BB960004D0000E266E010E23D1010E036E470E51
:10BBA60087EC58F020EE0BF03E50D9263F50DA22B3
:10BBB600DECF73F0DDCF74F020EE0DF03E50D926C7
:10BBC6003F50DA22DF50276E27507A6E7B6A20EECE
:10BBD6000EF03E50D9263F50DA22DECF75F0DDCF8B
:10BBE60076F020EE2CF03E50D9263F50DA22DECFFA
:10BBF6005FF0DECF60F0DECF61F0DECF62F020EEE8
:10BC06001CF03E50D9263F50DA22DECF27F0DECF99
:10BC160028F0DECF29F0DECF2AF020EE10F03E50DD
:10BC2600D9263F50DA22DF502B6E2B50016E026A66
:10BC3600036A046A20EE24F03E50D9263F50DA22E9
:10BC4600DECF05F0DECF06F0DECF07F0DECF08F060
:10BC5600DDEC58F001C02CF002C02DF003C02EF030
:10BC660004C02FF075502C24306E76502D20316E86
:10BC7600000E2E20326E000E2F20336E27503024F9
:10BC86005B6E285031205C6E295032205D6E2A5042
:10BC960033205E6E20EE20F03E50D9263F50DA2249
:10BCA600DECF27F0DECF28F0DECF29F0DECF2AF078
:10BCB60020EE10F03E50D9263F50DA22DF502B6E90
:10BCC6002B50016E026A036A046A20EE24F03E508D
:10BCD600D9263F50DA22DECF05F0DECF06F0DECFE2
:10BCE60007F0DECF08F0DDEC58F001C02CF002C002
:10BCF6002DF003C02EF004C02FF020EE0EF03E50C3
:10BD0600D9263F50DA22DECF30F0DDCF31F0305089
:10BD16002C24326E31502D20336E000E2E20346EC0
:10BD2600000E2F20356E321E331E341E351E322A6B
:10BD3600000E33223422352227503224366E285004
:10BD46003320376E29503420386E2A503520396E0C
:10BD560036C001F037C002F038C003F039C004F035
:10BD66007AC005F07BC006F0076A086AEFEC59F066
:10BD760001C06BF002C06CF003C06DF004C06EF041
:10BD8600010E036E480E87EC58F0000E186E000E7A
:10BD9600196E000E1A6E000E1B6E000E1C6E010E42
:10BDA60080EC5AF018C027F019C028F01AC029F004
:10BDB6001BC02AF027506B5C28506C5829506D58D0
:10BDC6002A506E58D8B002D0000E01D0010E796EFE
:10BDD600010E036E490E87EC58F0000E266E000E1B
:10BDE600256E12000020456E7465722074657874A5
:10BDF6002028456E642077697468207E293A0054AD
:10BE0600484953204953204A55535420412054450C
:10BE16005354202020207E00456E742074787420B0
:10BE2600656E6420776974687E0057726974652050
:10BE36007375636365737366756C2100204672655E
:10BE460065204D656D6F72793A2020200020466985
:10BE56006C6520437265617465642120200020545E
:10BE66006F74616C204D656D6F72793A20200046C3
:10BE7600696C65206E6F7420657869737421200083
:10BE86004372656174696E672046696C652E2E2063
:10BE9600004E6F206672656520636C7573746572FB
:10BEA600210044656C6574696E672E2E2E2E2E2E2B
:10BEB6002E2E0046696C652065786973742C617056
:10BEC600656E6400496E76616C69642066696C65AE
:10BED6004E616D6500456E6420436C757374722007
:10BEE600436861696E0045727220676574696E20E9
:10BEF600636C75737472004641543332206E6F74EE
:10BF060020666F756E6421005265616420737563E7
:10BF16006365737366756C210020496E76616C6982
:10BF260064206F7074696F6E210043726420496EDD
:10BF36006974206661696C65642E00437264206EC4
:10BF46006F74206465746563746564002046696C6B
:10BF56006520617070656E64656421004869676874
:10BF6600204361702044746563742100556E6B6EC6
:10BF76006F776E20534420436172640053746420CB
:10BF86004361702056657220312E78005374642008
:10BF96004361702056657220322E780045726173B7
:10BFA60065206661696C65642E2E0057726974653A
:10BFB600206661696C65642E2E0046696C65206496
:10BFC600656C65746564210052656164206661690B
:10BFD6006C65642E2E006275666665725B6B5D002D
:10BFE600457261736564210046494C4500524F4FC6
:0ABFF6005400444952000A00000004
:020000040020DA
:08000000FFFFFFFFFFFFFFFF00
:020000040030CA
:0E000000FF071F1FFF8385FF0F400F600F409B
:00000001FF
