:100000008031022888018731362F003441344E3444
:080010004B3449345434003430
:100E6C0020008731632F23008C0121008C010800A6
:100E7C00402F402F0130F0020030F13BFF30710663
:100E8C00031D4A2FFF307006031D4D2F4E2F402F90
:100E9C004F2F080020008C16F430F0000130F100C8
:100EAC0087313E27873120008C12F430F00001305E
:100EBC00F10087313E278731080087313927873188
:100ECC008731992787316A2F063087317D27873103
:100EDC000030F3000730F200A130F1002030F000B8
:100EEC008731DA2787316A2F6A2F80310228F60082
:100EFC008E2FF2010314F20D760880310A0087312F
:100F0C008731B82787310130F5007508F6078E2F29
:100F1C00760880310A0087310038031D962F972FF1
:100F2C007F2F982F0800F20101308731B8278731C5
:100F3C00F20102308731B8278731F2010630873150
:100F4C00B8278731F2010C308731B8278731F2018D
:100F5C0028308731B8278731F20180308731B827A4
:100F6C0087310800F4007218BC2FBF2F20000C161C
:100F7C00C12F20000C127408F3000430F336890BD7
:100F8C00C42F0C08F03973048C008731502787313B
:100F9C000F307405F30020000C08F03973048C003A
:100FAC008731502787310800DC2FDC2F0130F4000B
:100FBC000030F5000030F6000030F7007408F00245
:100FCC007508F13B7608F23B7708F33BFF3073066C
:100FDC00031DFA2FFF307206031DFA2FFF30710626
:100FEC00031DFA2FFF307006031DFD2FFE2FDC2F83
:040FFC00FF2F0800BB
:00000001FF
