:100000000A128A11FF2BFF1B0D2883137F188317F9
:100010000008840A0319FF0A08007F087F398A0054
:0A0020000408840A0319FF0A820095
:1007160010308316031387008801080064008001E7
:10072600840A0406031900340406922B7E088A0004
:100736007F08820099230A128A118000840A04081D
:100746007D0603190034FF0A0319FE0A9D2BAC2B04
:10075600AC2B0130F0020030031CF103F102FF3034
:100766007106031DB82BFF307006031DBB2BBC2B77
:10077600AC2BBD2B0800C02BC02B0130F002003083
:10078600031CF103F102FF307106031DCC2BFF3071
:100796007006031DCF2BD02BC02BD12B0800203485
:1007A60020342034203420342034203420342034A3
:1007B60020342034203420342034423479347434C4
:1007C600653473340034831203138816F430F00052
:1007D6000130F1000A128A11AA230A128A11831221
:1007E60003138812F430F0000130F1000A128A1166
:1007F600AA230A128A110800FD01831320308400FF
:100806005A300A128A1191230A128A11B430FD0055
:100816000330FE00D230FF00A03084000A128A1195
:100826009D230A128A1183010A128A11692DF40086
:1008360072181E2C222C831203130816252C8312E1
:10084600031308127408F30004300310F30CFF3E80
:10085600031D282C0808F039730488000A128A112F
:10086600E6230A128A110F307405F300831203136C
:100876000808F039730488000A128A11E6230A125E
:100886008A110800F20101300A128A111A240A128A
:100896008A11F20102300A128A111A240A128A11E6
:1008A600F20106300A128A111A240A128A11F2017A
:1008B6000C300A128A111A240A128A11F2012830FF
:1008C6000A128A111A240A128A11F20180300A12B7
:1008D6008A111A240A128A1108008B2CF2010314B9
:1008E600F20D760883120313FF00750884000A12BE
:1008F6008A1103200A128A110A128A111A240A126C
:100906008A110130F5070318F60A0030F6078B2C1A
:10091600760883120313FF00750884000A128A11F1
:1009260003200A128A110038031D9A2C9B2C712C65
:100936009C2C08008312031307130130F0000030CB
:10094600F1000A128A11BE230A128A11F401083034
:100956007402031CAF2CB02CB22CED2CED2C8312A0
:10096600031387110130F0000030F1000A128A11DA
:10097600BE230A128A117508F2007207F300730883
:10098600F50083120313071EC92CCA2CD02C750838
:10099600013EF2007208F500D02C87150130F000F8
:1009A6000030F1000A128A11BE230A128A110130A0
:1009B600F0000030F1000A128A11BE230A128A11D1
:1009C6000130F2007208F40708307402031CEC2CA4
:1009D600ED2CB22C8312031307170130F000003000
:1009E600F1000A128A11BE230A128A117508FB2C1D
:1009F6000800F4007408F2007208F500831203136D
:100A060007130130F0000030F1000A128A11BE23EC
:100A16000A128A11F60108307602031C132D142DD2
:100A2600162D5C2D5C2D8312031387110130F00007
:100A36000030F1000A128A11BE230A128A11F51F2C
:100A4600252D262D2A2D8312031387162E2D83126C
:100A5600031387122E2D7508F2007207F300730830
:100A6600F5000130F0000030F1000A128A11BE23B1
:100A76000A128A118312031387150130F000003021
:100A8600F1000A128A11BE230A128A110130F000FF
:100A96000030F1000A128A11BE230A128A110130AF
:100AA600F2007208F60708307602031C5B2D5C2DF7
:100AB600162D8312031307170130F0000030F100E2
:100AC6000A128A11BE230A128A1108000A128A1112
:100AD6008B230A128A110A128A1145240A128A11D4
:100AE60083120313CD01EB01EC0100306C020A30D6
:100AF60003196B02031C802D812D832DA42DA42D9B
:100B06000A128A11E6260A128A11FC007C08831250
:100B16000313ED00ED08031D912D922D942DA42DA8
:100B2600A42D0130EB070318EC0A0030EC07003067
:100B36006C020A3003196B02031CA22DA32D832D10
:100B4600A42D6D08031DA82DCD2D6D08013A031D9A
:100B5600AD2DAE2DB82DF030F5009E30F6000A1200
:100B66008A1170240A128A11B82D831203136D0894
:100B7600023A031DBF2DC02DCB2DDF30F5009E3070
:100B8600F6000A128A1170240A128A11CB2DCB2D77
:100B9600CB2DCD2D1230F5009E30F6000A128A11AB
:100BA60070240A128A11D72DD72D0A128A1100280D
:100BB60083120313E100DE01CC08031DE32DE42DAF
:100BC600242E6108113A0319E92DEA2D092E610830
:100BD600123A0319EF2DF02D092E6108183A031960
:100BE600F52DF62D092E6108193A0319FB2DFC2D5A
:100BF600092E6108203A0319012E022E092E6108DA
:100C0600213A031D072E082E242E092E7708DA0016
:100C16007808DB007908DC007A08DD00093003106B
:100C2600DA0DDB0DDC0DDD0DFF3E031D122E5D081A
:100C3600FA005C08F9005B08F8005A08F700242E51
:100C4600242E0713610840380A128A11FC240A125E
:100C56008A11770883120313DA007808DB00790813
:100C6600DC007A08DD0018300310DD0CDC0CDB0C30
:100C7600DA0CFF3E031D372E5A080A128A11FC248D
:100C86000A128A11770883120313DA007808DB0048
:100C96007908DC007A08DD0010300310DD0CDC0C6E
:100CA600DB0CDA0CFF3E031D502E5A080A128A117D
:100CB600FC240A128A11770883120313DA007808D3
:100CC600DB007908DC007A08DD0008300310DD0C53
:100CD600DC0CDB0CDA0CFF3E031D692E5A080A12E7
:100CE6008A11FC240A128A1177080A128A11FC2436
:100CF6000A128A11831203136108083A031D842E0F
:100D0600852E8C2E87300A128A11FC240A128A112B
:100D16009C2E95300A128A11FC240A128A119C2EE6
:100D26009C2E013083120313DA005A08DE07AA2E1E
:100D36009C2E0A128A119D240A128A118312031309
:100D4600E000FF3A0319A82EA92E942EAA2EE00839
:100D5600031DAE2EAF2EDB2E61083A3A031DB42ECC
:100D6600B52EDB2E0A128A119D240A128A114039E9
:100D760083120313DA005A08DF005F08403A031DA6
:100D8600C52EC62ECA2ECC010314CC0DCC2ECC01FA
:100D9600CC2E0A128A119D240A128A110A128A116D
:100DA6009D240A128A110A128A119D240A128A1196
:100DB6000A128A119D240A128A1183120313071735
:100DC6006008E52E080083120313E501E601E3013E
:100DD6000A306302031CF02EF12EF32E052F052F89
:100DE600FF300A128A11FC240A128A110130FB0014
:100DF6007B0883120313E3070A306302031C042FE4
:100E0600052FF32E0713072F0030FA000030F900E4
:100E16000030F8000030F70000300A128A11DB2596
:100E26000A128A11FB007B0883120313E4000130C7
:100E3600E5070318E60A0030E607003066022130AF
:100E460003196502031C282F292F2C2F0130FF2F91
:100E5600FF2F6408013A031D312F322F072F071782
:100E6600FF300A128A11FC240A128A11FF300A1274
:100E76008A11FC240A128A1183120313E501E60182
:100E86000230FB007B08E200482F0030FA000030F9
:100E9600F9000130F800AA30F70008300A128A116A
:100EA600DB250A128A11FB007B0883120313E40078
:100EB6000130E5070318E60A0030E607003066024F
:100EC600FF3003196502031C692F6A2F712FE20197
:100ED6000314E20DCD010314CD0D782F6408013AF9
:100EE600031D762F772F482F782FE501E6017B2FFC
:100EF6000030FA000030F9000030F8000030F7004A
:100F060037300A128A11DB250A128A11FB007B0888
:100F160083120313E4004030FA000030F900003079
:100F2600F8000030F70029300A128A11DB250A1270
:100F36008A11FB007B0883120313E4000130E507E6
:100F46000318E60A0030E60700306602FF30031990
:100F56006502031CAF2FB02FB32F0230FF2FFF2FD8
:100F6600E408031DB72FB82F7B2FB92FE501E60143
:100F7600CC016208023A031DC12FC22FFD2FC32FD9
:100F86000030FA000030F9000030F8000030F700B9
:100F96003A300A128A11DB250A128A11FB007B08F5
:100FA60083120313E4000130E5070318E60A003054
:100FB600E60700306602FF3003196502031CE42FC2
:100FC600E52FE72FCD01ED2FE408031DEB2FEC2FC6
:100FD600C32FED2F4C08013A031DF22FF32FF82FE4
:100FE6000230FB007B08CD00FD2F0330FB007B08A1
:0A0FF600CD00FD2F0030FF2F080092
:103C000045346E347434203474347834743420344D
:103C100065346E34643420347734693474346834F1
:103C20007E3400342E342E342E34533444342F3426
:103C30004D344D344334203463346134723464344D
:103C40002E342E342E34003420344634723465340D
:103C5000653420344D3465346D346F3472347934C6
:103C60003A3420342034203400342034463469344B
:103C70006C346534203443347234653461347434C4
:103C800065346434213420342034003420345434F6
:103C90006F34743461346C3420344D3465346D3495
:103CA0006F34723479343A3420342034003446345A
:103CB00069346C34653420346E346F347434203499
:103CC00065347834693473347434213420340034E6
:103CD0004334723465346134743469346E34673417
:103CE0002034463469346C3465342E342E34203418
:103CF00000344E346F3420346634723465346534A5
:103D0000203463346C3475347334743465347234F1
:103D100021340034443465346C346534743469348B
:103D20006E3467342E342E342E342E342E342E340A
:103D30002E342E340034463469346C3465342034E7
:103D4000653478346934733474342C3461347034A9
:103D500065346E346434003449346E3476346134FE
:103D60006C34693464342034663469346C346534BA
:103D70004E3461346D346534003445346E3464340B
:103D8000203443346C3475347334743472342034D6
:103D900043346834613469346E34003445347234E9
:103DA0007234203467346534743469346E342034AA
:103DB00063346C3475347334743472340034433483
:103DC00072346434203449346E34693474342034A9
:103DD0006634613469346C34653464342E340034B0
:103DE00043347234643420346E346F347434203489
:103DF00064346534743465346334743465346434E1
:103E000000342034463469346C34653420346134F1
:103E10007034703465346E34643465346434213401
:103E20000034463469346C34653420346434653489
:103E30006C34653474346534643421340034623451
:103E4000753466346634653472345B346B345D3497
:103E50000034463449344C344534003452344F3401
:103E60004F345434003444344934523400340A3426
:023E700000341C
:00000001FF
